{
  "_format": "hh-sol-artifact-1",
  "contractName": "Staking",
  "sourceName": "contracts/Staking.sol",
  "abi": [
    {
      "inputs": [
        {
          "internalType": "contract Token",
          "name": "_address",
          "type": "address"
        }
      ],
      "stateMutability": "nonpayable",
      "type": "constructor"
    },
    {
      "anonymous": false,
      "inputs": [
        {
          "indexed": false,
          "internalType": "address",
          "name": "account",
          "type": "address"
        }
      ],
      "name": "Paused",
      "type": "event"
    },
    {
      "anonymous": false,
      "inputs": [
        {
          "indexed": true,
          "internalType": "address",
          "name": "_staker",
          "type": "address"
        },
        {
          "indexed": true,
          "internalType": "uint256",
          "name": "_amount",
          "type": "uint256"
        }
      ],
      "name": "Staked",
      "type": "event"
    },
    {
      "anonymous": false,
      "inputs": [
        {
          "indexed": false,
          "internalType": "address",
          "name": "account",
          "type": "address"
        }
      ],
      "name": "Unpaused",
      "type": "event"
    },
    {
      "anonymous": false,
      "inputs": [
        {
          "indexed": true,
          "internalType": "address",
          "name": "_withdrawer",
          "type": "address"
        },
        {
          "indexed": true,
          "internalType": "uint256",
          "name": "_amount",
          "type": "uint256"
        }
      ],
      "name": "Withdraw",
      "type": "event"
    },
    {
      "stateMutability": "payable",
      "type": "fallback"
    },
    {
      "inputs": [],
      "name": "admin",
      "outputs": [
        {
          "internalType": "address",
          "name": "",
          "type": "address"
        }
      ],
      "stateMutability": "view",
      "type": "function"
    },
    {
      "inputs": [
        {
          "internalType": "address",
          "name": "_staker",
          "type": "address"
        }
      ],
      "name": "amountEarned",
      "outputs": [
        {
          "internalType": "uint256",
          "name": "amount",
          "type": "uint256"
        }
      ],
      "stateMutability": "view",
      "type": "function"
    },
    {
      "inputs": [],
      "name": "getStakeperiods",
      "outputs": [
        {
          "internalType": "uint256[]",
          "name": "",
          "type": "uint256[]"
        }
      ],
      "stateMutability": "view",
      "type": "function"
    },
    {
      "inputs": [],
      "name": "getTotalVolume",
      "outputs": [
        {
          "internalType": "uint256",
          "name": "",
          "type": "uint256"
        }
      ],
      "stateMutability": "view",
      "type": "function"
    },
    {
      "inputs": [
        {
          "internalType": "uint256",
          "name": "",
          "type": "uint256"
        }
      ],
      "name": "levels",
      "outputs": [
        {
          "internalType": "uint256",
          "name": "",
          "type": "uint256"
        }
      ],
      "stateMutability": "view",
      "type": "function"
    },
    {
      "inputs": [
        {
          "internalType": "uint256",
          "name": "",
          "type": "uint256"
        }
      ],
      "name": "lockPeriods",
      "outputs": [
        {
          "internalType": "uint256",
          "name": "",
          "type": "uint256"
        }
      ],
      "stateMutability": "view",
      "type": "function"
    },
    {
      "inputs": [],
      "name": "pause",
      "outputs": [],
      "stateMutability": "nonpayable",
      "type": "function"
    },
    {
      "inputs": [],
      "name": "paused",
      "outputs": [
        {
          "internalType": "bool",
          "name": "",
          "type": "bool"
        }
      ],
      "stateMutability": "view",
      "type": "function"
    },
    {
      "inputs": [
        {
          "internalType": "uint256",
          "name": "_amount",
          "type": "uint256"
        }
      ],
      "name": "stakeChakra",
      "outputs": [],
      "stateMutability": "nonpayable",
      "type": "function"
    },
    {
      "inputs": [
        {
          "internalType": "address",
          "name": "",
          "type": "address"
        },
        {
          "internalType": "uint256",
          "name": "",
          "type": "uint256"
        }
      ],
      "name": "stakerIdsByAddress",
      "outputs": [
        {
          "internalType": "uint256",
          "name": "",
          "type": "uint256"
        }
      ],
      "stateMutability": "view",
      "type": "function"
    },
    {
      "inputs": [
        {
          "internalType": "uint256",
          "name": "",
          "type": "uint256"
        }
      ],
      "name": "stakers",
      "outputs": [
        {
          "internalType": "address",
          "name": "staker",
          "type": "address"
        },
        {
          "internalType": "uint256",
          "name": "stakerId",
          "type": "uint256"
        },
        {
          "internalType": "uint256",
          "name": "dateCreated",
          "type": "uint256"
        },
        {
          "internalType": "uint256",
          "name": "amountStaked",
          "type": "uint256"
        },
        {
          "internalType": "bool",
          "name": "claimed",
          "type": "bool"
        }
      ],
      "stateMutability": "view",
      "type": "function"
    },
    {
      "inputs": [],
      "name": "totalStakedAmount",
      "outputs": [
        {
          "internalType": "uint256",
          "name": "",
          "type": "uint256"
        }
      ],
      "stateMutability": "view",
      "type": "function"
    },
    {
      "inputs": [],
      "name": "unpause",
      "outputs": [],
      "stateMutability": "nonpayable",
      "type": "function"
    },
    {
      "inputs": [
        {
          "internalType": "uint256",
          "name": "_numOfDays",
          "type": "uint256"
        },
        {
          "internalType": "uint256",
          "name": "_interest",
          "type": "uint256"
        }
      ],
      "name": "updateStakePeriod",
      "outputs": [],
      "stateMutability": "nonpayable",
      "type": "function"
    },
    {
      "inputs": [],
      "name": "withdrawChakra",
      "outputs": [],
      "stateMutability": "nonpayable",
      "type": "function"
    },
    {
      "stateMutability": "payable",
      "type": "receive"
    }
  ],
  "bytecode": "0x60806040523480156200001157600080fd5b5060405162001fef38038062001fef833981810160405281019062000037919062000240565b60008060006101000a81548160ff0219169083151502179055506001808190555033600360006101000a81548173ffffffffffffffffffffffffffffffffffffffff021916908373ffffffffffffffffffffffffffffffffffffffff16021790555080600260006101000a81548173ffffffffffffffffffffffffffffffffffffffff021916908373ffffffffffffffffffffffffffffffffffffffff16021790555061012c6008600060788152602001908152602001600020819055506102586008600060f08152602001908152602001600020819055506103e8600860006101a4815260200190815260200160002081905550600960789080600181540180825580915050600190039060005260206000200160009091909190915055600960f0908060018154018082558091505060019003906000526020600020016000909190919091505560096101a49080600181540180825580915050600190039060005260206000200160009091909190915055600060048190555060006005819055505062000272565b600080fd5b600073ffffffffffffffffffffffffffffffffffffffff82169050919050565b6000620001f482620001c7565b9050919050565b60006200020882620001e7565b9050919050565b6200021a81620001fb565b81146200022657600080fd5b50565b6000815190506200023a816200020f565b92915050565b600060208284031215620002595762000258620001c2565b5b6000620002698482850162000229565b91505092915050565b611d6d80620002826000396000f3fe6080604052600436106100ec5760003560e01c80636655053c1161008a578063b05e148d11610059578063b05e148d14610324578063b2596a6714610361578063f851a4401461039e578063fd5e6dd1146103c95761012c565b80636655053c146102a45780638456cb59146102bb578063a94a8351146102d2578063ab0eedb4146102fb5761012c565b80633f4ba83a116100c65780633f4ba83a146101fa5780634c8f2a7814610211578063567e98f91461024e5780635c975abb146102795761012c565b806309deaa24146101675780630b9d98e9146101a45780631bfca546146101cf5761012c565b3661012c576040517f08c379a000000000000000000000000000000000000000000000000000000000815260040161012390611453565b60405180910390fd5b6040517f08c379a000000000000000000000000000000000000000000000000000000000815260040161015e90611453565b60405180910390fd5b34801561017357600080fd5b5061018e600480360381019061018991906114d6565b61040a565b60405161019b919061151c565b60405180910390f35b3480156101b057600080fd5b506101b96104c2565b6040516101c6919061151c565b60405180910390f35b3480156101db57600080fd5b506101e4610574565b6040516101f191906115f5565b60405180910390f35b34801561020657600080fd5b5061020f61065c565b005b34801561021d57600080fd5b5061023860048036038101906102339190611643565b6106f6565b604051610245919061151c565b60405180910390f35b34801561025a57600080fd5b5061026361071a565b604051610270919061151c565b60405180910390f35b34801561028557600080fd5b5061028e610724565b60405161029b919061168b565b60405180910390f35b3480156102b057600080fd5b506102b961073a565b005b3480156102c757600080fd5b506102d0610abe565b005b3480156102de57600080fd5b506102f960048036038101906102f49190611643565b610b58565b005b34801561030757600080fd5b50610322600480360381019061031d91906116a6565b610ea6565b005b34801561033057600080fd5b5061034b600480360381019061034691906116e6565b610fbe565b604051610358919061151c565b60405180910390f35b34801561036d57600080fd5b5061038860048036038101906103839190611643565b610fef565b604051610395919061151c565b60405180910390f35b3480156103aa57600080fd5b506103b3611007565b6040516103c09190611735565b60405180910390f35b3480156103d557600080fd5b506103f060048036038101906103eb9190611643565b61102d565b604051610401959493929190611750565b60405180910390f35b60008061041683611090565b905060005b81518110156104bb576104786006600084848151811061043e5761043d6117a3565b5b602002602001015181526020019081526020016000206003015483838151811061046b5761046a6117a3565b5b602002602001015161112f565b6006600084848151811061048f5761048e6117a3565b5b60200260200101518152602001908152602001600020600301540183019250808060010191505061041b565b5050919050565b6000600260009054906101000a900473ffffffffffffffffffffffffffffffffffffffff1673ffffffffffffffffffffffffffffffffffffffff166370a08231306040518263ffffffff1660e01b815260040161051f9190611735565b60206040518083038186803b15801561053757600080fd5b505afa15801561054b573d6000803e3d6000fd5b505050506040513d601f19601f8201168201806040525081019061056f91906117e7565b905090565b60603373ffffffffffffffffffffffffffffffffffffffff16600360009054906101000a900473ffffffffffffffffffffffffffffffffffffffff1673ffffffffffffffffffffffffffffffffffffffff1614610606576040517f08c379a00000000000000000000000000000000000000000000000000000000081526004016105fd90611860565b60405180910390fd5b600980548060200260200160405190810160405280929190818152602001828054801561065257602002820191906000526020600020905b81548152602001906001019080831161063e575b5050505050905090565b3373ffffffffffffffffffffffffffffffffffffffff16600360009054906101000a900473ffffffffffffffffffffffffffffffffffffffff1673ffffffffffffffffffffffffffffffffffffffff16146106ec576040517f08c379a00000000000000000000000000000000000000000000000000000000081526004016106e390611860565b60405180910390fd5b6106f4611297565b565b6009818154811061070657600080fd5b906000526020600020016000915090505481565b6000600454905090565b60008060009054906101000a900460ff16905090565b60026001541415610780576040517f08c379a0000000000000000000000000000000000000000000000000000000008152600401610777906118cc565b60405180910390fd5b60026001819055506107906112f9565b60003390506000806000905060006107a784611090565b905060005b81518110156108ea5760001515600660008484815181106107d0576107cf6117a3565b5b6020026020010151815260200190815260200160002060040160009054906101000a900460ff16151514156108df5761085360066000848481518110610819576108186117a3565b5b6020026020010151815260200190815260200160002060030154838381518110610846576108456117a3565b5b602002602001015161112f565b6006600084848151811061086a576108696117a3565b5b602002602001015181526020019081526020016000206003015401840193506064840393506064830192506001600660008484815181106108ae576108ad6117a3565b5b6020026020010151815260200190815260200160002060040160006101000a81548160ff0219169083151502179055505b8060010190506107ac565b50600260009054906101000a900473ffffffffffffffffffffffffffffffffffffffff1673ffffffffffffffffffffffffffffffffffffffff1663a9059cbb33856040518363ffffffff1660e01b81526004016109489291906118ec565b602060405180830381600087803b15801561096257600080fd5b505af1158015610976573d6000803e3d6000fd5b505050506040513d601f19601f8201168201806040525081019061099a9190611941565b50600260009054906101000a900473ffffffffffffffffffffffffffffffffffffffff1673ffffffffffffffffffffffffffffffffffffffff1663a9059cbb600360009054906101000a900473ffffffffffffffffffffffffffffffffffffffff16846040518363ffffffff1660e01b8152600401610a1a9291906118ec565b602060405180830381600087803b158015610a3457600080fd5b505af1158015610a48573d6000803e3d6000fd5b505050506040513d601f19601f82011682018060405250810190610a6c9190611941565b5050818373ffffffffffffffffffffffffffffffffffffffff167f884edad9ce6fa2440d8a54cc123490eb96d2768479d49ff9c7366125a942436460405160405180910390a350505060018081905550565b3373ffffffffffffffffffffffffffffffffffffffff16600360009054906101000a900473ffffffffffffffffffffffffffffffffffffffff1673ffffffffffffffffffffffffffffffffffffffff1614610b4e576040517f08c379a0000000000000000000000000000000000000000000000000000000008152600401610b4590611860565b60405180910390fd5b610b56611343565b565b610b606112f9565b600073ffffffffffffffffffffffffffffffffffffffff163373ffffffffffffffffffffffffffffffffffffffff161415610bd0576040517f08c379a0000000000000000000000000000000000000000000000000000000008152600401610bc7906119e0565b60405180910390fd5b670de0b6b3a7640000811015610c1b576040517f08c379a0000000000000000000000000000000000000000000000000000000008152600401610c1290611a4c565b60405180910390fd5b600260009054906101000a900473ffffffffffffffffffffffffffffffffffffffff1673ffffffffffffffffffffffffffffffffffffffff166323b872dd3330846040518463ffffffff1660e01b8152600401610c7a93929190611a6c565b602060405180830381600087803b158015610c9457600080fd5b505af1158015610ca8573d6000803e3d6000fd5b505050506040513d601f19601f82011682018060405250810190610ccc9190611941565b50600160056000828254610ce09190611ad2565b925050819055506040518060a001604052803373ffffffffffffffffffffffffffffffffffffffff16815260200160055481526020014281526020018281526020016000151581525060066000600554815260200190815260200160002060008201518160000160006101000a81548173ffffffffffffffffffffffffffffffffffffffff021916908373ffffffffffffffffffffffffffffffffffffffff16021790555060208201518160010155604082015181600201556060820151816003015560808201518160040160006101000a81548160ff021916908315150217905550905050600760003373ffffffffffffffffffffffffffffffffffffffff1673ffffffffffffffffffffffffffffffffffffffff16815260200190815260200160002060055490806001815401808255809150506001900390600052602060002001600090919091909150558060046000828254610e409190611ad2565b92505081905550600660006005548152602001908152602001600020600301543373ffffffffffffffffffffffffffffffffffffffff167f9e71bc8eea02a63969f509818f2dafb9254532904319f9dbda79b67bd34a5f3d60405160405180910390a350565b3373ffffffffffffffffffffffffffffffffffffffff16600360009054906101000a900473ffffffffffffffffffffffffffffffffffffffff1673ffffffffffffffffffffffffffffffffffffffff1614610f36576040517f08c379a0000000000000000000000000000000000000000000000000000000008152600401610f2d90611860565b60405180910390fd5b610f3e6112f9565b6000601883610f4d9190611b28565b90506000603c8083610f5f9190611b28565b610f699190611b28565b9050606483610f789190611b28565b6008600083815260200190815260200160002081905550600981908060018154018082558091505060019003906000526020600020016000909190919091505550505050565b60076020528160005260406000208181548110610fda57600080fd5b90600052602060002001600091509150505481565b60086020528060005260406000206000915090505481565b600360009054906101000a900473ffffffffffffffffffffffffffffffffffffffff1681565b60066020528060005260406000206000915090508060000160009054906101000a900473ffffffffffffffffffffffffffffffffffffffff16908060010154908060020154908060030154908060040160009054906101000a900460ff16905085565b606061109a6112f9565b600760008373ffffffffffffffffffffffffffffffffffffffff1673ffffffffffffffffffffffffffffffffffffffff16815260200190815260200160002080548060200260200160405190810160405280929190818152602001828054801561112357602002820191906000526020600020905b81548152602001906001019080831161110f575b50505050509050919050565b60006111396112f9565b600060066000848152602001908152602001600020600201544261115d9190611b82565b90506000805b60016009805490506111759190611b82565b8111611273576009818154811061118f5761118e6117a3565b5b906000526020600020015483101580156111d2575060096001826111b39190611ad2565b815481106111c4576111c36117a3565b5b906000526020600020015483105b156112105760086000600983815481106111ef576111ee6117a3565b5b90600052602060002001548152602001908152602001600020549150611260565b600960016009805490506112249190611b82565b81548110611235576112346117a3565b5b9060005260206000200154831061125f57600860006101a481526020019081526020016000205491505b5b808061126b90611bb6565b915050611163565b5061271085826112839190611b28565b61128d9190611c2e565b9250505092915050565b61129f6113a5565b60008060006101000a81548160ff0219169083151502179055507f5db9ee0a495bf2e6ff9c91a7834c1ba4fdd244a5e8aa4e537bd38aeae4b073aa6112e26113ee565b6040516112ef9190611735565b60405180910390a1565b611301610724565b15611341576040517f08c379a000000000000000000000000000000000000000000000000000000000815260040161133890611cab565b60405180910390fd5b565b61134b6112f9565b60016000806101000a81548160ff0219169083151502179055507f62e78cea01bee320cd4e420270b5ea74000d11b0c9f74754ebdbfc544b05a25861138e6113ee565b60405161139b9190611735565b60405180910390a1565b6113ad610724565b6113ec576040517f08c379a00000000000000000000000000000000000000000000000000000000081526004016113e390611d17565b60405180910390fd5b565b600033905090565b600082825260208201905092915050565b7f4e6f206b6e6f776e207472616e73616374696f6e000000000000000000000000600082015250565b600061143d6014836113f6565b915061144882611407565b602082019050919050565b6000602082019050818103600083015261146c81611430565b9050919050565b600080fd5b600073ffffffffffffffffffffffffffffffffffffffff82169050919050565b60006114a382611478565b9050919050565b6114b381611498565b81146114be57600080fd5b50565b6000813590506114d0816114aa565b92915050565b6000602082840312156114ec576114eb611473565b5b60006114fa848285016114c1565b91505092915050565b6000819050919050565b61151681611503565b82525050565b6000602082019050611531600083018461150d565b92915050565b600081519050919050565b600082825260208201905092915050565b6000819050602082019050919050565b61156c81611503565b82525050565b600061157e8383611563565b60208301905092915050565b6000602082019050919050565b60006115a282611537565b6115ac8185611542565b93506115b783611553565b8060005b838110156115e85781516115cf8882611572565b97506115da8361158a565b9250506001810190506115bb565b5085935050505092915050565b6000602082019050818103600083015261160f8184611597565b905092915050565b61162081611503565b811461162b57600080fd5b50565b60008135905061163d81611617565b92915050565b60006020828403121561165957611658611473565b5b60006116678482850161162e565b91505092915050565b60008115159050919050565b61168581611670565b82525050565b60006020820190506116a0600083018461167c565b92915050565b600080604083850312156116bd576116bc611473565b5b60006116cb8582860161162e565b92505060206116dc8582860161162e565b9150509250929050565b600080604083850312156116fd576116fc611473565b5b600061170b858286016114c1565b925050602061171c8582860161162e565b9150509250929050565b61172f81611498565b82525050565b600060208201905061174a6000830184611726565b92915050565b600060a0820190506117656000830188611726565b611772602083018761150d565b61177f604083018661150d565b61178c606083018561150d565b611799608083018461167c565b9695505050505050565b7f4e487b7100000000000000000000000000000000000000000000000000000000600052603260045260246000fd5b6000815190506117e181611617565b92915050565b6000602082840312156117fd576117fc611473565b5b600061180b848285016117d2565b91505092915050565b7f4f6e6c79206f776e65722063616e206368616e67652069740000000000000000600082015250565b600061184a6018836113f6565b915061185582611814565b602082019050919050565b600060208201905081810360008301526118798161183d565b9050919050565b7f5265656e7472616e637947756172643a207265656e7472616e742063616c6c00600082015250565b60006118b6601f836113f6565b91506118c182611880565b602082019050919050565b600060208201905081810360008301526118e5816118a9565b9050919050565b60006040820190506119016000830185611726565b61190e602083018461150d565b9392505050565b61191e81611670565b811461192957600080fd5b50565b60008151905061193b81611915565b92915050565b60006020828403121561195757611956611473565b5b60006119658482850161192c565b91505092915050565b7f416464726573732063616e6e6f7420626520746865207a65726f20616464726560008201527f7373000000000000000000000000000000000000000000000000000000000000602082015250565b60006119ca6022836113f6565b91506119d58261196e565b604082019050919050565b600060208201905081810360008301526119f9816119bd565b9050919050565b7f56616c7565206d7573742062652067726561746572207468616e203000000000600082015250565b6000611a36601c836113f6565b9150611a4182611a00565b602082019050919050565b60006020820190508181036000830152611a6581611a29565b9050919050565b6000606082019050611a816000830186611726565b611a8e6020830185611726565b611a9b604083018461150d565b949350505050565b7f4e487b7100000000000000000000000000000000000000000000000000000000600052601160045260246000fd5b6000611add82611503565b9150611ae883611503565b9250827fffffffffffffffffffffffffffffffffffffffffffffffffffffffffffffffff03821115611b1d57611b1c611aa3565b5b828201905092915050565b6000611b3382611503565b9150611b3e83611503565b9250817fffffffffffffffffffffffffffffffffffffffffffffffffffffffffffffffff0483118215151615611b7757611b76611aa3565b5b828202905092915050565b6000611b8d82611503565b9150611b9883611503565b925082821015611bab57611baa611aa3565b5b828203905092915050565b6000611bc182611503565b91507fffffffffffffffffffffffffffffffffffffffffffffffffffffffffffffffff821415611bf457611bf3611aa3565b5b600182019050919050565b7f4e487b7100000000000000000000000000000000000000000000000000000000600052601260045260246000fd5b6000611c3982611503565b9150611c4483611503565b925082611c5457611c53611bff565b5b828204905092915050565b7f5061757361626c653a2070617573656400000000000000000000000000000000600082015250565b6000611c956010836113f6565b9150611ca082611c5f565b602082019050919050565b60006020820190508181036000830152611cc481611c88565b9050919050565b7f5061757361626c653a206e6f7420706175736564000000000000000000000000600082015250565b6000611d016014836113f6565b9150611d0c82611ccb565b602082019050919050565b60006020820190508181036000830152611d3081611cf4565b905091905056fea26469706673582212209e527e2de6d3ca1b15cc663e5e99d281b9588e00317203676c11efcbd908987e64736f6c63430008090033",
  "linkReferences": {},
  "deployedLinkReferences": {}
}