{
  "_format": "hh-sol-artifact-1",
  "contractName": "Staking",
  "sourceName": "contracts/Staking.sol",
  "abi": [
    {
      "inputs": [
        {
          "internalType": "contract Token",
          "name": "_address",
          "type": "address"
        }
      ],
      "stateMutability": "nonpayable",
      "type": "constructor"
    },
    {
      "anonymous": false,
      "inputs": [
        {
          "indexed": false,
          "internalType": "address",
          "name": "account",
          "type": "address"
        }
      ],
      "name": "Paused",
      "type": "event"
    },
    {
      "anonymous": false,
      "inputs": [
        {
          "indexed": false,
          "internalType": "address",
          "name": "_staker",
          "type": "address"
        },
        {
          "indexed": false,
          "internalType": "uint256",
          "name": "_amount",
          "type": "uint256"
        }
      ],
      "name": "Staked",
      "type": "event"
    },
    {
      "anonymous": false,
      "inputs": [
        {
          "indexed": false,
          "internalType": "address",
          "name": "account",
          "type": "address"
        }
      ],
      "name": "Unpaused",
      "type": "event"
    },
    {
      "anonymous": false,
      "inputs": [
        {
          "indexed": false,
          "internalType": "address",
          "name": "_withdrawer",
          "type": "address"
        },
        {
          "indexed": false,
          "internalType": "uint256",
          "name": "_amount",
          "type": "uint256"
        },
        {
          "indexed": false,
          "internalType": "uint256",
          "name": "_interestEarned",
          "type": "uint256"
        }
      ],
      "name": "Withdraw",
      "type": "event"
    },
    {
      "inputs": [],
      "name": "admin",
      "outputs": [
        {
          "internalType": "address",
          "name": "",
          "type": "address"
        }
      ],
      "stateMutability": "view",
      "type": "function"
    },
    {
      "inputs": [
        {
          "internalType": "uint256",
          "name": "_id",
          "type": "uint256"
        }
      ],
      "name": "getInterestRate",
      "outputs": [
        {
          "internalType": "uint256",
          "name": "",
          "type": "uint256"
        }
      ],
      "stateMutability": "view",
      "type": "function"
    },
    {
      "inputs": [],
      "name": "getStakeperiods",
      "outputs": [
        {
          "internalType": "uint256[]",
          "name": "",
          "type": "uint256[]"
        }
      ],
      "stateMutability": "view",
      "type": "function"
    },
    {
      "inputs": [
        {
          "internalType": "address",
          "name": "_address",
          "type": "address"
        }
      ],
      "name": "getStakerIdsByAddresses",
      "outputs": [
        {
          "internalType": "uint256[]",
          "name": "",
          "type": "uint256[]"
        }
      ],
      "stateMutability": "view",
      "type": "function"
    },
    {
      "inputs": [
        {
          "internalType": "uint256",
          "name": "_stakerId",
          "type": "uint256"
        }
      ],
      "name": "getStakersById",
      "outputs": [
        {
          "components": [
            {
              "internalType": "uint256",
              "name": "stakerId",
              "type": "uint256"
            },
            {
              "internalType": "address",
              "name": "stakerAddress",
              "type": "address"
            },
            {
              "internalType": "uint256",
              "name": "dateCreated",
              "type": "uint256"
            },
            {
              "internalType": "uint256",
              "name": "amountStaked",
              "type": "uint256"
            },
            {
              "internalType": "bool",
              "name": "open",
              "type": "bool"
            }
          ],
          "internalType": "struct Staking.Stakers",
          "name": "",
          "type": "tuple"
        }
      ],
      "stateMutability": "view",
      "type": "function"
    },
    {
      "inputs": [],
      "name": "getTotalVolume",
      "outputs": [
        {
          "internalType": "uint256",
          "name": "",
          "type": "uint256"
        }
      ],
      "stateMutability": "view",
      "type": "function"
    },
    {
      "inputs": [
        {
          "internalType": "uint256",
          "name": "",
          "type": "uint256"
        }
      ],
      "name": "levels",
      "outputs": [
        {
          "internalType": "uint256",
          "name": "",
          "type": "uint256"
        }
      ],
      "stateMutability": "view",
      "type": "function"
    },
    {
      "inputs": [
        {
          "internalType": "uint256",
          "name": "",
          "type": "uint256"
        }
      ],
      "name": "lockPeriods",
      "outputs": [
        {
          "internalType": "uint256",
          "name": "",
          "type": "uint256"
        }
      ],
      "stateMutability": "view",
      "type": "function"
    },
    {
      "inputs": [],
      "name": "pause",
      "outputs": [],
      "stateMutability": "nonpayable",
      "type": "function"
    },
    {
      "inputs": [],
      "name": "paused",
      "outputs": [
        {
          "internalType": "bool",
          "name": "",
          "type": "bool"
        }
      ],
      "stateMutability": "view",
      "type": "function"
    },
    {
      "inputs": [
        {
          "internalType": "uint256",
          "name": "_amount",
          "type": "uint256"
        }
      ],
      "name": "stakePotato",
      "outputs": [],
      "stateMutability": "nonpayable",
      "type": "function"
    },
    {
      "inputs": [
        {
          "internalType": "address",
          "name": "",
          "type": "address"
        },
        {
          "internalType": "uint256",
          "name": "",
          "type": "uint256"
        }
      ],
      "name": "stakerIdsByAddress",
      "outputs": [
        {
          "internalType": "uint256",
          "name": "",
          "type": "uint256"
        }
      ],
      "stateMutability": "view",
      "type": "function"
    },
    {
      "inputs": [
        {
          "internalType": "uint256",
          "name": "",
          "type": "uint256"
        }
      ],
      "name": "stakers",
      "outputs": [
        {
          "internalType": "uint256",
          "name": "stakerId",
          "type": "uint256"
        },
        {
          "internalType": "address",
          "name": "stakerAddress",
          "type": "address"
        },
        {
          "internalType": "uint256",
          "name": "dateCreated",
          "type": "uint256"
        },
        {
          "internalType": "uint256",
          "name": "amountStaked",
          "type": "uint256"
        },
        {
          "internalType": "bool",
          "name": "open",
          "type": "bool"
        }
      ],
      "stateMutability": "view",
      "type": "function"
    },
    {
      "inputs": [],
      "name": "unpause",
      "outputs": [],
      "stateMutability": "nonpayable",
      "type": "function"
    },
    {
      "inputs": [
        {
          "internalType": "uint256",
          "name": "_numOfDays",
          "type": "uint256"
        },
        {
          "internalType": "uint256",
          "name": "_interest",
          "type": "uint256"
        }
      ],
      "name": "updateStakePeriod",
      "outputs": [],
      "stateMutability": "nonpayable",
      "type": "function"
    },
    {
      "inputs": [
        {
          "internalType": "uint256",
          "name": "_id",
          "type": "uint256"
        }
      ],
      "name": "withdrawPotato",
      "outputs": [],
      "stateMutability": "nonpayable",
      "type": "function"
    }
  ],
  "bytecode": "0x608060405260006009553480156200001657600080fd5b50604051620021a7380380620021a783398181016040528101906200003c919062000233565b60008060006101000a81548160ff0219169083151502179055506001808190555033600360006101000a81548173ffffffffffffffffffffffffffffffffffffffff021916908373ffffffffffffffffffffffffffffffffffffffff16021790555080600260006101000a81548173ffffffffffffffffffffffffffffffffffffffff021916908373ffffffffffffffffffffffffffffffffffffffff16021790555061012c600d60006002815260200190815260200160002081905550610258600d600060048152602001908152602001600020819055506103e8600d60006007815260200190815260200160002081905550600e60029080600181540180825580915050600190039060005260206000200160009091909190915055600e60049080600181540180825580915050600190039060005260206000200160009091909190915055600e600790806001815401808255809150506001900390600052602060002001600090919091909150555062000265565b600080fd5b600073ffffffffffffffffffffffffffffffffffffffff82169050919050565b6000620001e782620001ba565b9050919050565b6000620001fb82620001da565b9050919050565b6200020d81620001ee565b81146200021957600080fd5b50565b6000815190506200022d8162000202565b92915050565b6000602082840312156200024c576200024b620001b5565b5b60006200025c848285016200021c565b91505092915050565b611f3280620002756000396000f3fe608060405234801561001057600080fd5b50600436106101005760003560e01c80638456cb5911610097578063b2596a6711610066578063b2596a6714610287578063f851a440146102b7578063f8a2639c146102d5578063fd5e6dd11461030557610100565b80638456cb5914610215578063aa046fbe1461021f578063ab0eedb41461023b578063b05e148d1461025757610100565b80632b92bd2f116100d35780632b92bd2f146101a15780633f4ba83a146101bd5780634c8f2a78146101c75780635c975abb146101f757610100565b80630b9d98e9146101055780630c196a7414610123578063105c2c5c146101535780631bfca54614610183575b600080fd5b61010d610339565b60405161011a91906114b6565b60405180910390f35b61013d60048036038101906101389190611502565b6103eb565b60405161014a91906114b6565b60405180910390f35b61016d60048036038101906101689190611502565b610539565b60405161017a9190611602565b60405180910390f35b61018b6105f5565b60405161019891906116cc565b60405180910390f35b6101bb60048036038101906101b69190611502565b6106dd565b005b6101c5610a13565b005b6101e160048036038101906101dc9190611502565b610aad565b6040516101ee91906114b6565b60405180910390f35b6101ff610ad1565b60405161020c91906116fd565b60405180910390f35b61021d610ae7565b005b61023960048036038101906102349190611502565b610b81565b005b61025560048036038101906102509190611718565b610f53565b005b610271600480360381019061026c9190611784565b611028565b60405161027e91906114b6565b60405180910390f35b6102a1600480360381019061029c9190611502565b611059565b6040516102ae91906114b6565b60405180910390f35b6102bf611071565b6040516102cc91906117d3565b60405180910390f35b6102ef60048036038101906102ea91906117ee565b611097565b6040516102fc91906116cc565b60405180910390f35b61031f600480360381019061031a9190611502565b61112e565b60405161033095949392919061181b565b60405180910390f35b6000600260009054906101000a900473ffffffffffffffffffffffffffffffffffffffff1673ffffffffffffffffffffffffffffffffffffffff166370a08231306040518263ffffffff1660e01b815260040161039691906117d3565b60206040518083038186803b1580156103ae57600080fd5b505afa1580156103c2573d6000803e3d6000fd5b505050506040513d601f19601f820116820180604052508101906103e69190611883565b905090565b60008060009050600062015180610e10600b6000878152602001908152602001600020600201544261041d91906118df565b6104279190611942565b6104319190611942565b905060005b6001600e8054905061044891906118df565b81101561052e576001600e8054905061046191906118df565b8114801561048c5750600e818154811061047e5761047d611973565b5b906000526020600020015482115b156104a857600d60008281526020019081526020016000205492505b600e81815481106104bc576104bb611973565b5b906000526020600020015482101580156104ff5750600e6001826104e091906119a2565b815481106104f1576104f0611973565b5b906000526020600020015482105b1561051b57600d60008281526020019081526020016000205492505b8080610526906119f8565b915050610436565b508192505050919050565b610541611456565b600b60008381526020019081526020016000206040518060a0016040529081600082015481526020016001820160009054906101000a900473ffffffffffffffffffffffffffffffffffffffff1673ffffffffffffffffffffffffffffffffffffffff1673ffffffffffffffffffffffffffffffffffffffff16815260200160028201548152602001600382015481526020016004820160009054906101000a900460ff1615151515815250509050919050565b60603373ffffffffffffffffffffffffffffffffffffffff16600360009054906101000a900473ffffffffffffffffffffffffffffffffffffffff1673ffffffffffffffffffffffffffffffffffffffff1614610687576040517f08c379a000000000000000000000000000000000000000000000000000000000815260040161067e90611a9e565b60405180910390fd5b600e8054806020026020016040519081016040528092919081815260200182805480156106d357602002820191906000526020600020905b8154815260200190600101908083116106bf575b5050505050905090565b6106e5611191565b600073ffffffffffffffffffffffffffffffffffffffff163373ffffffffffffffffffffffffffffffffffffffff161415610755576040517f08c379a000000000000000000000000000000000000000000000000000000000815260040161074c90611b0a565b60405180910390fd5b6000811015610799576040517f08c379a000000000000000000000000000000000000000000000000000000000815260040161079090611b76565b60405180910390fd5b600260009054906101000a900473ffffffffffffffffffffffffffffffffffffffff1673ffffffffffffffffffffffffffffffffffffffff166323b872dd3330846040518463ffffffff1660e01b81526004016107f893929190611b96565b602060405180830381600087803b15801561081257600080fd5b505af1158015610826573d6000803e3d6000fd5b505050506040513d601f19601f8201168201806040525081019061084a9190611bf9565b506040518060a0016040528060095481526020013373ffffffffffffffffffffffffffffffffffffffff16815260200142815260200182815260200160011515815250600b600060095481526020019081526020016000206000820151816000015560208201518160010160006101000a81548173ffffffffffffffffffffffffffffffffffffffff021916908373ffffffffffffffffffffffffffffffffffffffff160217905550604082015181600201556060820151816003015560808201518160040160006101000a81548160ff021916908315150217905550905050610933336111db565b600c60003373ffffffffffffffffffffffffffffffffffffffff1673ffffffffffffffffffffffffffffffffffffffff1681526020019081526020016000206009549080600181540180825580915050600190039060005260206000200160009091909190915055600960008154809291906109ae906119f8565b91905055507f9e71bc8eea02a63969f509818f2dafb9254532904319f9dbda79b67bd34a5f3d33600b600060016009546109e891906118df565b815260200190815260200160002060030154604051610a08929190611c26565b60405180910390a150565b3373ffffffffffffffffffffffffffffffffffffffff16600360009054906101000a900473ffffffffffffffffffffffffffffffffffffffff1673ffffffffffffffffffffffffffffffffffffffff1614610aa3576040517f08c379a0000000000000000000000000000000000000000000000000000000008152600401610a9a90611a9e565b60405180910390fd5b610aab6111de565b565b600e8181548110610abd57600080fd5b906000526020600020016000915090505481565b60008060009054906101000a900460ff16905090565b3373ffffffffffffffffffffffffffffffffffffffff16600360009054906101000a900473ffffffffffffffffffffffffffffffffffffffff1673ffffffffffffffffffffffffffffffffffffffff1614610b77576040517f08c379a0000000000000000000000000000000000000000000000000000000008152600401610b6e90611a9e565b60405180910390fd5b610b7f611240565b565b60026001541415610bc7576040517f08c379a0000000000000000000000000000000000000000000000000000000008152600401610bbe90611c9b565b60405180910390fd5b60026001819055503373ffffffffffffffffffffffffffffffffffffffff16600b600083815260200190815260200160002060010160009054906101000a900473ffffffffffffffffffffffffffffffffffffffff1673ffffffffffffffffffffffffffffffffffffffff1614610c73576040517f08c379a0000000000000000000000000000000000000000000000000000000008152600401610c6a90611d07565b60405180910390fd5b60011515600b600083815260200190815260200160002060040160009054906101000a900460ff16151514610cdd576040517f08c379a0000000000000000000000000000000000000000000000000000000008152600401610cd490611d73565b60405180910390fd5b6000606490506000610d0583600b6000868152602001908152602001600020600301546112a2565b90506000600b600085815260200190815260200160002060040160006101000a81548160ff02191690831515021790555081600b600085815260200190815260200160002060030160008282540392505081905550600260009054906101000a900473ffffffffffffffffffffffffffffffffffffffff1673ffffffffffffffffffffffffffffffffffffffff1663a9059cbb3383600b600088815260200190815260200160002060030154016040518363ffffffff1660e01b8152600401610dcf929190611c26565b602060405180830381600087803b158015610de957600080fd5b505af1158015610dfd573d6000803e3d6000fd5b505050506040513d601f19601f82011682018060405250810190610e219190611bf9565b50600260009054906101000a900473ffffffffffffffffffffffffffffffffffffffff1673ffffffffffffffffffffffffffffffffffffffff1663a9059cbb600360009054906101000a900473ffffffffffffffffffffffffffffffffffffffff16846040518363ffffffff1660e01b8152600401610ea1929190611c26565b602060405180830381600087803b158015610ebb57600080fd5b505af1158015610ecf573d6000803e3d6000fd5b505050506040513d601f19601f82011682018060405250810190610ef39190611bf9565b507ff279e6a1f5e320cca91135676d9cb6e44ca8a08c0b88342bcdb1144f6511b5683382600b6000878152602001908152602001600020600301540183604051610f3f93929190611d93565b60405180910390a150506001808190555050565b3373ffffffffffffffffffffffffffffffffffffffff16600360009054906101000a900473ffffffffffffffffffffffffffffffffffffffff1673ffffffffffffffffffffffffffffffffffffffff1614610fe3576040517f08c379a0000000000000000000000000000000000000000000000000000000008152600401610fda90611a9e565b60405180910390fd5b80600d600084815260200190815260200160002081905550600e8290806001815401808255809150506001900390600052602060002001600090919091909150555050565b600c602052816000526040600020818154811061104457600080fd5b90600052602060002001600091509150505481565b600d6020528060005260406000206000915090505481565b600360009054906101000a900473ffffffffffffffffffffffffffffffffffffffff1681565b6060600c60008373ffffffffffffffffffffffffffffffffffffffff1673ffffffffffffffffffffffffffffffffffffffff16815260200190815260200160002080548060200260200160405190810160405280929190818152602001828054801561112257602002820191906000526020600020905b81548152602001906001019080831161110e575b50505050509050919050565b600b6020528060005260406000206000915090508060000154908060010160009054906101000a900473ffffffffffffffffffffffffffffffffffffffff16908060020154908060030154908060040160009054906101000a900460ff16905085565b611199610ad1565b156111d9576040517f08c379a00000000000000000000000000000000000000000000000000000000081526004016111d090611e16565b60405180910390fd5b565b50565b6111e6611405565b60008060006101000a81548160ff0219169083151502179055507f5db9ee0a495bf2e6ff9c91a7834c1ba4fdd244a5e8aa4e537bd38aeae4b073aa61122961144e565b60405161123691906117d3565b60405180910390a1565b611248611191565b60016000806101000a81548160ff0219169083151502179055507f62e78cea01bee320cd4e420270b5ea74000d11b0c9f74754ebdbfc544b05a25861128b61144e565b60405161129891906117d3565b60405180910390a1565b60008062015180610e10600b600087815260200190815260200160002060020154426112ce91906118df565b6112d89190611942565b6112e29190611942565b90506000805b6001600e805490506112fa91906118df565b81116113e1576001600e8054905061131291906118df565b60018261131f91906119a2565b111561133d57600d6000600781526020019081526020016000205491505b600e818154811061135157611350611973565b5b906000526020600020015483101580156113945750600e60018261137591906119a2565b8154811061138657611385611973565b5b906000526020600020015483105b156113ce57600d6000600e83815481106113b1576113b0611973565b5b906000526020600020015481526020019081526020016000205491505b80806113d9906119f8565b9150506112e8565b5061271084826113f19190611e36565b6113fb9190611942565b9250505092915050565b61140d610ad1565b61144c576040517f08c379a000000000000000000000000000000000000000000000000000000000815260040161144390611edc565b60405180910390fd5b565b600033905090565b6040518060a0016040528060008152602001600073ffffffffffffffffffffffffffffffffffffffff16815260200160008152602001600081526020016000151581525090565b6000819050919050565b6114b08161149d565b82525050565b60006020820190506114cb60008301846114a7565b92915050565b600080fd5b6114df8161149d565b81146114ea57600080fd5b50565b6000813590506114fc816114d6565b92915050565b600060208284031215611518576115176114d1565b5b6000611526848285016114ed565b91505092915050565b6115388161149d565b82525050565b600073ffffffffffffffffffffffffffffffffffffffff82169050919050565b60006115698261153e565b9050919050565b6115798161155e565b82525050565b60008115159050919050565b6115948161157f565b82525050565b60a0820160008201516115b0600085018261152f565b5060208201516115c36020850182611570565b5060408201516115d6604085018261152f565b5060608201516115e9606085018261152f565b5060808201516115fc608085018261158b565b50505050565b600060a082019050611617600083018461159a565b92915050565b600081519050919050565b600082825260208201905092915050565b6000819050602082019050919050565b6000611655838361152f565b60208301905092915050565b6000602082019050919050565b60006116798261161d565b6116838185611628565b935061168e83611639565b8060005b838110156116bf5781516116a68882611649565b97506116b183611661565b925050600181019050611692565b5085935050505092915050565b600060208201905081810360008301526116e6818461166e565b905092915050565b6116f78161157f565b82525050565b600060208201905061171260008301846116ee565b92915050565b6000806040838503121561172f5761172e6114d1565b5b600061173d858286016114ed565b925050602061174e858286016114ed565b9150509250929050565b6117618161155e565b811461176c57600080fd5b50565b60008135905061177e81611758565b92915050565b6000806040838503121561179b5761179a6114d1565b5b60006117a98582860161176f565b92505060206117ba858286016114ed565b9150509250929050565b6117cd8161155e565b82525050565b60006020820190506117e860008301846117c4565b92915050565b600060208284031215611804576118036114d1565b5b60006118128482850161176f565b91505092915050565b600060a08201905061183060008301886114a7565b61183d60208301876117c4565b61184a60408301866114a7565b61185760608301856114a7565b61186460808301846116ee565b9695505050505050565b60008151905061187d816114d6565b92915050565b600060208284031215611899576118986114d1565b5b60006118a78482850161186e565b91505092915050565b7f4e487b7100000000000000000000000000000000000000000000000000000000600052601160045260246000fd5b60006118ea8261149d565b91506118f58361149d565b925082821015611908576119076118b0565b5b828203905092915050565b7f4e487b7100000000000000000000000000000000000000000000000000000000600052601260045260246000fd5b600061194d8261149d565b91506119588361149d565b92508261196857611967611913565b5b828204905092915050565b7f4e487b7100000000000000000000000000000000000000000000000000000000600052603260045260246000fd5b60006119ad8261149d565b91506119b88361149d565b9250827fffffffffffffffffffffffffffffffffffffffffffffffffffffffffffffffff038211156119ed576119ec6118b0565b5b828201905092915050565b6000611a038261149d565b91507fffffffffffffffffffffffffffffffffffffffffffffffffffffffffffffffff821415611a3657611a356118b0565b5b600182019050919050565b600082825260208201905092915050565b7f4f6e6c79206f776e65722063616e206368616e67652069740000000000000000600082015250565b6000611a88601883611a41565b9150611a9382611a52565b602082019050919050565b60006020820190508181036000830152611ab781611a7b565b9050919050565b7f416464726573732063616e6e6f74206265203020616464726573730000000000600082015250565b6000611af4601b83611a41565b9150611aff82611abe565b602082019050919050565b60006020820190508181036000830152611b2381611ae7565b9050919050565b7f56616c7565206d7573742062652067726561746572207468616e203000000000600082015250565b6000611b60601c83611a41565b9150611b6b82611b2a565b602082019050919050565b60006020820190508181036000830152611b8f81611b53565b9050919050565b6000606082019050611bab60008301866117c4565b611bb860208301856117c4565b611bc560408301846114a7565b949350505050565b611bd68161157f565b8114611be157600080fd5b50565b600081519050611bf381611bcd565b92915050565b600060208284031215611c0f57611c0e6114d1565b5b6000611c1d84828501611be4565b91505092915050565b6000604082019050611c3b60008301856117c4565b611c4860208301846114a7565b9392505050565b7f5265656e7472616e637947756172643a207265656e7472616e742063616c6c00600082015250565b6000611c85601f83611a41565b9150611c9082611c4f565b602082019050919050565b60006020820190508181036000830152611cb481611c78565b9050919050565b7f596f7520617265206e6f7420746865207374616b657200000000000000000000600082015250565b6000611cf1601683611a41565b9150611cfc82611cbb565b602082019050919050565b60006020820190508181036000830152611d2081611ce4565b9050919050565b7f506f7461746f20616c72656164792077697468647261776e0000000000000000600082015250565b6000611d5d601883611a41565b9150611d6882611d27565b602082019050919050565b60006020820190508181036000830152611d8c81611d50565b9050919050565b6000606082019050611da860008301866117c4565b611db560208301856114a7565b611dc260408301846114a7565b949350505050565b7f5061757361626c653a2070617573656400000000000000000000000000000000600082015250565b6000611e00601083611a41565b9150611e0b82611dca565b602082019050919050565b60006020820190508181036000830152611e2f81611df3565b9050919050565b6000611e418261149d565b9150611e4c8361149d565b9250817fffffffffffffffffffffffffffffffffffffffffffffffffffffffffffffffff0483118215151615611e8557611e846118b0565b5b828202905092915050565b7f5061757361626c653a206e6f7420706175736564000000000000000000000000600082015250565b6000611ec6601483611a41565b9150611ed182611e90565b602082019050919050565b60006020820190508181036000830152611ef581611eb9565b905091905056fea26469706673582212205e5df4e6d70e9548a413cfd05dbd5cb7a502e3fbf8664a062e2c8721e64cad5364736f6c63430008090033",
  "linkReferences": {},
  "deployedLinkReferences": {}
}