{
  "_format": "hh-sol-artifact-1",
  "contractName": "Staking",
  "sourceName": "contracts/Staking.sol",
  "abi": [
    {
      "inputs": [
        {
          "internalType": "contract Token",
          "name": "_address",
          "type": "address"
        }
      ],
      "stateMutability": "nonpayable",
      "type": "constructor"
    },
    {
      "anonymous": false,
      "inputs": [
        {
          "indexed": false,
          "internalType": "address",
          "name": "account",
          "type": "address"
        }
      ],
      "name": "Paused",
      "type": "event"
    },
    {
      "anonymous": false,
      "inputs": [
        {
          "indexed": false,
          "internalType": "address",
          "name": "account",
          "type": "address"
        }
      ],
      "name": "Unpaused",
      "type": "event"
    },
    {
      "inputs": [],
      "name": "admin",
      "outputs": [
        {
          "internalType": "address",
          "name": "",
          "type": "address"
        }
      ],
      "stateMutability": "view",
      "type": "function"
    },
    {
      "inputs": [
        {
          "internalType": "uint256",
          "name": "_id",
          "type": "uint256"
        }
      ],
      "name": "getInterestRate",
      "outputs": [
        {
          "internalType": "uint256",
          "name": "",
          "type": "uint256"
        }
      ],
      "stateMutability": "view",
      "type": "function"
    },
    {
      "inputs": [],
      "name": "getStakeperiods",
      "outputs": [
        {
          "internalType": "uint256[]",
          "name": "",
          "type": "uint256[]"
        }
      ],
      "stateMutability": "view",
      "type": "function"
    },
    {
      "inputs": [
        {
          "internalType": "address",
          "name": "_address",
          "type": "address"
        }
      ],
      "name": "getStakerIdsByAddresses",
      "outputs": [
        {
          "internalType": "uint256[]",
          "name": "",
          "type": "uint256[]"
        }
      ],
      "stateMutability": "view",
      "type": "function"
    },
    {
      "inputs": [
        {
          "internalType": "uint256",
          "name": "_stakerId",
          "type": "uint256"
        }
      ],
      "name": "getStakersById",
      "outputs": [
        {
          "components": [
            {
              "internalType": "uint256",
              "name": "stakerId",
              "type": "uint256"
            },
            {
              "internalType": "address",
              "name": "stakerAddress",
              "type": "address"
            },
            {
              "internalType": "uint256",
              "name": "dateCreated",
              "type": "uint256"
            },
            {
              "internalType": "uint256",
              "name": "amountStaked",
              "type": "uint256"
            },
            {
              "internalType": "bool",
              "name": "open",
              "type": "bool"
            }
          ],
          "internalType": "struct Staking.Stakers",
          "name": "",
          "type": "tuple"
        }
      ],
      "stateMutability": "view",
      "type": "function"
    },
    {
      "inputs": [],
      "name": "getTotalVolume",
      "outputs": [
        {
          "internalType": "uint256",
          "name": "",
          "type": "uint256"
        }
      ],
      "stateMutability": "view",
      "type": "function"
    },
    {
      "inputs": [
        {
          "internalType": "uint256",
          "name": "",
          "type": "uint256"
        }
      ],
      "name": "levels",
      "outputs": [
        {
          "internalType": "uint256",
          "name": "",
          "type": "uint256"
        }
      ],
      "stateMutability": "view",
      "type": "function"
    },
    {
      "inputs": [
        {
          "internalType": "uint256",
          "name": "",
          "type": "uint256"
        }
      ],
      "name": "lockPeriods",
      "outputs": [
        {
          "internalType": "uint256",
          "name": "",
          "type": "uint256"
        }
      ],
      "stateMutability": "view",
      "type": "function"
    },
    {
      "inputs": [],
      "name": "pause",
      "outputs": [],
      "stateMutability": "nonpayable",
      "type": "function"
    },
    {
      "inputs": [],
      "name": "paused",
      "outputs": [
        {
          "internalType": "bool",
          "name": "",
          "type": "bool"
        }
      ],
      "stateMutability": "view",
      "type": "function"
    },
    {
      "inputs": [
        {
          "internalType": "address",
          "name": "",
          "type": "address"
        }
      ],
      "name": "refer_info",
      "outputs": [
        {
          "internalType": "uint256",
          "name": "level_1",
          "type": "uint256"
        },
        {
          "internalType": "uint256",
          "name": "level_2",
          "type": "uint256"
        },
        {
          "internalType": "uint256",
          "name": "level_3",
          "type": "uint256"
        },
        {
          "internalType": "uint256",
          "name": "level_4",
          "type": "uint256"
        }
      ],
      "stateMutability": "view",
      "type": "function"
    },
    {
      "inputs": [
        {
          "internalType": "address",
          "name": "ref_add",
          "type": "address"
        }
      ],
      "name": "referral",
      "outputs": [],
      "stateMutability": "nonpayable",
      "type": "function"
    },
    {
      "inputs": [
        {
          "internalType": "uint256",
          "name": "_amount",
          "type": "uint256"
        }
      ],
      "name": "stakePotato",
      "outputs": [],
      "stateMutability": "nonpayable",
      "type": "function"
    },
    {
      "inputs": [
        {
          "internalType": "address",
          "name": "",
          "type": "address"
        },
        {
          "internalType": "uint256",
          "name": "",
          "type": "uint256"
        }
      ],
      "name": "stakerIdsByAddress",
      "outputs": [
        {
          "internalType": "uint256",
          "name": "",
          "type": "uint256"
        }
      ],
      "stateMutability": "view",
      "type": "function"
    },
    {
      "inputs": [
        {
          "internalType": "uint256",
          "name": "",
          "type": "uint256"
        }
      ],
      "name": "stakers",
      "outputs": [
        {
          "internalType": "uint256",
          "name": "stakerId",
          "type": "uint256"
        },
        {
          "internalType": "address",
          "name": "stakerAddress",
          "type": "address"
        },
        {
          "internalType": "uint256",
          "name": "dateCreated",
          "type": "uint256"
        },
        {
          "internalType": "uint256",
          "name": "amountStaked",
          "type": "uint256"
        },
        {
          "internalType": "bool",
          "name": "open",
          "type": "bool"
        }
      ],
      "stateMutability": "view",
      "type": "function"
    },
    {
      "inputs": [],
      "name": "unpause",
      "outputs": [],
      "stateMutability": "nonpayable",
      "type": "function"
    },
    {
      "inputs": [
        {
          "internalType": "uint256",
          "name": "_numOfDays",
          "type": "uint256"
        },
        {
          "internalType": "uint256",
          "name": "_interest",
          "type": "uint256"
        }
      ],
      "name": "updateStakePeriod",
      "outputs": [],
      "stateMutability": "nonpayable",
      "type": "function"
    },
    {
      "inputs": [
        {
          "internalType": "address",
          "name": "",
          "type": "address"
        }
      ],
      "name": "user_info",
      "outputs": [
        {
          "internalType": "bool",
          "name": "referred",
          "type": "bool"
        },
        {
          "internalType": "address",
          "name": "referred_by",
          "type": "address"
        }
      ],
      "stateMutability": "view",
      "type": "function"
    },
    {
      "inputs": [
        {
          "internalType": "uint256",
          "name": "_id",
          "type": "uint256"
        }
      ],
      "name": "withdrawPotato",
      "outputs": [],
      "stateMutability": "nonpayable",
      "type": "function"
    }
  ],
  "bytecode": "0x608060405260006009553480156200001657600080fd5b50604051620029983803806200299883398181016040528101906200003c9190620001cc565b60008060006101000a81548160ff0219169083151502179055506001808190555033600360006101000a81548173ffffffffffffffffffffffffffffffffffffffff021916908373ffffffffffffffffffffffffffffffffffffffff16021790555080600260006101000a81548173ffffffffffffffffffffffffffffffffffffffff021916908373ffffffffffffffffffffffffffffffffffffffff16021790555061012c600e60006002815260200190815260200160002081905550610258600e600060048152602001908152602001600020819055506103e8600e60006007815260200190815260200160002081905550600f60029080600181540180825580915050600190039060005260206000200160009091909190915055600f60049080600181540180825580915050600190039060005260206000200160009091909190915055600f60079080600181540180825580915050600190039060005260206000200160009091909190915055506200025a565b600081519050620001c68162000240565b92915050565b600060208284031215620001df57600080fd5b6000620001ef84828501620001b5565b91505092915050565b6000620002058262000220565b9050919050565b60006200021982620001f8565b9050919050565b600073ffffffffffffffffffffffffffffffffffffffff82169050919050565b6200024b816200020c565b81146200025757600080fd5b50565b61272e806200026a6000396000f3fe608060405234801561001057600080fd5b50600436106101215760003560e01c80637247959a116100ad578063b2596a6711610071578063b2596a67146102f5578063dbf80fec14610325578063f851a44014610358578063f8a2639c14610376578063fd5e6dd1146103a657610121565b80637247959a146102675780638456cb5914610283578063aa046fbe1461028d578063ab0eedb4146102a9578063b05e148d146102c557610121565b806321058d2a116100f457806321058d2a146101c25780632b92bd2f146101f35780633f4ba83a1461020f5780634c8f2a78146102195780635c975abb1461024957610121565b80630b9d98e9146101265780630c196a7414610144578063105c2c5c146101745780631bfca546146101a4575b600080fd5b61012e6103da565b60405161013b91906123b2565b60405180910390f35b61015e60048036038101906101599190611d30565b61048c565b60405161016b91906123b2565b60405180910390f35b61018e60048036038101906101899190611d30565b610654565b60405161019b9190612397565b60405180910390f35b6101ac610710565b6040516101b991906121f1565b60405180910390f35b6101dc60048036038101906101d79190611ca2565b6107f8565b6040516101ea92919061222e565b60405180910390f35b61020d60048036038101906102089190611d30565b610849565b005b610217610b19565b005b610233600480360381019061022e9190611d30565b610bb3565b60405161024091906123b2565b60405180910390f35b610251610bd7565b60405161025e9190612213565b60405180910390f35b610281600480360381019061027c9190611ca2565b610bed565b005b61028b611295565b005b6102a760048036038101906102a29190611d30565b61132f565b005b6102c360048036038101906102be9190611d82565b6116a1565b005b6102df60048036038101906102da9190611ccb565b611776565b6040516102ec91906123b2565b60405180910390f35b61030f600480360381019061030a9190611d30565b6117a7565b60405161031c91906123b2565b60405180910390f35b61033f600480360381019061033a9190611ca2565b6117bf565b60405161034f9493929190612420565b60405180910390f35b6103606117ef565b60405161036d9190612176565b60405180910390f35b610390600480360381019061038b9190611ca2565b611815565b60405161039d91906121f1565b60405180910390f35b6103c060048036038101906103bb9190611d30565b6118ac565b6040516103d19594939291906123cd565b60405180910390f35b6000600260009054906101000a900473ffffffffffffffffffffffffffffffffffffffff1673ffffffffffffffffffffffffffffffffffffffff166370a08231306040518263ffffffff1660e01b81526004016104379190612176565b60206040518083038186803b15801561044f57600080fd5b505afa158015610463573d6000803e3d6000fd5b505050506040513d601f19601f820116820180604052508101906104879190611d59565b905090565b6000806000905060006018603c80600c600088815260200190815260200160002060020154426104bc9190612590565b6104c69190612505565b6104d09190612505565b6104da9190612505565b905060005b6001600f805490506104f19190612590565b811015610649576001600f8054905061050a9190612590565b8114801561055b5750600f818154811061054d577f4e487b7100000000000000000000000000000000000000000000000000000000600052603260045260246000fd5b906000526020600020015482115b1561057757600e60008281526020019081526020016000205492505b600f81815481106105b1577f4e487b7100000000000000000000000000000000000000000000000000000000600052603260045260246000fd5b9060005260206000200154821015801561061a5750600f6001826105d591906124af565b8154811061060c577f4e487b7100000000000000000000000000000000000000000000000000000000600052603260045260246000fd5b906000526020600020015482105b1561063657600e60008281526020019081526020016000205492505b80806106419061260c565b9150506104df565b508192505050919050565b61065c611c07565b600c60008381526020019081526020016000206040518060a0016040529081600082015481526020016001820160009054906101000a900473ffffffffffffffffffffffffffffffffffffffff1673ffffffffffffffffffffffffffffffffffffffff1673ffffffffffffffffffffffffffffffffffffffff16815260200160028201548152602001600382015481526020016004820160009054906101000a900460ff1615151515815250509050919050565b60603373ffffffffffffffffffffffffffffffffffffffff16600360009054906101000a900473ffffffffffffffffffffffffffffffffffffffff1673ffffffffffffffffffffffffffffffffffffffff16146107a2576040517f08c379a0000000000000000000000000000000000000000000000000000000008152600401610799906122b7565b60405180910390fd5b600f8054806020026020016040519081016040528092919081815260200182805480156107ee57602002820191906000526020600020905b8154815260200190600101908083116107da575b5050505050905090565b600b6020528060005260406000206000915090508060000160009054906101000a900460ff16908060000160019054906101000a900473ffffffffffffffffffffffffffffffffffffffff16905082565b61085161190f565b600073ffffffffffffffffffffffffffffffffffffffff163373ffffffffffffffffffffffffffffffffffffffff1614156108c1576040517f08c379a00000000000000000000000000000000000000000000000000000000081526004016108b890612277565b60405180910390fd5b6000811015610905576040517f08c379a00000000000000000000000000000000000000000000000000000000081526004016108fc906122d7565b60405180910390fd5b600260009054906101000a900473ffffffffffffffffffffffffffffffffffffffff1673ffffffffffffffffffffffffffffffffffffffff166323b872dd3330846040518463ffffffff1660e01b815260040161096493929190612191565b602060405180830381600087803b15801561097e57600080fd5b505af1158015610992573d6000803e3d6000fd5b505050506040513d601f19601f820116820180604052508101906109b69190611d07565b506040518060a0016040528060095481526020013373ffffffffffffffffffffffffffffffffffffffff16815260200142815260200182815260200160011515815250600c600060095481526020019081526020016000206000820151816000015560208201518160010160006101000a81548173ffffffffffffffffffffffffffffffffffffffff021916908373ffffffffffffffffffffffffffffffffffffffff160217905550604082015181600201556060820151816003015560808201518160040160006101000a81548160ff021916908315150217905550905050600d60003373ffffffffffffffffffffffffffffffffffffffff1673ffffffffffffffffffffffffffffffffffffffff168152602001908152602001600020600954908060018154018082558091505060019003906000526020600020016000909190919091505560096000815480929190610b119061260c565b919050555050565b3373ffffffffffffffffffffffffffffffffffffffff16600360009054906101000a900473ffffffffffffffffffffffffffffffffffffffff1673ffffffffffffffffffffffffffffffffffffffff1614610ba9576040517f08c379a0000000000000000000000000000000000000000000000000000000008152600401610ba0906122b7565b60405180910390fd5b610bb1611959565b565b600f8181548110610bc357600080fd5b906000526020600020016000915090505481565b60008060009054906101000a900460ff16905090565b60001515600b60003373ffffffffffffffffffffffffffffffffffffffff1673ffffffffffffffffffffffffffffffffffffffff16815260200190815260200160002060000160009054906101000a900460ff16151514610c83576040517f08c379a0000000000000000000000000000000000000000000000000000000008152600401610c7a90612377565b60405180910390fd5b3373ffffffffffffffffffffffffffffffffffffffff168173ffffffffffffffffffffffffffffffffffffffff161415610cf2576040517f08c379a0000000000000000000000000000000000000000000000000000000008152600401610ce990612357565b60405180910390fd5b80600b60003373ffffffffffffffffffffffffffffffffffffffff1673ffffffffffffffffffffffffffffffffffffffff16815260200190815260200160002060000160016101000a81548173ffffffffffffffffffffffffffffffffffffffff021916908373ffffffffffffffffffffffffffffffffffffffff1602179055506001600b60003373ffffffffffffffffffffffffffffffffffffffff1673ffffffffffffffffffffffffffffffffffffffff16815260200190815260200160002060000160006101000a81548160ff0219169083151502179055506000600b60003373ffffffffffffffffffffffffffffffffffffffff1673ffffffffffffffffffffffffffffffffffffffff16815260200190815260200160002060000160019054906101000a900473ffffffffffffffffffffffffffffffffffffffff1690506000600b60008373ffffffffffffffffffffffffffffffffffffffff1673ffffffffffffffffffffffffffffffffffffffff16815260200190815260200160002060000160019054906101000a900473ffffffffffffffffffffffffffffffffffffffff1690506000600b60008373ffffffffffffffffffffffffffffffffffffffff1673ffffffffffffffffffffffffffffffffffffffff16815260200190815260200160002060000160019054906101000a900473ffffffffffffffffffffffffffffffffffffffff1690506000600b60008373ffffffffffffffffffffffffffffffffffffffff1673ffffffffffffffffffffffffffffffffffffffff16815260200190815260200160002060000160019054906101000a900473ffffffffffffffffffffffffffffffffffffffff1690503373ffffffffffffffffffffffffffffffffffffffff168473ffffffffffffffffffffffffffffffffffffffff1614158015610fd35750600073ffffffffffffffffffffffffffffffffffffffff168473ffffffffffffffffffffffffffffffffffffffff1614155b15611033576001600a60008673ffffffffffffffffffffffffffffffffffffffff1673ffffffffffffffffffffffffffffffffffffffff168152602001908152602001600020600001600082825461102b91906124af565b925050819055505b3373ffffffffffffffffffffffffffffffffffffffff168373ffffffffffffffffffffffffffffffffffffffff161415801561109c5750600073ffffffffffffffffffffffffffffffffffffffff168373ffffffffffffffffffffffffffffffffffffffff1614155b156110fc576001600a60008573ffffffffffffffffffffffffffffffffffffffff1673ffffffffffffffffffffffffffffffffffffffff16815260200190815260200160002060010160008282546110f491906124af565b925050819055505b3373ffffffffffffffffffffffffffffffffffffffff168273ffffffffffffffffffffffffffffffffffffffff16141580156111655750600073ffffffffffffffffffffffffffffffffffffffff168273ffffffffffffffffffffffffffffffffffffffff1614155b156111c5576001600a60008473ffffffffffffffffffffffffffffffffffffffff1673ffffffffffffffffffffffffffffffffffffffff16815260200190815260200160002060020160008282546111bd91906124af565b925050819055505b3373ffffffffffffffffffffffffffffffffffffffff168173ffffffffffffffffffffffffffffffffffffffff161415801561122e5750600073ffffffffffffffffffffffffffffffffffffffff168173ffffffffffffffffffffffffffffffffffffffff1614155b1561128e576001600a60008373ffffffffffffffffffffffffffffffffffffffff1673ffffffffffffffffffffffffffffffffffffffff168152602001908152602001600020600301600082825461128691906124af565b925050819055505b5050505050565b3373ffffffffffffffffffffffffffffffffffffffff16600360009054906101000a900473ffffffffffffffffffffffffffffffffffffffff1673ffffffffffffffffffffffffffffffffffffffff1614611325576040517f08c379a000000000000000000000000000000000000000000000000000000000815260040161131c906122b7565b60405180910390fd5b61132d6119bb565b565b60026001541415611375576040517f08c379a000000000000000000000000000000000000000000000000000000000815260040161136c90612337565b60405180910390fd5b60026001819055503373ffffffffffffffffffffffffffffffffffffffff16600c600083815260200190815260200160002060010160009054906101000a900473ffffffffffffffffffffffffffffffffffffffff1673ffffffffffffffffffffffffffffffffffffffff1614611421576040517f08c379a000000000000000000000000000000000000000000000000000000000815260040161141890612297565b60405180910390fd5b60011515600c600083815260200190815260200160002060040160009054906101000a900460ff1615151461148b576040517f08c379a000000000000000000000000000000000000000000000000000000000815260040161148290612317565b60405180910390fd5b60006064905060006114b383600c600086815260200190815260200160002060030154611a1d565b90506000600c600085815260200190815260200160002060040160006101000a81548160ff02191690831515021790555081816114f09190612590565b9050600260009054906101000a900473ffffffffffffffffffffffffffffffffffffffff1673ffffffffffffffffffffffffffffffffffffffff1663a9059cbb3383600c60008881526020019081526020016000206003015461155391906124af565b6040518363ffffffff1660e01b81526004016115709291906121c8565b602060405180830381600087803b15801561158a57600080fd5b505af115801561159e573d6000803e3d6000fd5b505050506040513d601f19601f820116820180604052508101906115c29190611d07565b50600260009054906101000a900473ffffffffffffffffffffffffffffffffffffffff1673ffffffffffffffffffffffffffffffffffffffff1663a9059cbb600360009054906101000a900473ffffffffffffffffffffffffffffffffffffffff16846040518363ffffffff1660e01b81526004016116429291906121c8565b602060405180830381600087803b15801561165c57600080fd5b505af1158015611670573d6000803e3d6000fd5b505050506040513d601f19601f820116820180604052508101906116949190611d07565b5050506001808190555050565b3373ffffffffffffffffffffffffffffffffffffffff16600360009054906101000a900473ffffffffffffffffffffffffffffffffffffffff1673ffffffffffffffffffffffffffffffffffffffff1614611731576040517f08c379a0000000000000000000000000000000000000000000000000000000008152600401611728906122b7565b60405180910390fd5b80600e600084815260200190815260200160002081905550600f8290806001815401808255809150506001900390600052602060002001600090919091909150555050565b600d602052816000526040600020818154811061179257600080fd5b90600052602060002001600091509150505481565b600e6020528060005260406000206000915090505481565b600a6020528060005260406000206000915090508060000154908060010154908060020154908060030154905084565b600360009054906101000a900473ffffffffffffffffffffffffffffffffffffffff1681565b6060600d60008373ffffffffffffffffffffffffffffffffffffffff1673ffffffffffffffffffffffffffffffffffffffff1681526020019081526020016000208054806020026020016040519081016040528092919081815260200182805480156118a057602002820191906000526020600020905b81548152602001906001019080831161188c575b50505050509050919050565b600c6020528060005260406000206000915090508060000154908060010160009054906101000a900473ffffffffffffffffffffffffffffffffffffffff16908060020154908060030154908060040160009054906101000a900460ff16905085565b611917610bd7565b15611957576040517f08c379a000000000000000000000000000000000000000000000000000000000815260040161194e906122f7565b60405180910390fd5b565b611961611bb6565b60008060006101000a81548160ff0219169083151502179055507f5db9ee0a495bf2e6ff9c91a7834c1ba4fdd244a5e8aa4e537bd38aeae4b073aa6119a4611bff565b6040516119b19190612176565b60405180910390a1565b6119c361190f565b60016000806101000a81548160ff0219169083151502179055507f62e78cea01bee320cd4e420270b5ea74000d11b0c9f74754ebdbfc544b05a258611a06611bff565b604051611a139190612176565b60405180910390a1565b6000806018603c80600c60008881526020019081526020016000206002015442611a479190612590565b611a519190612505565b611a5b9190612505565b611a659190612505565b90506000805b6001600f80549050611a7d9190612590565b8111611b92576001600f80549050611a959190612590565b600182611aa291906124af565b1115611ac057600e6000600781526020019081526020016000205491505b600f8181548110611afa577f4e487b7100000000000000000000000000000000000000000000000000000000600052603260045260246000fd5b90600052602060002001548310158015611b635750600f600182611b1e91906124af565b81548110611b55577f4e487b7100000000000000000000000000000000000000000000000000000000600052603260045260246000fd5b906000526020600020015483105b15611b7f57600e60008281526020019081526020016000205491505b8080611b8a9061260c565b915050611a6b565b506127108482611ba29190612536565b611bac9190612505565b9250505092915050565b611bbe610bd7565b611bfd576040517f08c379a0000000000000000000000000000000000000000000000000000000008152600401611bf490612257565b60405180910390fd5b565b600033905090565b6040518060a0016040528060008152602001600073ffffffffffffffffffffffffffffffffffffffff16815260200160008152602001600081526020016000151581525090565b600081359050611c5d816126b3565b92915050565b600081519050611c72816126ca565b92915050565b600081359050611c87816126e1565b92915050565b600081519050611c9c816126e1565b92915050565b600060208284031215611cb457600080fd5b6000611cc284828501611c4e565b91505092915050565b60008060408385031215611cde57600080fd5b6000611cec85828601611c4e565b9250506020611cfd85828601611c78565b9150509250929050565b600060208284031215611d1957600080fd5b6000611d2784828501611c63565b91505092915050565b600060208284031215611d4257600080fd5b6000611d5084828501611c78565b91505092915050565b600060208284031215611d6b57600080fd5b6000611d7984828501611c8d565b91505092915050565b60008060408385031215611d9557600080fd5b6000611da385828601611c78565b9250506020611db485828601611c78565b9150509250929050565b6000611dca8383612158565b60208301905092915050565b611ddf816125c4565b82525050565b611dee816125c4565b82525050565b6000611dff82612475565b611e09818561248d565b9350611e1483612465565b8060005b83811015611e45578151611e2c8882611dbe565b9750611e3783612480565b925050600181019050611e18565b5085935050505092915050565b611e5b816125d6565b82525050565b611e6a816125d6565b82525050565b6000611e7d60148361249e565b91507f5061757361626c653a206e6f74207061757365640000000000000000000000006000830152602082019050919050565b6000611ebd601b8361249e565b91507f416464726573732063616e6e6f742062652030206164647265737300000000006000830152602082019050919050565b6000611efd60168361249e565b91507f596f7520617265206e6f7420746865207374616b6572000000000000000000006000830152602082019050919050565b6000611f3d60188361249e565b91507f4f6e6c79206f776e65722063616e206368616e676520697400000000000000006000830152602082019050919050565b6000611f7d601c8361249e565b91507f56616c7565206d7573742062652067726561746572207468616e2030000000006000830152602082019050919050565b6000611fbd60108361249e565b91507f5061757361626c653a20706175736564000000000000000000000000000000006000830152602082019050919050565b6000611ffd60188361249e565b91507f506f7461746f20616c72656164792077697468647261776e00000000000000006000830152602082019050919050565b600061203d601f8361249e565b91507f5265656e7472616e637947756172643a207265656e7472616e742063616c6c006000830152602082019050919050565b600061207d601b8361249e565b91507f20596f752063616e6e6f7420726566657220796f757273656c662000000000006000830152602082019050919050565b60006120bd60128361249e565b91507f20416c72656164792072656665727265642000000000000000000000000000006000830152602082019050919050565b60a0820160008201516121066000850182612158565b5060208201516121196020850182611dd6565b50604082015161212c6040850182612158565b50606082015161213f6060850182612158565b5060808201516121526080850182611e52565b50505050565b61216181612602565b82525050565b61217081612602565b82525050565b600060208201905061218b6000830184611de5565b92915050565b60006060820190506121a66000830186611de5565b6121b36020830185611de5565b6121c06040830184612167565b949350505050565b60006040820190506121dd6000830185611de5565b6121ea6020830184612167565b9392505050565b6000602082019050818103600083015261220b8184611df4565b905092915050565b60006020820190506122286000830184611e61565b92915050565b60006040820190506122436000830185611e61565b6122506020830184611de5565b9392505050565b6000602082019050818103600083015261227081611e70565b9050919050565b6000602082019050818103600083015261229081611eb0565b9050919050565b600060208201905081810360008301526122b081611ef0565b9050919050565b600060208201905081810360008301526122d081611f30565b9050919050565b600060208201905081810360008301526122f081611f70565b9050919050565b6000602082019050818103600083015261231081611fb0565b9050919050565b6000602082019050818103600083015261233081611ff0565b9050919050565b6000602082019050818103600083015261235081612030565b9050919050565b6000602082019050818103600083015261237081612070565b9050919050565b60006020820190508181036000830152612390816120b0565b9050919050565b600060a0820190506123ac60008301846120f0565b92915050565b60006020820190506123c76000830184612167565b92915050565b600060a0820190506123e26000830188612167565b6123ef6020830187611de5565b6123fc6040830186612167565b6124096060830185612167565b6124166080830184611e61565b9695505050505050565b60006080820190506124356000830187612167565b6124426020830186612167565b61244f6040830185612167565b61245c6060830184612167565b95945050505050565b6000819050602082019050919050565b600081519050919050565b6000602082019050919050565b600082825260208201905092915050565b600082825260208201905092915050565b60006124ba82612602565b91506124c583612602565b9250827fffffffffffffffffffffffffffffffffffffffffffffffffffffffffffffffff038211156124fa576124f9612655565b5b828201905092915050565b600061251082612602565b915061251b83612602565b92508261252b5761252a612684565b5b828204905092915050565b600061254182612602565b915061254c83612602565b9250817fffffffffffffffffffffffffffffffffffffffffffffffffffffffffffffffff048311821515161561258557612584612655565b5b828202905092915050565b600061259b82612602565b91506125a683612602565b9250828210156125b9576125b8612655565b5b828203905092915050565b60006125cf826125e2565b9050919050565b60008115159050919050565b600073ffffffffffffffffffffffffffffffffffffffff82169050919050565b6000819050919050565b600061261782612602565b91507fffffffffffffffffffffffffffffffffffffffffffffffffffffffffffffffff82141561264a57612649612655565b5b600182019050919050565b7f4e487b7100000000000000000000000000000000000000000000000000000000600052601160045260246000fd5b7f4e487b7100000000000000000000000000000000000000000000000000000000600052601260045260246000fd5b6126bc816125c4565b81146126c757600080fd5b50565b6126d3816125d6565b81146126de57600080fd5b50565b6126ea81612602565b81146126f557600080fd5b5056fea2646970667358221220b986f84e22e9f0bf337faf57c33cd3412671db7adfcd52819f498a06b447366664736f6c63430008000033",
  "linkReferences": {},
  "deployedLinkReferences": {}
}