{
  "_format": "hh-sol-artifact-1",
  "contractName": "Staking",
  "sourceName": "contracts/Staking.sol",
  "abi": [
    {
      "inputs": [
        {
          "internalType": "contract Token",
          "name": "_address",
          "type": "address"
        }
      ],
      "stateMutability": "nonpayable",
      "type": "constructor"
    },
    {
      "anonymous": false,
      "inputs": [
        {
          "indexed": false,
          "internalType": "address",
          "name": "account",
          "type": "address"
        }
      ],
      "name": "Paused",
      "type": "event"
    },
    {
      "anonymous": false,
      "inputs": [
        {
          "indexed": false,
          "internalType": "address",
          "name": "_staker",
          "type": "address"
        },
        {
          "indexed": false,
          "internalType": "uint256",
          "name": "_amount",
          "type": "uint256"
        }
      ],
      "name": "Staked",
      "type": "event"
    },
    {
      "anonymous": false,
      "inputs": [
        {
          "indexed": false,
          "internalType": "address",
          "name": "account",
          "type": "address"
        }
      ],
      "name": "Unpaused",
      "type": "event"
    },
    {
      "anonymous": false,
      "inputs": [
        {
          "indexed": false,
          "internalType": "address",
          "name": "_withdrawer",
          "type": "address"
        },
        {
          "indexed": false,
          "internalType": "uint256",
          "name": "_amount",
          "type": "uint256"
        },
        {
          "indexed": false,
          "internalType": "uint256",
          "name": "_interestEarned",
          "type": "uint256"
        }
      ],
      "name": "Withdraw",
      "type": "event"
    },
    {
      "inputs": [],
      "name": "admin",
      "outputs": [
        {
          "internalType": "address",
          "name": "",
          "type": "address"
        }
      ],
      "stateMutability": "view",
      "type": "function"
    },
    {
      "inputs": [
        {
          "internalType": "uint256",
          "name": "_id",
          "type": "uint256"
        }
      ],
      "name": "getInterestRate",
      "outputs": [
        {
          "internalType": "uint256",
          "name": "",
          "type": "uint256"
        }
      ],
      "stateMutability": "view",
      "type": "function"
    },
    {
      "inputs": [],
      "name": "getStakeperiods",
      "outputs": [
        {
          "internalType": "uint256[]",
          "name": "",
          "type": "uint256[]"
        }
      ],
      "stateMutability": "view",
      "type": "function"
    },
    {
      "inputs": [
        {
          "internalType": "address",
          "name": "_address",
          "type": "address"
        }
      ],
      "name": "getStakerIdsByAddresses",
      "outputs": [
        {
          "internalType": "uint256[]",
          "name": "",
          "type": "uint256[]"
        }
      ],
      "stateMutability": "view",
      "type": "function"
    },
    {
      "inputs": [
        {
          "internalType": "uint256",
          "name": "_stakerId",
          "type": "uint256"
        }
      ],
      "name": "getStakersById",
      "outputs": [
        {
          "components": [
            {
              "internalType": "uint256",
              "name": "stakerId",
              "type": "uint256"
            },
            {
              "internalType": "address",
              "name": "stakerAddress",
              "type": "address"
            },
            {
              "internalType": "uint256",
              "name": "dateCreated",
              "type": "uint256"
            },
            {
              "internalType": "uint256",
              "name": "amountStaked",
              "type": "uint256"
            },
            {
              "internalType": "bool",
              "name": "open",
              "type": "bool"
            }
          ],
          "internalType": "struct Staking.Stakers",
          "name": "",
          "type": "tuple"
        }
      ],
      "stateMutability": "view",
      "type": "function"
    },
    {
      "inputs": [],
      "name": "getTotalVolume",
      "outputs": [
        {
          "internalType": "uint256",
          "name": "",
          "type": "uint256"
        }
      ],
      "stateMutability": "view",
      "type": "function"
    },
    {
      "inputs": [
        {
          "internalType": "uint256",
          "name": "",
          "type": "uint256"
        }
      ],
      "name": "levels",
      "outputs": [
        {
          "internalType": "uint256",
          "name": "",
          "type": "uint256"
        }
      ],
      "stateMutability": "view",
      "type": "function"
    },
    {
      "inputs": [
        {
          "internalType": "uint256",
          "name": "",
          "type": "uint256"
        }
      ],
      "name": "lockPeriods",
      "outputs": [
        {
          "internalType": "uint256",
          "name": "",
          "type": "uint256"
        }
      ],
      "stateMutability": "view",
      "type": "function"
    },
    {
      "inputs": [],
      "name": "pause",
      "outputs": [],
      "stateMutability": "nonpayable",
      "type": "function"
    },
    {
      "inputs": [],
      "name": "paused",
      "outputs": [
        {
          "internalType": "bool",
          "name": "",
          "type": "bool"
        }
      ],
      "stateMutability": "view",
      "type": "function"
    },
    {
      "inputs": [
        {
          "internalType": "uint256",
          "name": "_amount",
          "type": "uint256"
        }
      ],
      "name": "stakePotato",
      "outputs": [],
      "stateMutability": "nonpayable",
      "type": "function"
    },
    {
      "inputs": [
        {
          "internalType": "address",
          "name": "",
          "type": "address"
        },
        {
          "internalType": "uint256",
          "name": "",
          "type": "uint256"
        }
      ],
      "name": "stakerIdsByAddress",
      "outputs": [
        {
          "internalType": "uint256",
          "name": "",
          "type": "uint256"
        }
      ],
      "stateMutability": "view",
      "type": "function"
    },
    {
      "inputs": [
        {
          "internalType": "uint256",
          "name": "",
          "type": "uint256"
        }
      ],
      "name": "stakers",
      "outputs": [
        {
          "internalType": "uint256",
          "name": "stakerId",
          "type": "uint256"
        },
        {
          "internalType": "address",
          "name": "stakerAddress",
          "type": "address"
        },
        {
          "internalType": "uint256",
          "name": "dateCreated",
          "type": "uint256"
        },
        {
          "internalType": "uint256",
          "name": "amountStaked",
          "type": "uint256"
        },
        {
          "internalType": "bool",
          "name": "open",
          "type": "bool"
        }
      ],
      "stateMutability": "view",
      "type": "function"
    },
    {
      "inputs": [],
      "name": "totalAmountStaked",
      "outputs": [
        {
          "internalType": "uint256",
          "name": "",
          "type": "uint256"
        }
      ],
      "stateMutability": "view",
      "type": "function"
    },
    {
      "inputs": [],
      "name": "totalStakedAmount",
      "outputs": [
        {
          "internalType": "uint256",
          "name": "",
          "type": "uint256"
        }
      ],
      "stateMutability": "view",
      "type": "function"
    },
    {
      "inputs": [],
      "name": "unpause",
      "outputs": [],
      "stateMutability": "nonpayable",
      "type": "function"
    },
    {
      "inputs": [
        {
          "internalType": "uint256",
          "name": "_numOfDays",
          "type": "uint256"
        },
        {
          "internalType": "uint256",
          "name": "_interest",
          "type": "uint256"
        }
      ],
      "name": "updateStakePeriod",
      "outputs": [],
      "stateMutability": "nonpayable",
      "type": "function"
    },
    {
      "inputs": [
        {
          "internalType": "uint256",
          "name": "_id",
          "type": "uint256"
        }
      ],
      "name": "withdrawPotato",
      "outputs": [],
      "stateMutability": "nonpayable",
      "type": "function"
    }
  ],
  "bytecode": "0x608060405260006004553480156200001657600080fd5b506040516200221e3803806200221e83398181016040528101906200003c91906200023b565b60008060006101000a81548160ff0219169083151502179055506001808190555033600360006101000a81548173ffffffffffffffffffffffffffffffffffffffff021916908373ffffffffffffffffffffffffffffffffffffffff16021790555080600260006101000a81548173ffffffffffffffffffffffffffffffffffffffff021916908373ffffffffffffffffffffffffffffffffffffffff16021790555061012c6009600060028152602001908152602001600020819055506102586009600060048152602001908152602001600020819055506103e8600960006007815260200190815260200160002081905550600a60029080600181540180825580915050600190039060005260206000200160009091909190915055600a60049080600181540180825580915050600190039060005260206000200160009091909190915055600a600790806001815401808255809150506001900390600052602060002001600090919091909150556000600581905550506200026d565b600080fd5b600073ffffffffffffffffffffffffffffffffffffffff82169050919050565b6000620001ef82620001c2565b9050919050565b60006200020382620001e2565b9050919050565b6200021581620001f6565b81146200022157600080fd5b50565b60008151905062000235816200020a565b92915050565b600060208284031215620002545762000253620001bd565b5b6000620002648482850162000224565b91505092915050565b611fa1806200027d6000396000f3fe608060405234801561001057600080fd5b50600436106101165760003560e01c80638456cb59116100a2578063b2596a6711610071578063b2596a67146102bb578063f851a440146102eb578063f8a2639c14610309578063fd5e6dd114610339578063fe961f611461036d57610116565b80638456cb5914610249578063aa046fbe14610253578063ab0eedb41461026f578063b05e148d1461028b57610116565b80632b92bd2f116100e95780632b92bd2f146101b75780633f4ba83a146101d35780634c8f2a78146101dd578063567e98f91461020d5780635c975abb1461022b57610116565b80630b9d98e91461011b5780630c196a7414610139578063105c2c5c146101695780631bfca54614610199575b600080fd5b61012361038b565b6040516101309190611525565b60405180910390f35b610153600480360381019061014e9190611571565b61043d565b6040516101609190611525565b60405180910390f35b610183600480360381019061017e9190611571565b61058b565b6040516101909190611671565b60405180910390f35b6101a1610647565b6040516101ae919061173b565b60405180910390f35b6101d160048036038101906101cc9190611571565b61072f565b005b6101db610a75565b005b6101f760048036038101906101f29190611571565b610b0f565b6040516102049190611525565b60405180910390f35b610215610b33565b6040516102229190611525565b60405180910390f35b610233610b39565b604051610240919061176c565b60405180910390f35b610251610b4f565b005b61026d60048036038101906102689190611571565b610be9565b005b61028960048036038101906102849190611787565b610fbb565b005b6102a560048036038101906102a091906117f3565b611090565b6040516102b29190611525565b60405180910390f35b6102d560048036038101906102d09190611571565b6110c1565b6040516102e29190611525565b60405180910390f35b6102f36110d9565b6040516103009190611842565b60405180910390f35b610323600480360381019061031e919061185d565b6110ff565b604051610330919061173b565b60405180910390f35b610353600480360381019061034e9190611571565b611196565b60405161036495949392919061188a565b60405180910390f35b6103756111f9565b6040516103829190611525565b60405180910390f35b6000600260009054906101000a900473ffffffffffffffffffffffffffffffffffffffff1673ffffffffffffffffffffffffffffffffffffffff166370a08231306040518263ffffffff1660e01b81526004016103e89190611842565b60206040518083038186803b15801561040057600080fd5b505afa158015610414573d6000803e3d6000fd5b505050506040513d601f19601f8201168201806040525081019061043891906118f2565b905090565b60008060009050600062015180610e1060076000878152602001908152602001600020600201544261046f919061194e565b61047991906119b1565b61048391906119b1565b905060005b6001600a8054905061049a919061194e565b811015610580576001600a805490506104b3919061194e565b811480156104de5750600a81815481106104d0576104cf6119e2565b5b906000526020600020015482115b156104fa57600960008281526020019081526020016000205492505b600a818154811061050e5761050d6119e2565b5b906000526020600020015482101580156105515750600a6001826105329190611a11565b81548110610543576105426119e2565b5b906000526020600020015482105b1561056d57600960008281526020019081526020016000205492505b808061057890611a67565b915050610488565b508192505050919050565b6105936114c5565b600760008381526020019081526020016000206040518060a0016040529081600082015481526020016001820160009054906101000a900473ffffffffffffffffffffffffffffffffffffffff1673ffffffffffffffffffffffffffffffffffffffff1673ffffffffffffffffffffffffffffffffffffffff16815260200160028201548152602001600382015481526020016004820160009054906101000a900460ff1615151515815250509050919050565b60603373ffffffffffffffffffffffffffffffffffffffff16600360009054906101000a900473ffffffffffffffffffffffffffffffffffffffff1673ffffffffffffffffffffffffffffffffffffffff16146106d9576040517f08c379a00000000000000000000000000000000000000000000000000000000081526004016106d090611b0d565b60405180910390fd5b600a80548060200260200160405190810160405280929190818152602001828054801561072557602002820191906000526020600020905b815481526020019060010190808311610711575b5050505050905090565b610737611203565b600073ffffffffffffffffffffffffffffffffffffffff163373ffffffffffffffffffffffffffffffffffffffff1614156107a7576040517f08c379a000000000000000000000000000000000000000000000000000000000815260040161079e90611b79565b60405180910390fd5b60008110156107eb576040517f08c379a00000000000000000000000000000000000000000000000000000000081526004016107e290611be5565b60405180910390fd5b600260009054906101000a900473ffffffffffffffffffffffffffffffffffffffff1673ffffffffffffffffffffffffffffffffffffffff166323b872dd3330846040518463ffffffff1660e01b815260040161084a93929190611c05565b602060405180830381600087803b15801561086457600080fd5b505af1158015610878573d6000803e3d6000fd5b505050506040513d601f19601f8201168201806040525081019061089c9190611c68565b506040518060a0016040528060045481526020013373ffffffffffffffffffffffffffffffffffffffff168152602001428152602001828152602001600115158152506007600060045481526020019081526020016000206000820151816000015560208201518160010160006101000a81548173ffffffffffffffffffffffffffffffffffffffff021916908373ffffffffffffffffffffffffffffffffffffffff160217905550604082015181600201556060820151816003015560808201518160040160006101000a81548160ff021916908315150217905550905050600860003373ffffffffffffffffffffffffffffffffffffffff1673ffffffffffffffffffffffffffffffffffffffff1681526020019081526020016000206004549080600181540180825580915050600190039060005260206000200160009091909190915055600460008154809291906109f790611a67565b91905055508060056000828254610a0e9190611a11565b925050819055507f9e71bc8eea02a63969f509818f2dafb9254532904319f9dbda79b67bd34a5f3d33600760006001600454610a4a919061194e565b815260200190815260200160002060030154604051610a6a929190611c95565b60405180910390a150565b3373ffffffffffffffffffffffffffffffffffffffff16600360009054906101000a900473ffffffffffffffffffffffffffffffffffffffff1673ffffffffffffffffffffffffffffffffffffffff1614610b05576040517f08c379a0000000000000000000000000000000000000000000000000000000008152600401610afc90611b0d565b60405180910390fd5b610b0d61124d565b565b600a8181548110610b1f57600080fd5b906000526020600020016000915090505481565b60055481565b60008060009054906101000a900460ff16905090565b3373ffffffffffffffffffffffffffffffffffffffff16600360009054906101000a900473ffffffffffffffffffffffffffffffffffffffff1673ffffffffffffffffffffffffffffffffffffffff1614610bdf576040517f08c379a0000000000000000000000000000000000000000000000000000000008152600401610bd690611b0d565b60405180910390fd5b610be76112af565b565b60026001541415610c2f576040517f08c379a0000000000000000000000000000000000000000000000000000000008152600401610c2690611d0a565b60405180910390fd5b60026001819055503373ffffffffffffffffffffffffffffffffffffffff166007600083815260200190815260200160002060010160009054906101000a900473ffffffffffffffffffffffffffffffffffffffff1673ffffffffffffffffffffffffffffffffffffffff1614610cdb576040517f08c379a0000000000000000000000000000000000000000000000000000000008152600401610cd290611d76565b60405180910390fd5b600115156007600083815260200190815260200160002060040160009054906101000a900460ff16151514610d45576040517f08c379a0000000000000000000000000000000000000000000000000000000008152600401610d3c90611de2565b60405180910390fd5b6000606490506000610d6d836007600086815260200190815260200160002060030154611311565b905060006007600085815260200190815260200160002060040160006101000a81548160ff021916908315150217905550816007600085815260200190815260200160002060030160008282540392505081905550600260009054906101000a900473ffffffffffffffffffffffffffffffffffffffff1673ffffffffffffffffffffffffffffffffffffffff1663a9059cbb33836007600088815260200190815260200160002060030154016040518363ffffffff1660e01b8152600401610e37929190611c95565b602060405180830381600087803b158015610e5157600080fd5b505af1158015610e65573d6000803e3d6000fd5b505050506040513d601f19601f82011682018060405250810190610e899190611c68565b50600260009054906101000a900473ffffffffffffffffffffffffffffffffffffffff1673ffffffffffffffffffffffffffffffffffffffff1663a9059cbb600360009054906101000a900473ffffffffffffffffffffffffffffffffffffffff16846040518363ffffffff1660e01b8152600401610f09929190611c95565b602060405180830381600087803b158015610f2357600080fd5b505af1158015610f37573d6000803e3d6000fd5b505050506040513d601f19601f82011682018060405250810190610f5b9190611c68565b507ff279e6a1f5e320cca91135676d9cb6e44ca8a08c0b88342bcdb1144f6511b568338260076000878152602001908152602001600020600301540183604051610fa793929190611e02565b60405180910390a150506001808190555050565b3373ffffffffffffffffffffffffffffffffffffffff16600360009054906101000a900473ffffffffffffffffffffffffffffffffffffffff1673ffffffffffffffffffffffffffffffffffffffff161461104b576040517f08c379a000000000000000000000000000000000000000000000000000000000815260040161104290611b0d565b60405180910390fd5b806009600084815260200190815260200160002081905550600a8290806001815401808255809150506001900390600052602060002001600090919091909150555050565b600860205281600052604060002081815481106110ac57600080fd5b90600052602060002001600091509150505481565b60096020528060005260406000206000915090505481565b600360009054906101000a900473ffffffffffffffffffffffffffffffffffffffff1681565b6060600860008373ffffffffffffffffffffffffffffffffffffffff1673ffffffffffffffffffffffffffffffffffffffff16815260200190815260200160002080548060200260200160405190810160405280929190818152602001828054801561118a57602002820191906000526020600020905b815481526020019060010190808311611176575b50505050509050919050565b60076020528060005260406000206000915090508060000154908060010160009054906101000a900473ffffffffffffffffffffffffffffffffffffffff16908060020154908060030154908060040160009054906101000a900460ff16905085565b6000600554905090565b61120b610b39565b1561124b576040517f08c379a000000000000000000000000000000000000000000000000000000000815260040161124290611e85565b60405180910390fd5b565b611255611474565b60008060006101000a81548160ff0219169083151502179055507f5db9ee0a495bf2e6ff9c91a7834c1ba4fdd244a5e8aa4e537bd38aeae4b073aa6112986114bd565b6040516112a59190611842565b60405180910390a1565b6112b7611203565b60016000806101000a81548160ff0219169083151502179055507f62e78cea01bee320cd4e420270b5ea74000d11b0c9f74754ebdbfc544b05a2586112fa6114bd565b6040516113079190611842565b60405180910390a1565b60008062015180610e1060076000878152602001908152602001600020600201544261133d919061194e565b61134791906119b1565b61135191906119b1565b90506000805b6001600a80549050611369919061194e565b8111611450576001600a80549050611381919061194e565b60018261138e9190611a11565b11156113ac5760096000600781526020019081526020016000205491505b600a81815481106113c0576113bf6119e2565b5b906000526020600020015483101580156114035750600a6001826113e49190611a11565b815481106113f5576113f46119e2565b5b906000526020600020015483105b1561143d5760096000600a83815481106114205761141f6119e2565b5b906000526020600020015481526020019081526020016000205491505b808061144890611a67565b915050611357565b5061271084826114609190611ea5565b61146a91906119b1565b9250505092915050565b61147c610b39565b6114bb576040517f08c379a00000000000000000000000000000000000000000000000000000000081526004016114b290611f4b565b60405180910390fd5b565b600033905090565b6040518060a0016040528060008152602001600073ffffffffffffffffffffffffffffffffffffffff16815260200160008152602001600081526020016000151581525090565b6000819050919050565b61151f8161150c565b82525050565b600060208201905061153a6000830184611516565b92915050565b600080fd5b61154e8161150c565b811461155957600080fd5b50565b60008135905061156b81611545565b92915050565b60006020828403121561158757611586611540565b5b60006115958482850161155c565b91505092915050565b6115a78161150c565b82525050565b600073ffffffffffffffffffffffffffffffffffffffff82169050919050565b60006115d8826115ad565b9050919050565b6115e8816115cd565b82525050565b60008115159050919050565b611603816115ee565b82525050565b60a08201600082015161161f600085018261159e565b50602082015161163260208501826115df565b506040820151611645604085018261159e565b506060820151611658606085018261159e565b50608082015161166b60808501826115fa565b50505050565b600060a0820190506116866000830184611609565b92915050565b600081519050919050565b600082825260208201905092915050565b6000819050602082019050919050565b60006116c4838361159e565b60208301905092915050565b6000602082019050919050565b60006116e88261168c565b6116f28185611697565b93506116fd836116a8565b8060005b8381101561172e57815161171588826116b8565b9750611720836116d0565b925050600181019050611701565b5085935050505092915050565b6000602082019050818103600083015261175581846116dd565b905092915050565b611766816115ee565b82525050565b6000602082019050611781600083018461175d565b92915050565b6000806040838503121561179e5761179d611540565b5b60006117ac8582860161155c565b92505060206117bd8582860161155c565b9150509250929050565b6117d0816115cd565b81146117db57600080fd5b50565b6000813590506117ed816117c7565b92915050565b6000806040838503121561180a57611809611540565b5b6000611818858286016117de565b92505060206118298582860161155c565b9150509250929050565b61183c816115cd565b82525050565b60006020820190506118576000830184611833565b92915050565b60006020828403121561187357611872611540565b5b6000611881848285016117de565b91505092915050565b600060a08201905061189f6000830188611516565b6118ac6020830187611833565b6118b96040830186611516565b6118c66060830185611516565b6118d3608083018461175d565b9695505050505050565b6000815190506118ec81611545565b92915050565b60006020828403121561190857611907611540565b5b6000611916848285016118dd565b91505092915050565b7f4e487b7100000000000000000000000000000000000000000000000000000000600052601160045260246000fd5b60006119598261150c565b91506119648361150c565b9250828210156119775761197661191f565b5b828203905092915050565b7f4e487b7100000000000000000000000000000000000000000000000000000000600052601260045260246000fd5b60006119bc8261150c565b91506119c78361150c565b9250826119d7576119d6611982565b5b828204905092915050565b7f4e487b7100000000000000000000000000000000000000000000000000000000600052603260045260246000fd5b6000611a1c8261150c565b9150611a278361150c565b9250827fffffffffffffffffffffffffffffffffffffffffffffffffffffffffffffffff03821115611a5c57611a5b61191f565b5b828201905092915050565b6000611a728261150c565b91507fffffffffffffffffffffffffffffffffffffffffffffffffffffffffffffffff821415611aa557611aa461191f565b5b600182019050919050565b600082825260208201905092915050565b7f4f6e6c79206f776e65722063616e206368616e67652069740000000000000000600082015250565b6000611af7601883611ab0565b9150611b0282611ac1565b602082019050919050565b60006020820190508181036000830152611b2681611aea565b9050919050565b7f416464726573732063616e6e6f74206265203020616464726573730000000000600082015250565b6000611b63601b83611ab0565b9150611b6e82611b2d565b602082019050919050565b60006020820190508181036000830152611b9281611b56565b9050919050565b7f56616c7565206d7573742062652067726561746572207468616e203000000000600082015250565b6000611bcf601c83611ab0565b9150611bda82611b99565b602082019050919050565b60006020820190508181036000830152611bfe81611bc2565b9050919050565b6000606082019050611c1a6000830186611833565b611c276020830185611833565b611c346040830184611516565b949350505050565b611c45816115ee565b8114611c5057600080fd5b50565b600081519050611c6281611c3c565b92915050565b600060208284031215611c7e57611c7d611540565b5b6000611c8c84828501611c53565b91505092915050565b6000604082019050611caa6000830185611833565b611cb76020830184611516565b9392505050565b7f5265656e7472616e637947756172643a207265656e7472616e742063616c6c00600082015250565b6000611cf4601f83611ab0565b9150611cff82611cbe565b602082019050919050565b60006020820190508181036000830152611d2381611ce7565b9050919050565b7f596f7520617265206e6f7420746865207374616b657200000000000000000000600082015250565b6000611d60601683611ab0565b9150611d6b82611d2a565b602082019050919050565b60006020820190508181036000830152611d8f81611d53565b9050919050565b7f506f7461746f20616c72656164792077697468647261776e0000000000000000600082015250565b6000611dcc601883611ab0565b9150611dd782611d96565b602082019050919050565b60006020820190508181036000830152611dfb81611dbf565b9050919050565b6000606082019050611e176000830186611833565b611e246020830185611516565b611e316040830184611516565b949350505050565b7f5061757361626c653a2070617573656400000000000000000000000000000000600082015250565b6000611e6f601083611ab0565b9150611e7a82611e39565b602082019050919050565b60006020820190508181036000830152611e9e81611e62565b9050919050565b6000611eb08261150c565b9150611ebb8361150c565b9250817fffffffffffffffffffffffffffffffffffffffffffffffffffffffffffffffff0483118215151615611ef457611ef361191f565b5b828202905092915050565b7f5061757361626c653a206e6f7420706175736564000000000000000000000000600082015250565b6000611f35601483611ab0565b9150611f4082611eff565b602082019050919050565b60006020820190508181036000830152611f6481611f28565b905091905056fea2646970667358221220d53cfccf08bbb0df302c259b5c42353aef9964d095ff4f2ddfbda8dc596b322564736f6c63430008090033",
  "linkReferences": {},
  "deployedLinkReferences": {}
}