{
  "_format": "hh-sol-artifact-1",
  "contractName": "Staking",
  "sourceName": "contracts/Staking.sol",
  "abi": [
    {
      "inputs": [
        {
          "internalType": "contract Token",
          "name": "_address",
          "type": "address"
        }
      ],
      "stateMutability": "nonpayable",
      "type": "constructor"
    },
    {
      "anonymous": false,
      "inputs": [
        {
          "indexed": false,
          "internalType": "address",
          "name": "account",
          "type": "address"
        }
      ],
      "name": "Paused",
      "type": "event"
    },
    {
      "anonymous": false,
      "inputs": [
        {
          "indexed": false,
          "internalType": "address",
          "name": "_staker",
          "type": "address"
        },
        {
          "indexed": false,
          "internalType": "uint256",
          "name": "_amount",
          "type": "uint256"
        }
      ],
      "name": "Staked",
      "type": "event"
    },
    {
      "anonymous": false,
      "inputs": [
        {
          "indexed": false,
          "internalType": "address",
          "name": "account",
          "type": "address"
        }
      ],
      "name": "Unpaused",
      "type": "event"
    },
    {
      "anonymous": false,
      "inputs": [
        {
          "indexed": false,
          "internalType": "address",
          "name": "_withdrawer",
          "type": "address"
        },
        {
          "indexed": false,
          "internalType": "uint256",
          "name": "_amount",
          "type": "uint256"
        }
      ],
      "name": "Withdraw",
      "type": "event"
    },
    {
      "stateMutability": "payable",
      "type": "fallback"
    },
    {
      "inputs": [],
      "name": "admin",
      "outputs": [
        {
          "internalType": "address",
          "name": "",
          "type": "address"
        }
      ],
      "stateMutability": "view",
      "type": "function"
    },
    {
      "inputs": [
        {
          "internalType": "address",
          "name": "_staker",
          "type": "address"
        }
      ],
      "name": "amountEarned",
      "outputs": [
        {
          "internalType": "uint256",
          "name": "amount",
          "type": "uint256"
        }
      ],
      "stateMutability": "view",
      "type": "function"
    },
    {
      "inputs": [
        {
          "internalType": "uint256",
          "name": "_stakerId",
          "type": "uint256"
        }
      ],
      "name": "getInterestRate",
      "outputs": [
        {
          "internalType": "uint256",
          "name": "",
          "type": "uint256"
        }
      ],
      "stateMutability": "view",
      "type": "function"
    },
    {
      "inputs": [],
      "name": "getStakeperiods",
      "outputs": [
        {
          "internalType": "uint256[]",
          "name": "",
          "type": "uint256[]"
        }
      ],
      "stateMutability": "view",
      "type": "function"
    },
    {
      "inputs": [],
      "name": "getTotalVolume",
      "outputs": [
        {
          "internalType": "uint256",
          "name": "",
          "type": "uint256"
        }
      ],
      "stateMutability": "view",
      "type": "function"
    },
    {
      "inputs": [
        {
          "internalType": "uint256",
          "name": "",
          "type": "uint256"
        }
      ],
      "name": "levels",
      "outputs": [
        {
          "internalType": "uint256",
          "name": "",
          "type": "uint256"
        }
      ],
      "stateMutability": "view",
      "type": "function"
    },
    {
      "inputs": [
        {
          "internalType": "uint256",
          "name": "",
          "type": "uint256"
        }
      ],
      "name": "lockPeriods",
      "outputs": [
        {
          "internalType": "uint256",
          "name": "",
          "type": "uint256"
        }
      ],
      "stateMutability": "view",
      "type": "function"
    },
    {
      "inputs": [],
      "name": "pause",
      "outputs": [],
      "stateMutability": "nonpayable",
      "type": "function"
    },
    {
      "inputs": [],
      "name": "paused",
      "outputs": [
        {
          "internalType": "bool",
          "name": "",
          "type": "bool"
        }
      ],
      "stateMutability": "view",
      "type": "function"
    },
    {
      "inputs": [
        {
          "internalType": "uint256",
          "name": "_amount",
          "type": "uint256"
        }
      ],
      "name": "stakeChakra",
      "outputs": [],
      "stateMutability": "nonpayable",
      "type": "function"
    },
    {
      "inputs": [
        {
          "internalType": "address",
          "name": "",
          "type": "address"
        },
        {
          "internalType": "uint256",
          "name": "",
          "type": "uint256"
        }
      ],
      "name": "stakerIdsByAddress",
      "outputs": [
        {
          "internalType": "uint256",
          "name": "",
          "type": "uint256"
        }
      ],
      "stateMutability": "view",
      "type": "function"
    },
    {
      "inputs": [
        {
          "internalType": "uint256",
          "name": "",
          "type": "uint256"
        }
      ],
      "name": "stakers",
      "outputs": [
        {
          "internalType": "address",
          "name": "staker",
          "type": "address"
        },
        {
          "internalType": "uint256",
          "name": "stakerId",
          "type": "uint256"
        },
        {
          "internalType": "uint256",
          "name": "dateCreated",
          "type": "uint256"
        },
        {
          "internalType": "uint256",
          "name": "amountStaked",
          "type": "uint256"
        },
        {
          "internalType": "bool",
          "name": "claimed",
          "type": "bool"
        }
      ],
      "stateMutability": "view",
      "type": "function"
    },
    {
      "inputs": [],
      "name": "totalStakedAmount",
      "outputs": [
        {
          "internalType": "uint256",
          "name": "",
          "type": "uint256"
        }
      ],
      "stateMutability": "view",
      "type": "function"
    },
    {
      "inputs": [],
      "name": "unpause",
      "outputs": [],
      "stateMutability": "nonpayable",
      "type": "function"
    },
    {
      "inputs": [
        {
          "internalType": "uint256",
          "name": "_numOfDays",
          "type": "uint256"
        },
        {
          "internalType": "uint256",
          "name": "_interest",
          "type": "uint256"
        }
      ],
      "name": "updateStakePeriod",
      "outputs": [],
      "stateMutability": "nonpayable",
      "type": "function"
    },
    {
      "inputs": [],
      "name": "withdrawPotato",
      "outputs": [],
      "stateMutability": "nonpayable",
      "type": "function"
    },
    {
      "stateMutability": "payable",
      "type": "receive"
    }
  ],
  "bytecode": "0x60806040523480156200001157600080fd5b50604051620021253803806200212583398181016040528101906200003791906200023e565b60008060006101000a81548160ff0219169083151502179055506001808190555033600360006101000a81548173ffffffffffffffffffffffffffffffffffffffff021916908373ffffffffffffffffffffffffffffffffffffffff16021790555080600260006101000a81548173ffffffffffffffffffffffffffffffffffffffff021916908373ffffffffffffffffffffffffffffffffffffffff16021790555061012c6008600060028152602001908152602001600020819055506102586008600060048152602001908152602001600020819055506103e8600860006007815260200190815260200160002081905550600960029080600181540180825580915050600190039060005260206000200160009091909190915055600960049080600181540180825580915050600190039060005260206000200160009091909190915055600960079080600181540180825580915050600190039060005260206000200160009091909190915055600060048190555060006005819055505062000270565b600080fd5b600073ffffffffffffffffffffffffffffffffffffffff82169050919050565b6000620001f282620001c5565b9050919050565b60006200020682620001e5565b9050919050565b6200021881620001f9565b81146200022457600080fd5b50565b60008151905062000238816200020d565b92915050565b600060208284031215620002575762000256620001c0565b5b6000620002678482850162000227565b91505092915050565b611ea580620002806000396000f3fe6080604052600436106100f75760003560e01c80637f404d7c1161008a578063b05e148d11610059578063b05e148d1461036c578063b2596a67146103a9578063f851a440146103e6578063fd5e6dd11461041157610137565b80637f404d7c146102ec5780638456cb5914610303578063a94a83511461031a578063ab0eedb41461034357610137565b80633f4ba83a116100c65780633f4ba83a146102425780634c8f2a7814610259578063567e98f9146102965780635c975abb146102c157610137565b806309deaa24146101725780630b9d98e9146101af5780630c196a74146101da5780631bfca5461461021757610137565b36610137576040517f08c379a000000000000000000000000000000000000000000000000000000000815260040161012e9061158b565b60405180910390fd5b6040517f08c379a00000000000000000000000000000000000000000000000000000000081526004016101699061158b565b60405180910390fd5b34801561017e57600080fd5b506101996004803603810190610194919061160e565b610452565b6040516101a69190611654565b60405180910390f35b3480156101bb57600080fd5b506101c461051a565b6040516101d19190611654565b60405180910390f35b3480156101e657600080fd5b5061020160048036038101906101fc919061169b565b6105cc565b60405161020e9190611654565b60405180910390f35b34801561022357600080fd5b5061022c61071a565b6040516102399190611786565b60405180910390f35b34801561024e57600080fd5b50610257610802565b005b34801561026557600080fd5b50610280600480360381019061027b919061169b565b61089c565b60405161028d9190611654565b60405180910390f35b3480156102a257600080fd5b506102ab6108c0565b6040516102b89190611654565b60405180910390f35b3480156102cd57600080fd5b506102d66108ca565b6040516102e391906117c3565b60405180910390f35b3480156102f857600080fd5b506103016108e0565b005b34801561030f57600080fd5b50610318610c51565b005b34801561032657600080fd5b50610341600480360381019061033c919061169b565b610ceb565b005b34801561034f57600080fd5b5061036a600480360381019061036591906117de565b611026565b005b34801561037857600080fd5b50610393600480360381019061038e919061181e565b6110fb565b6040516103a09190611654565b60405180910390f35b3480156103b557600080fd5b506103d060048036038101906103cb919061169b565b61112c565b6040516103dd9190611654565b60405180910390f35b3480156103f257600080fd5b506103fb611144565b604051610408919061186d565b60405180910390f35b34801561041d57600080fd5b506104386004803603810190610433919061169b565b61116a565b604051610449959493929190611888565b60405180910390f35b60008061045e836111cd565b905060005b8151811015610513576104c060066000848481518110610486576104856118db565b5b60200260200101518152602001908152602001600020600301548383815181106104b3576104b26118db565b5b6020026020010151611264565b600660008484815181106104d7576104d66118db565b5b60200260200101518152602001908152602001600020600301546104fb9190611939565b836105069190611939565b9250806001019050610463565b5050919050565b6000600260009054906101000a900473ffffffffffffffffffffffffffffffffffffffff1673ffffffffffffffffffffffffffffffffffffffff166370a08231306040518263ffffffff1660e01b8152600401610577919061186d565b60206040518083038186803b15801561058f57600080fd5b505afa1580156105a3573d6000803e3d6000fd5b505050506040513d601f19601f820116820180604052508101906105c791906119a4565b905090565b60008060009050600062015180610e106006600087815260200190815260200160002060020154426105fe91906119d1565b6106089190611a34565b6106129190611a34565b905060005b600160098054905061062991906119d1565b81101561070f57600160098054905061064291906119d1565b8114801561066d57506009818154811061065f5761065e6118db565b5b906000526020600020015482115b1561068957600860008281526020019081526020016000205492505b6009818154811061069d5761069c6118db565b5b906000526020600020015482101580156106e0575060096001826106c19190611939565b815481106106d2576106d16118db565b5b906000526020600020015482105b156106fc57600860008281526020019081526020016000205492505b808061070790611a65565b915050610617565b508192505050919050565b60603373ffffffffffffffffffffffffffffffffffffffff16600360009054906101000a900473ffffffffffffffffffffffffffffffffffffffff1673ffffffffffffffffffffffffffffffffffffffff16146107ac576040517f08c379a00000000000000000000000000000000000000000000000000000000081526004016107a390611afa565b60405180910390fd5b60098054806020026020016040519081016040528092919081815260200182805480156107f857602002820191906000526020600020905b8154815260200190600101908083116107e4575b5050505050905090565b3373ffffffffffffffffffffffffffffffffffffffff16600360009054906101000a900473ffffffffffffffffffffffffffffffffffffffff1673ffffffffffffffffffffffffffffffffffffffff1614610892576040517f08c379a000000000000000000000000000000000000000000000000000000000815260040161088990611afa565b60405180910390fd5b61089a6113cf565b565b600981815481106108ac57600080fd5b906000526020600020016000915090505481565b6000600454905090565b60008060009054906101000a900460ff16905090565b60026001541415610926576040517f08c379a000000000000000000000000000000000000000000000000000000000815260040161091d90611b66565b60405180910390fd5b60026001819055506000339050600080600090506000610945846111cd565b905060005b8151811015610a8857600015156006600084848151811061096e5761096d6118db565b5b6020026020010151815260200190815260200160002060040160009054906101000a900460ff1615151415610a7d576109f1600660008484815181106109b7576109b66118db565b5b60200260200101518152602001908152602001600020600301548383815181106109e4576109e36118db565b5b6020026020010151611264565b60066000848481518110610a0857610a076118db565b5b60200260200101518152602001908152602001600020600301540184019350606484039350606483019250600160066000848481518110610a4c57610a4b6118db565b5b6020026020010151815260200190815260200160002060040160006101000a81548160ff0219169083151502179055505b80600101905061094a565b50600260009054906101000a900473ffffffffffffffffffffffffffffffffffffffff1673ffffffffffffffffffffffffffffffffffffffff1663a9059cbb33856040518363ffffffff1660e01b8152600401610ae6929190611b86565b602060405180830381600087803b158015610b0057600080fd5b505af1158015610b14573d6000803e3d6000fd5b505050506040513d601f19601f82011682018060405250810190610b389190611bdb565b50600260009054906101000a900473ffffffffffffffffffffffffffffffffffffffff1673ffffffffffffffffffffffffffffffffffffffff1663a9059cbb600360009054906101000a900473ffffffffffffffffffffffffffffffffffffffff16846040518363ffffffff1660e01b8152600401610bb8929190611b86565b602060405180830381600087803b158015610bd257600080fd5b505af1158015610be6573d6000803e3d6000fd5b505050506040513d601f19601f82011682018060405250810190610c0a9190611bdb565b50507f884edad9ce6fa2440d8a54cc123490eb96d2768479d49ff9c7366125a94243648383604051610c3d929190611b86565b60405180910390a150505060018081905550565b3373ffffffffffffffffffffffffffffffffffffffff16600360009054906101000a900473ffffffffffffffffffffffffffffffffffffffff1673ffffffffffffffffffffffffffffffffffffffff1614610ce1576040517f08c379a0000000000000000000000000000000000000000000000000000000008152600401610cd890611afa565b60405180910390fd5b610ce9611431565b565b600073ffffffffffffffffffffffffffffffffffffffff163373ffffffffffffffffffffffffffffffffffffffff161415610d5b576040517f08c379a0000000000000000000000000000000000000000000000000000000008152600401610d5290611c7a565b60405180910390fd5b670de0b6b3a7640000811015610da6576040517f08c379a0000000000000000000000000000000000000000000000000000000008152600401610d9d90611ce6565b60405180910390fd5b600260009054906101000a900473ffffffffffffffffffffffffffffffffffffffff1673ffffffffffffffffffffffffffffffffffffffff166323b872dd3330846040518463ffffffff1660e01b8152600401610e0593929190611d06565b602060405180830381600087803b158015610e1f57600080fd5b505af1158015610e33573d6000803e3d6000fd5b505050506040513d601f19601f82011682018060405250810190610e579190611bdb565b50600160056000828254610e6b9190611939565b925050819055506040518060a001604052803373ffffffffffffffffffffffffffffffffffffffff16815260200160055481526020014281526020018281526020016000151581525060066000600554815260200190815260200160002060008201518160000160006101000a81548173ffffffffffffffffffffffffffffffffffffffff021916908373ffffffffffffffffffffffffffffffffffffffff16021790555060208201518160010155604082015181600201556060820151816003015560808201518160040160006101000a81548160ff021916908315150217905550905050600760003373ffffffffffffffffffffffffffffffffffffffff1673ffffffffffffffffffffffffffffffffffffffff16815260200190815260200160002060055490806001815401808255809150506001900390600052602060002001600090919091909150558060046000828254610fcb9190611939565b925050819055507f9e71bc8eea02a63969f509818f2dafb9254532904319f9dbda79b67bd34a5f3d336006600060055481526020019081526020016000206003015460405161101b929190611b86565b60405180910390a150565b3373ffffffffffffffffffffffffffffffffffffffff16600360009054906101000a900473ffffffffffffffffffffffffffffffffffffffff1673ffffffffffffffffffffffffffffffffffffffff16146110b6576040517f08c379a00000000000000000000000000000000000000000000000000000000081526004016110ad90611afa565b60405180910390fd5b80600860008481526020019081526020016000208190555060098290806001815401808255809150506001900390600052602060002001600090919091909150555050565b6007602052816000526040600020818154811061111757600080fd5b90600052602060002001600091509150505481565b60086020528060005260406000206000915090505481565b600360009054906101000a900473ffffffffffffffffffffffffffffffffffffffff1681565b60066020528060005260406000206000915090508060000160009054906101000a900473ffffffffffffffffffffffffffffffffffffffff16908060010154908060020154908060030154908060040160009054906101000a900460ff16905085565b6060600760008373ffffffffffffffffffffffffffffffffffffffff1673ffffffffffffffffffffffffffffffffffffffff16815260200190815260200160002080548060200260200160405190810160405280929190818152602001828054801561125857602002820191906000526020600020905b815481526020019060010190808311611244575b50505050509050919050565b6000806018603c8060066000878152602001908152602001600020600201544261128e91906119d1565b6112989190611a34565b6112a29190611a34565b6112ac9190611a34565b90506000805b60016009805490506112c491906119d1565b81116113ab57600981815481106112de576112dd6118db565b5b90600052602060002001548310158015611321575060096001826113029190611939565b81548110611313576113126118db565b5b906000526020600020015483105b1561135b57600860006009838154811061133e5761133d6118db565b5b906000526020600020015481526020019081526020016000205491505b600160098054905061136d91906119d1565b60018261137a9190611939565b11156113985760086000600781526020019081526020016000205491505b80806113a390611a65565b9150506112b2565b5061271085826113bb9190611d3d565b6113c59190611a34565b9250505092915050565b6113d7611493565b60008060006101000a81548160ff0219169083151502179055507f5db9ee0a495bf2e6ff9c91a7834c1ba4fdd244a5e8aa4e537bd38aeae4b073aa61141a6114dc565b604051611427919061186d565b60405180910390a1565b6114396114e4565b60016000806101000a81548160ff0219169083151502179055507f62e78cea01bee320cd4e420270b5ea74000d11b0c9f74754ebdbfc544b05a25861147c6114dc565b604051611489919061186d565b60405180910390a1565b61149b6108ca565b6114da576040517f08c379a00000000000000000000000000000000000000000000000000000000081526004016114d190611de3565b60405180910390fd5b565b600033905090565b6114ec6108ca565b1561152c576040517f08c379a000000000000000000000000000000000000000000000000000000000815260040161152390611e4f565b60405180910390fd5b565b600082825260208201905092915050565b7f4e6f206b6e6f776e207472616e73616374696f6e000000000000000000000000600082015250565b600061157560148361152e565b91506115808261153f565b602082019050919050565b600060208201905081810360008301526115a481611568565b9050919050565b600080fd5b600073ffffffffffffffffffffffffffffffffffffffff82169050919050565b60006115db826115b0565b9050919050565b6115eb816115d0565b81146115f657600080fd5b50565b600081359050611608816115e2565b92915050565b600060208284031215611624576116236115ab565b5b6000611632848285016115f9565b91505092915050565b6000819050919050565b61164e8161163b565b82525050565b60006020820190506116696000830184611645565b92915050565b6116788161163b565b811461168357600080fd5b50565b6000813590506116958161166f565b92915050565b6000602082840312156116b1576116b06115ab565b5b60006116bf84828501611686565b91505092915050565b600081519050919050565b600082825260208201905092915050565b6000819050602082019050919050565b6116fd8161163b565b82525050565b600061170f83836116f4565b60208301905092915050565b6000602082019050919050565b6000611733826116c8565b61173d81856116d3565b9350611748836116e4565b8060005b838110156117795781516117608882611703565b975061176b8361171b565b92505060018101905061174c565b5085935050505092915050565b600060208201905081810360008301526117a08184611728565b905092915050565b60008115159050919050565b6117bd816117a8565b82525050565b60006020820190506117d860008301846117b4565b92915050565b600080604083850312156117f5576117f46115ab565b5b600061180385828601611686565b925050602061181485828601611686565b9150509250929050565b60008060408385031215611835576118346115ab565b5b6000611843858286016115f9565b925050602061185485828601611686565b9150509250929050565b611867816115d0565b82525050565b6000602082019050611882600083018461185e565b92915050565b600060a08201905061189d600083018861185e565b6118aa6020830187611645565b6118b76040830186611645565b6118c46060830185611645565b6118d160808301846117b4565b9695505050505050565b7f4e487b7100000000000000000000000000000000000000000000000000000000600052603260045260246000fd5b7f4e487b7100000000000000000000000000000000000000000000000000000000600052601160045260246000fd5b60006119448261163b565b915061194f8361163b565b9250827fffffffffffffffffffffffffffffffffffffffffffffffffffffffffffffffff038211156119845761198361190a565b5b828201905092915050565b60008151905061199e8161166f565b92915050565b6000602082840312156119ba576119b96115ab565b5b60006119c88482850161198f565b91505092915050565b60006119dc8261163b565b91506119e78361163b565b9250828210156119fa576119f961190a565b5b828203905092915050565b7f4e487b7100000000000000000000000000000000000000000000000000000000600052601260045260246000fd5b6000611a3f8261163b565b9150611a4a8361163b565b925082611a5a57611a59611a05565b5b828204905092915050565b6000611a708261163b565b91507fffffffffffffffffffffffffffffffffffffffffffffffffffffffffffffffff821415611aa357611aa261190a565b5b600182019050919050565b7f4f6e6c79206f776e65722063616e206368616e67652069740000000000000000600082015250565b6000611ae460188361152e565b9150611aef82611aae565b602082019050919050565b60006020820190508181036000830152611b1381611ad7565b9050919050565b7f5265656e7472616e637947756172643a207265656e7472616e742063616c6c00600082015250565b6000611b50601f8361152e565b9150611b5b82611b1a565b602082019050919050565b60006020820190508181036000830152611b7f81611b43565b9050919050565b6000604082019050611b9b600083018561185e565b611ba86020830184611645565b9392505050565b611bb8816117a8565b8114611bc357600080fd5b50565b600081519050611bd581611baf565b92915050565b600060208284031215611bf157611bf06115ab565b5b6000611bff84828501611bc6565b91505092915050565b7f416464726573732063616e6e6f7420626520746865207a65726f20616464726560008201527f7373000000000000000000000000000000000000000000000000000000000000602082015250565b6000611c6460228361152e565b9150611c6f82611c08565b604082019050919050565b60006020820190508181036000830152611c9381611c57565b9050919050565b7f56616c7565206d7573742062652067726561746572207468616e203000000000600082015250565b6000611cd0601c8361152e565b9150611cdb82611c9a565b602082019050919050565b60006020820190508181036000830152611cff81611cc3565b9050919050565b6000606082019050611d1b600083018661185e565b611d28602083018561185e565b611d356040830184611645565b949350505050565b6000611d488261163b565b9150611d538361163b565b9250817fffffffffffffffffffffffffffffffffffffffffffffffffffffffffffffffff0483118215151615611d8c57611d8b61190a565b5b828202905092915050565b7f5061757361626c653a206e6f7420706175736564000000000000000000000000600082015250565b6000611dcd60148361152e565b9150611dd882611d97565b602082019050919050565b60006020820190508181036000830152611dfc81611dc0565b9050919050565b7f5061757361626c653a2070617573656400000000000000000000000000000000600082015250565b6000611e3960108361152e565b9150611e4482611e03565b602082019050919050565b60006020820190508181036000830152611e6881611e2c565b905091905056fea26469706673582212206319f6ebf8bfc3e68c79d805be2a26d5af2b8eae84994ddb5db24ee7c5b873bf64736f6c63430008090033",
  "linkReferences": {},
  "deployedLinkReferences": {}
}