{
  "_format": "hh-sol-artifact-1",
  "contractName": "Staking",
  "sourceName": "contracts/Staking.sol",
  "abi": [
    {
      "inputs": [
        {
          "internalType": "contract Token",
          "name": "_address",
          "type": "address"
        }
      ],
      "stateMutability": "nonpayable",
      "type": "constructor"
    },
    {
      "anonymous": false,
      "inputs": [
        {
          "indexed": false,
          "internalType": "address",
          "name": "account",
          "type": "address"
        }
      ],
      "name": "Paused",
      "type": "event"
    },
    {
      "anonymous": false,
      "inputs": [
        {
          "indexed": true,
          "internalType": "address",
          "name": "_staker",
          "type": "address"
        },
        {
          "indexed": true,
          "internalType": "uint256",
          "name": "_amount",
          "type": "uint256"
        }
      ],
      "name": "Staked",
      "type": "event"
    },
    {
      "anonymous": false,
      "inputs": [
        {
          "indexed": false,
          "internalType": "address",
          "name": "account",
          "type": "address"
        }
      ],
      "name": "Unpaused",
      "type": "event"
    },
    {
      "anonymous": false,
      "inputs": [
        {
          "indexed": true,
          "internalType": "address",
          "name": "_withdrawer",
          "type": "address"
        },
        {
          "indexed": true,
          "internalType": "uint256",
          "name": "_amount",
          "type": "uint256"
        }
      ],
      "name": "Withdraw",
      "type": "event"
    },
    {
      "stateMutability": "payable",
      "type": "fallback"
    },
    {
      "inputs": [],
      "name": "admin",
      "outputs": [
        {
          "internalType": "address",
          "name": "",
          "type": "address"
        }
      ],
      "stateMutability": "view",
      "type": "function"
    },
    {
      "inputs": [
        {
          "internalType": "address",
          "name": "_staker",
          "type": "address"
        }
      ],
      "name": "amountEarned",
      "outputs": [
        {
          "internalType": "uint256",
          "name": "amount",
          "type": "uint256"
        }
      ],
      "stateMutability": "view",
      "type": "function"
    },
    {
      "inputs": [],
      "name": "getStakeperiods",
      "outputs": [
        {
          "internalType": "uint256[]",
          "name": "",
          "type": "uint256[]"
        }
      ],
      "stateMutability": "view",
      "type": "function"
    },
    {
      "inputs": [],
      "name": "getTotalVolume",
      "outputs": [
        {
          "internalType": "uint256",
          "name": "",
          "type": "uint256"
        }
      ],
      "stateMutability": "view",
      "type": "function"
    },
    {
      "inputs": [],
      "name": "pause",
      "outputs": [],
      "stateMutability": "nonpayable",
      "type": "function"
    },
    {
      "inputs": [],
      "name": "paused",
      "outputs": [
        {
          "internalType": "bool",
          "name": "",
          "type": "bool"
        }
      ],
      "stateMutability": "view",
      "type": "function"
    },
    {
      "inputs": [
        {
          "internalType": "uint256",
          "name": "_amount",
          "type": "uint256"
        }
      ],
      "name": "stakeChakra",
      "outputs": [],
      "stateMutability": "nonpayable",
      "type": "function"
    },
    {
      "inputs": [],
      "name": "totalStakedAmount",
      "outputs": [
        {
          "internalType": "uint256",
          "name": "",
          "type": "uint256"
        }
      ],
      "stateMutability": "view",
      "type": "function"
    },
    {
      "inputs": [],
      "name": "unpause",
      "outputs": [],
      "stateMutability": "nonpayable",
      "type": "function"
    },
    {
      "inputs": [
        {
          "internalType": "uint256",
          "name": "_numOfDays",
          "type": "uint256"
        },
        {
          "internalType": "uint256",
          "name": "_interest",
          "type": "uint256"
        }
      ],
      "name": "updateStakePeriod",
      "outputs": [],
      "stateMutability": "nonpayable",
      "type": "function"
    },
    {
      "inputs": [],
      "name": "withdrawChakra",
      "outputs": [],
      "stateMutability": "nonpayable",
      "type": "function"
    },
    {
      "stateMutability": "payable",
      "type": "receive"
    }
  ],
  "bytecode": "0x60806040523480156200001157600080fd5b5060405162001de138038062001de1833981810160405281019062000037919062000240565b60008060006101000a81548160ff0219169083151502179055506001808190555033600360006101000a81548173ffffffffffffffffffffffffffffffffffffffff021916908373ffffffffffffffffffffffffffffffffffffffff16021790555080600260006101000a81548173ffffffffffffffffffffffffffffffffffffffff021916908373ffffffffffffffffffffffffffffffffffffffff16021790555061012c6008600060788152602001908152602001600020819055506102586008600060f08152602001908152602001600020819055506103e8600860006101a4815260200190815260200160002081905550600960789080600181540180825580915050600190039060005260206000200160009091909190915055600960f0908060018154018082558091505060019003906000526020600020016000909190919091505560096101a49080600181540180825580915050600190039060005260206000200160009091909190915055600060048190555060006005819055505062000272565b600080fd5b600073ffffffffffffffffffffffffffffffffffffffff82169050919050565b6000620001f482620001c7565b9050919050565b60006200020882620001e7565b9050919050565b6200021a81620001fb565b81146200022657600080fd5b50565b6000815190506200023a816200020f565b92915050565b600060208284031215620002595762000258620001c2565b5b6000620002698482850162000229565b91505092915050565b611b5f80620002826000396000f3fe6080604052600436106100a05760003560e01c80635c975abb116100645780635c975abb146101f05780636655053c1461021b5780638456cb5914610232578063a94a835114610249578063ab0eedb414610272578063f851a4401461029b576100e0565b806309deaa241461011b5780630b9d98e9146101585780631bfca546146101835780633f4ba83a146101ae578063567e98f9146101c5576100e0565b366100e0576040517f08c379a00000000000000000000000000000000000000000000000000000000081526004016100d7906112d8565b60405180910390fd5b6040517f08c379a0000000000000000000000000000000000000000000000000000000008152600401610112906112d8565b60405180910390fd5b34801561012757600080fd5b50610142600480360381019061013d919061135b565b6102c6565b60405161014f91906113a1565b60405180910390f35b34801561016457600080fd5b5061016d61041b565b60405161017a91906113a1565b60405180910390f35b34801561018f57600080fd5b506101986104cd565b6040516101a5919061147a565b60405180910390f35b3480156101ba57600080fd5b506101c36105b5565b005b3480156101d157600080fd5b506101da61064f565b6040516101e791906113a1565b60405180910390f35b3480156101fc57600080fd5b50610205610659565b60405161021291906114b7565b60405180910390f35b34801561022757600080fd5b5061023061066f565b005b34801561023e57600080fd5b50610247610aa0565b005b34801561025557600080fd5b50610270600480360381019061026b91906114fe565b610b3a565b005b34801561027e57600080fd5b506102996004803603810190610294919061152b565b610e76565b005b3480156102a757600080fd5b506102b0610f8e565b6040516102bd919061157a565b60405180910390f35b600080600760008473ffffffffffffffffffffffffffffffffffffffff1673ffffffffffffffffffffffffffffffffffffffff16815260200190815260200160002080548060200260200160405190810160405280929190818152602001828054801561035257602002820191906000526020600020905b81548152602001906001019080831161033e575b5050505050905060005b8151811015610414576103b96006600084848151811061037f5761037e611595565b5b60200260200101518152602001908152602001600020600201548383815181106103ac576103ab611595565b5b6020026020010151610fb4565b600660008484815181106103d0576103cf611595565b5b60200260200101518152602001908152602001600020600201546103f491906115f3565b836103ff91906115f3565b9250808061040c90611649565b91505061035c565b5050919050565b6000600260009054906101000a900473ffffffffffffffffffffffffffffffffffffffff1673ffffffffffffffffffffffffffffffffffffffff166370a08231306040518263ffffffff1660e01b8152600401610478919061157a565b60206040518083038186803b15801561049057600080fd5b505afa1580156104a4573d6000803e3d6000fd5b505050506040513d601f19601f820116820180604052508101906104c891906116a7565b905090565b60603373ffffffffffffffffffffffffffffffffffffffff16600360009054906101000a900473ffffffffffffffffffffffffffffffffffffffff1673ffffffffffffffffffffffffffffffffffffffff161461055f576040517f08c379a000000000000000000000000000000000000000000000000000000000815260040161055690611720565b60405180910390fd5b60098054806020026020016040519081016040528092919081815260200182805480156105ab57602002820191906000526020600020905b815481526020019060010190808311610597575b5050505050905090565b3373ffffffffffffffffffffffffffffffffffffffff16600360009054906101000a900473ffffffffffffffffffffffffffffffffffffffff1673ffffffffffffffffffffffffffffffffffffffff1614610645576040517f08c379a000000000000000000000000000000000000000000000000000000000815260040161063c90611720565b60405180910390fd5b61064d61111c565b565b6000600454905090565b60008060009054906101000a900460ff16905090565b600260015414156106b5576040517f08c379a00000000000000000000000000000000000000000000000000000000081526004016106ac9061178c565b60405180910390fd5b60026001819055506106c561117e565b60003390506000806000600760008573ffffffffffffffffffffffffffffffffffffffff1673ffffffffffffffffffffffffffffffffffffffff16815260200190815260200160002080548060200260200160405190810160405280929190818152602001828054801561075857602002820191906000526020600020905b815481526020019060010190808311610744575b5050505050905060005b81518110156108cc57600015156006600084848151811061078657610785611595565b5b6020026020010151815260200190815260200160002060030160009054906101000a900460ff16151514156108b957610809600660008484815181106107cf576107ce611595565b5b60200260200101518152602001908152602001600020600201548383815181106107fc576107fb611595565b5b6020026020010151610fb4565b600660008484815181106108205761081f611595565b5b602002602001015181526020019081526020016000206002015461084491906115f3565b8461084f91906115f3565b935060648461085e91906117ac565b935060648361086d91906115f3565b925060016006600084848151811061088857610887611595565b5b6020026020010151815260200190815260200160002060030160006101000a81548160ff0219169083151502179055505b80806108c490611649565b915050610762565b50600260009054906101000a900473ffffffffffffffffffffffffffffffffffffffff1673ffffffffffffffffffffffffffffffffffffffff1663a9059cbb33856040518363ffffffff1660e01b815260040161092a9291906117e0565b602060405180830381600087803b15801561094457600080fd5b505af1158015610958573d6000803e3d6000fd5b505050506040513d601f19601f8201168201806040525081019061097c9190611835565b50600260009054906101000a900473ffffffffffffffffffffffffffffffffffffffff1673ffffffffffffffffffffffffffffffffffffffff1663a9059cbb600360009054906101000a900473ffffffffffffffffffffffffffffffffffffffff16846040518363ffffffff1660e01b81526004016109fc9291906117e0565b602060405180830381600087803b158015610a1657600080fd5b505af1158015610a2a573d6000803e3d6000fd5b505050506040513d601f19601f82011682018060405250810190610a4e9190611835565b50828473ffffffffffffffffffffffffffffffffffffffff167f884edad9ce6fa2440d8a54cc123490eb96d2768479d49ff9c7366125a942436460405160405180910390a35050505060018081905550565b3373ffffffffffffffffffffffffffffffffffffffff16600360009054906101000a900473ffffffffffffffffffffffffffffffffffffffff1673ffffffffffffffffffffffffffffffffffffffff1614610b30576040517f08c379a0000000000000000000000000000000000000000000000000000000008152600401610b2790611720565b60405180910390fd5b610b386111c8565b565b610b4261117e565b600073ffffffffffffffffffffffffffffffffffffffff163373ffffffffffffffffffffffffffffffffffffffff161415610bb2576040517f08c379a0000000000000000000000000000000000000000000000000000000008152600401610ba9906118d4565b60405180910390fd5b670de0b6b3a7640000811015610bfd576040517f08c379a0000000000000000000000000000000000000000000000000000000008152600401610bf490611940565b60405180910390fd5b600260009054906101000a900473ffffffffffffffffffffffffffffffffffffffff1673ffffffffffffffffffffffffffffffffffffffff166323b872dd3330846040518463ffffffff1660e01b8152600401610c5c93929190611960565b602060405180830381600087803b158015610c7657600080fd5b505af1158015610c8a573d6000803e3d6000fd5b505050506040513d601f19601f82011682018060405250810190610cae9190611835565b50600160056000828254610cc291906115f3565b9250508190555060405180608001604052803373ffffffffffffffffffffffffffffffffffffffff1681526020014281526020018281526020016000151581525060066000600554815260200190815260200160002060008201518160000160006101000a81548173ffffffffffffffffffffffffffffffffffffffff021916908373ffffffffffffffffffffffffffffffffffffffff160217905550602082015181600101556040820151816002015560608201518160030160006101000a81548160ff021916908315150217905550905050600760003373ffffffffffffffffffffffffffffffffffffffff1673ffffffffffffffffffffffffffffffffffffffff16815260200190815260200160002060055490806001815401808255809150506001900390600052602060002001600090919091909150558060046000828254610e1091906115f3565b92505081905550600660006005548152602001908152602001600020600201543373ffffffffffffffffffffffffffffffffffffffff167f9e71bc8eea02a63969f509818f2dafb9254532904319f9dbda79b67bd34a5f3d60405160405180910390a350565b3373ffffffffffffffffffffffffffffffffffffffff16600360009054906101000a900473ffffffffffffffffffffffffffffffffffffffff1673ffffffffffffffffffffffffffffffffffffffff1614610f06576040517f08c379a0000000000000000000000000000000000000000000000000000000008152600401610efd90611720565b60405180910390fd5b610f0e61117e565b6000601883610f1d9190611997565b90506000603c8083610f2f9190611997565b610f399190611997565b9050606483610f489190611997565b6008600083815260200190815260200160002081905550600981908060018154018082558091505060019003906000526020600020016000909190919091505550505050565b600360009054906101000a900473ffffffffffffffffffffffffffffffffffffffff1681565b6000610fbe61117e565b6000600660008481526020019081526020016000206001015442610fe291906117ac565b90506000805b6001600980549050610ffa91906117ac565b81116110f8576009818154811061101457611013611595565b5b906000526020600020015483101580156110575750600960018261103891906115f3565b8154811061104957611048611595565b5b906000526020600020015483105b1561109557600860006009838154811061107457611073611595565b5b906000526020600020015481526020019081526020016000205491506110e5565b600960016009805490506110a991906117ac565b815481106110ba576110b9611595565b5b906000526020600020015483106110e457600860006101a481526020019081526020016000205491505b5b80806110f090611649565b915050610fe8565b5061271085826111089190611997565b6111129190611a20565b9250505092915050565b61112461122a565b60008060006101000a81548160ff0219169083151502179055507f5db9ee0a495bf2e6ff9c91a7834c1ba4fdd244a5e8aa4e537bd38aeae4b073aa611167611273565b604051611174919061157a565b60405180910390a1565b611186610659565b156111c6576040517f08c379a00000000000000000000000000000000000000000000000000000000081526004016111bd90611a9d565b60405180910390fd5b565b6111d061117e565b60016000806101000a81548160ff0219169083151502179055507f62e78cea01bee320cd4e420270b5ea74000d11b0c9f74754ebdbfc544b05a258611213611273565b604051611220919061157a565b60405180910390a1565b611232610659565b611271576040517f08c379a000000000000000000000000000000000000000000000000000000000815260040161126890611b09565b60405180910390fd5b565b600033905090565b600082825260208201905092915050565b7f4e6f206b6e6f776e207472616e73616374696f6e000000000000000000000000600082015250565b60006112c260148361127b565b91506112cd8261128c565b602082019050919050565b600060208201905081810360008301526112f1816112b5565b9050919050565b600080fd5b600073ffffffffffffffffffffffffffffffffffffffff82169050919050565b6000611328826112fd565b9050919050565b6113388161131d565b811461134357600080fd5b50565b6000813590506113558161132f565b92915050565b600060208284031215611371576113706112f8565b5b600061137f84828501611346565b91505092915050565b6000819050919050565b61139b81611388565b82525050565b60006020820190506113b66000830184611392565b92915050565b600081519050919050565b600082825260208201905092915050565b6000819050602082019050919050565b6113f181611388565b82525050565b600061140383836113e8565b60208301905092915050565b6000602082019050919050565b6000611427826113bc565b61143181856113c7565b935061143c836113d8565b8060005b8381101561146d57815161145488826113f7565b975061145f8361140f565b925050600181019050611440565b5085935050505092915050565b60006020820190508181036000830152611494818461141c565b905092915050565b60008115159050919050565b6114b18161149c565b82525050565b60006020820190506114cc60008301846114a8565b92915050565b6114db81611388565b81146114e657600080fd5b50565b6000813590506114f8816114d2565b92915050565b600060208284031215611514576115136112f8565b5b6000611522848285016114e9565b91505092915050565b60008060408385031215611542576115416112f8565b5b6000611550858286016114e9565b9250506020611561858286016114e9565b9150509250929050565b6115748161131d565b82525050565b600060208201905061158f600083018461156b565b92915050565b7f4e487b7100000000000000000000000000000000000000000000000000000000600052603260045260246000fd5b7f4e487b7100000000000000000000000000000000000000000000000000000000600052601160045260246000fd5b60006115fe82611388565b915061160983611388565b9250827fffffffffffffffffffffffffffffffffffffffffffffffffffffffffffffffff0382111561163e5761163d6115c4565b5b828201905092915050565b600061165482611388565b91507fffffffffffffffffffffffffffffffffffffffffffffffffffffffffffffffff821415611687576116866115c4565b5b600182019050919050565b6000815190506116a1816114d2565b92915050565b6000602082840312156116bd576116bc6112f8565b5b60006116cb84828501611692565b91505092915050565b7f4f6e6c79206f776e65722063616e206368616e67652069740000000000000000600082015250565b600061170a60188361127b565b9150611715826116d4565b602082019050919050565b60006020820190508181036000830152611739816116fd565b9050919050565b7f5265656e7472616e637947756172643a207265656e7472616e742063616c6c00600082015250565b6000611776601f8361127b565b915061178182611740565b602082019050919050565b600060208201905081810360008301526117a581611769565b9050919050565b60006117b782611388565b91506117c283611388565b9250828210156117d5576117d46115c4565b5b828203905092915050565b60006040820190506117f5600083018561156b565b6118026020830184611392565b9392505050565b6118128161149c565b811461181d57600080fd5b50565b60008151905061182f81611809565b92915050565b60006020828403121561184b5761184a6112f8565b5b600061185984828501611820565b91505092915050565b7f416464726573732063616e6e6f7420626520746865207a65726f20616464726560008201527f7373000000000000000000000000000000000000000000000000000000000000602082015250565b60006118be60228361127b565b91506118c982611862565b604082019050919050565b600060208201905081810360008301526118ed816118b1565b9050919050565b7f56616c7565206d7573742062652067726561746572207468616e203000000000600082015250565b600061192a601c8361127b565b9150611935826118f4565b602082019050919050565b600060208201905081810360008301526119598161191d565b9050919050565b6000606082019050611975600083018661156b565b611982602083018561156b565b61198f6040830184611392565b949350505050565b60006119a282611388565b91506119ad83611388565b9250817fffffffffffffffffffffffffffffffffffffffffffffffffffffffffffffffff04831182151516156119e6576119e56115c4565b5b828202905092915050565b7f4e487b7100000000000000000000000000000000000000000000000000000000600052601260045260246000fd5b6000611a2b82611388565b9150611a3683611388565b925082611a4657611a456119f1565b5b828204905092915050565b7f5061757361626c653a2070617573656400000000000000000000000000000000600082015250565b6000611a8760108361127b565b9150611a9282611a51565b602082019050919050565b60006020820190508181036000830152611ab681611a7a565b9050919050565b7f5061757361626c653a206e6f7420706175736564000000000000000000000000600082015250565b6000611af360148361127b565b9150611afe82611abd565b602082019050919050565b60006020820190508181036000830152611b2281611ae6565b905091905056fea26469706673582212208098c7baf1c12f301c7c90b89a019e508243424dc0f394f6ad9ce4ee4881ecc664736f6c63430008090033",
  "linkReferences": {},
  "deployedLinkReferences": {}
}