{
  "_format": "hh-sol-artifact-1",
  "contractName": "ChakraStaking",
  "sourceName": "contracts/ChakraStaking.sol",
  "abi": [
    {
      "inputs": [
        {
          "internalType": "contract Token",
          "name": "_address",
          "type": "address"
        }
      ],
      "stateMutability": "nonpayable",
      "type": "constructor"
    },
    {
      "anonymous": false,
      "inputs": [
        {
          "indexed": false,
          "internalType": "address",
          "name": "account",
          "type": "address"
        }
      ],
      "name": "Paused",
      "type": "event"
    },
    {
      "anonymous": false,
      "inputs": [
        {
          "indexed": true,
          "internalType": "address",
          "name": "_staker",
          "type": "address"
        },
        {
          "indexed": true,
          "internalType": "uint256",
          "name": "_amount",
          "type": "uint256"
        }
      ],
      "name": "Staked",
      "type": "event"
    },
    {
      "anonymous": false,
      "inputs": [
        {
          "indexed": false,
          "internalType": "address",
          "name": "account",
          "type": "address"
        }
      ],
      "name": "Unpaused",
      "type": "event"
    },
    {
      "anonymous": false,
      "inputs": [
        {
          "indexed": true,
          "internalType": "address",
          "name": "_withdrawer",
          "type": "address"
        },
        {
          "indexed": true,
          "internalType": "uint256",
          "name": "_amount",
          "type": "uint256"
        }
      ],
      "name": "Withdraw",
      "type": "event"
    },
    {
      "stateMutability": "payable",
      "type": "fallback"
    },
    {
      "inputs": [],
      "name": "admin",
      "outputs": [
        {
          "internalType": "address",
          "name": "",
          "type": "address"
        }
      ],
      "stateMutability": "view",
      "type": "function"
    },
    {
      "inputs": [
        {
          "internalType": "address",
          "name": "_staker",
          "type": "address"
        }
      ],
      "name": "amountEarned",
      "outputs": [
        {
          "internalType": "uint256",
          "name": "amount",
          "type": "uint256"
        }
      ],
      "stateMutability": "view",
      "type": "function"
    },
    {
      "inputs": [],
      "name": "depositorId",
      "outputs": [
        {
          "internalType": "uint256",
          "name": "",
          "type": "uint256"
        }
      ],
      "stateMutability": "view",
      "type": "function"
    },
    {
      "inputs": [],
      "name": "getStakeperiods",
      "outputs": [
        {
          "internalType": "uint256[]",
          "name": "",
          "type": "uint256[]"
        }
      ],
      "stateMutability": "view",
      "type": "function"
    },
    {
      "inputs": [],
      "name": "getTotalVolume",
      "outputs": [
        {
          "internalType": "uint256",
          "name": "",
          "type": "uint256"
        }
      ],
      "stateMutability": "view",
      "type": "function"
    },
    {
      "inputs": [],
      "name": "pause",
      "outputs": [],
      "stateMutability": "nonpayable",
      "type": "function"
    },
    {
      "inputs": [],
      "name": "paused",
      "outputs": [
        {
          "internalType": "bool",
          "name": "",
          "type": "bool"
        }
      ],
      "stateMutability": "view",
      "type": "function"
    },
    {
      "inputs": [
        {
          "internalType": "uint256",
          "name": "_amount",
          "type": "uint256"
        }
      ],
      "name": "stakeChakra",
      "outputs": [],
      "stateMutability": "nonpayable",
      "type": "function"
    },
    {
      "inputs": [
        {
          "internalType": "uint256",
          "name": "",
          "type": "uint256"
        }
      ],
      "name": "stakers",
      "outputs": [
        {
          "internalType": "address",
          "name": "staker",
          "type": "address"
        },
        {
          "internalType": "uint256",
          "name": "dateCreated",
          "type": "uint256"
        },
        {
          "internalType": "uint256",
          "name": "amountStaked",
          "type": "uint256"
        },
        {
          "internalType": "bool",
          "name": "claimed",
          "type": "bool"
        }
      ],
      "stateMutability": "view",
      "type": "function"
    },
    {
      "inputs": [],
      "name": "totalStakedAmount",
      "outputs": [
        {
          "internalType": "uint256",
          "name": "",
          "type": "uint256"
        }
      ],
      "stateMutability": "view",
      "type": "function"
    },
    {
      "inputs": [],
      "name": "unpause",
      "outputs": [],
      "stateMutability": "nonpayable",
      "type": "function"
    },
    {
      "inputs": [
        {
          "internalType": "uint256",
          "name": "_numOfDays",
          "type": "uint256"
        },
        {
          "internalType": "uint256",
          "name": "_interest",
          "type": "uint256"
        }
      ],
      "name": "updateStakePeriod",
      "outputs": [],
      "stateMutability": "nonpayable",
      "type": "function"
    },
    {
      "inputs": [],
      "name": "withdrawChakra",
      "outputs": [],
      "stateMutability": "nonpayable",
      "type": "function"
    },
    {
      "stateMutability": "payable",
      "type": "receive"
    }
  ],
  "bytecode": "0x60806040523480156200001157600080fd5b5060405162001f2038038062001f20833981810160405281019062000037919062000240565b60008060006101000a81548160ff0219169083151502179055506001808190555033600360006101000a81548173ffffffffffffffffffffffffffffffffffffffff021916908373ffffffffffffffffffffffffffffffffffffffff16021790555080600260006101000a81548173ffffffffffffffffffffffffffffffffffffffff021916908373ffffffffffffffffffffffffffffffffffffffff16021790555061012c6008600060788152602001908152602001600020819055506102586008600060f08152602001908152602001600020819055506103e8600860006101a4815260200190815260200160002081905550600960789080600181540180825580915050600190039060005260206000200160009091909190915055600960f0908060018154018082558091505060019003906000526020600020016000909190919091505560096101a49080600181540180825580915050600190039060005260206000200160009091909190915055600060048190555060006005819055505062000272565b600080fd5b600073ffffffffffffffffffffffffffffffffffffffff82169050919050565b6000620001f482620001c7565b9050919050565b60006200020882620001e7565b9050919050565b6200021a81620001fb565b81146200022657600080fd5b50565b6000815190506200023a816200020f565b92915050565b600060208284031215620002595762000258620001c2565b5b6000620002698482850162000229565b91505092915050565b611c9e80620002826000396000f3fe6080604052600436106100c65760003560e01c80636655053c1161007f578063ab0eedb411610059578063ab0eedb414610298578063cddd18a6146102c1578063f851a440146102ec578063fd5e6dd11461031757610106565b80636655053c146102415780638456cb5914610258578063a94a83511461026f57610106565b806309deaa24146101415780630b9d98e91461017e5780631bfca546146101a95780633f4ba83a146101d4578063567e98f9146101eb5780635c975abb1461021657610106565b36610106576040517f08c379a00000000000000000000000000000000000000000000000000000000081526004016100fd906113d2565b60405180910390fd5b6040517f08c379a0000000000000000000000000000000000000000000000000000000008152600401610138906113d2565b60405180910390fd5b34801561014d57600080fd5b5061016860048036038101906101639190611455565b610357565b604051610175919061149b565b60405180910390f35b34801561018a57600080fd5b506101936104ac565b6040516101a0919061149b565b60405180910390f35b3480156101b557600080fd5b506101be61055e565b6040516101cb9190611574565b60405180910390f35b3480156101e057600080fd5b506101e9610646565b005b3480156101f757600080fd5b506102006106e0565b60405161020d919061149b565b60405180910390f35b34801561022257600080fd5b5061022b6106ea565b60405161023891906115b1565b60405180910390f35b34801561024d57600080fd5b50610256610700565b005b34801561026457600080fd5b5061026d610b37565b005b34801561027b57600080fd5b50610296600480360381019061029191906115f8565b610bd1565b005b3480156102a457600080fd5b506102bf60048036038101906102ba9190611625565b610f0d565b005b3480156102cd57600080fd5b506102d6611025565b6040516102e3919061149b565b60405180910390f35b3480156102f857600080fd5b5061030161102b565b60405161030e9190611674565b60405180910390f35b34801561032357600080fd5b5061033e600480360381019061033991906115f8565b611051565b60405161034e949392919061168f565b60405180910390f35b600080600760008473ffffffffffffffffffffffffffffffffffffffff1673ffffffffffffffffffffffffffffffffffffffff1681526020019081526020016000208054806020026020016040519081016040528092919081815260200182805480156103e357602002820191906000526020600020905b8154815260200190600101908083116103cf575b5050505050905060005b81518110156104a55761044a600660008484815181106104105761040f6116d4565b5b602002602001015181526020019081526020016000206002015483838151811061043d5761043c6116d4565b5b60200260200101516110ae565b60066000848481518110610461576104606116d4565b5b60200260200101518152602001908152602001600020600201546104859190611732565b836104909190611732565b9250808061049d90611788565b9150506103ed565b5050919050565b6000600260009054906101000a900473ffffffffffffffffffffffffffffffffffffffff1673ffffffffffffffffffffffffffffffffffffffff166370a08231306040518263ffffffff1660e01b81526004016105099190611674565b60206040518083038186803b15801561052157600080fd5b505afa158015610535573d6000803e3d6000fd5b505050506040513d601f19601f8201168201806040525081019061055991906117e6565b905090565b60603373ffffffffffffffffffffffffffffffffffffffff16600360009054906101000a900473ffffffffffffffffffffffffffffffffffffffff1673ffffffffffffffffffffffffffffffffffffffff16146105f0576040517f08c379a00000000000000000000000000000000000000000000000000000000081526004016105e79061185f565b60405180910390fd5b600980548060200260200160405190810160405280929190818152602001828054801561063c57602002820191906000526020600020905b815481526020019060010190808311610628575b5050505050905090565b3373ffffffffffffffffffffffffffffffffffffffff16600360009054906101000a900473ffffffffffffffffffffffffffffffffffffffff1673ffffffffffffffffffffffffffffffffffffffff16146106d6576040517f08c379a00000000000000000000000000000000000000000000000000000000081526004016106cd9061185f565b60405180910390fd5b6106de611216565b565b6000600454905090565b60008060009054906101000a900460ff16905090565b60026001541415610746576040517f08c379a000000000000000000000000000000000000000000000000000000000815260040161073d906118cb565b60405180910390fd5b6002600181905550610756611278565b60003390506000806000600760008573ffffffffffffffffffffffffffffffffffffffff1673ffffffffffffffffffffffffffffffffffffffff1681526020019081526020016000208054806020026020016040519081016040528092919081815260200182805480156107e957602002820191906000526020600020905b8154815260200190600101908083116107d5575b5050505050905060005b8151811015610963576000151560066000848481518110610817576108166116d4565b5b6020026020010151815260200190815260200160002060030160009054906101000a900460ff161515141561095057600061089c60066000858581518110610862576108616116d4565b5b602002602001015181526020019081526020016000206002015484848151811061088f5761088e6116d4565b5b60200260200101516110ae565b905080600660008585815181106108b6576108b56116d4565b5b60200260200101518152602001908152602001600020600201546108da9190611732565b856108e59190611732565b94506064856108f491906118eb565b94506064846109039190611732565b935060016006600085858151811061091e5761091d6116d4565b5b6020026020010151815260200190815260200160002060030160006101000a81548160ff021916908315150217905550505b808061095b90611788565b9150506107f3565b50600260009054906101000a900473ffffffffffffffffffffffffffffffffffffffff1673ffffffffffffffffffffffffffffffffffffffff1663a9059cbb33856040518363ffffffff1660e01b81526004016109c192919061191f565b602060405180830381600087803b1580156109db57600080fd5b505af11580156109ef573d6000803e3d6000fd5b505050506040513d601f19601f82011682018060405250810190610a139190611974565b50600260009054906101000a900473ffffffffffffffffffffffffffffffffffffffff1673ffffffffffffffffffffffffffffffffffffffff1663a9059cbb600360009054906101000a900473ffffffffffffffffffffffffffffffffffffffff16846040518363ffffffff1660e01b8152600401610a9392919061191f565b602060405180830381600087803b158015610aad57600080fd5b505af1158015610ac1573d6000803e3d6000fd5b505050506040513d601f19601f82011682018060405250810190610ae59190611974565b50828473ffffffffffffffffffffffffffffffffffffffff167f884edad9ce6fa2440d8a54cc123490eb96d2768479d49ff9c7366125a942436460405160405180910390a35050505060018081905550565b3373ffffffffffffffffffffffffffffffffffffffff16600360009054906101000a900473ffffffffffffffffffffffffffffffffffffffff1673ffffffffffffffffffffffffffffffffffffffff1614610bc7576040517f08c379a0000000000000000000000000000000000000000000000000000000008152600401610bbe9061185f565b60405180910390fd5b610bcf6112c2565b565b610bd9611278565b600073ffffffffffffffffffffffffffffffffffffffff163373ffffffffffffffffffffffffffffffffffffffff161415610c49576040517f08c379a0000000000000000000000000000000000000000000000000000000008152600401610c4090611a13565b60405180910390fd5b670de0b6b3a7640000811015610c94576040517f08c379a0000000000000000000000000000000000000000000000000000000008152600401610c8b90611a7f565b60405180910390fd5b600260009054906101000a900473ffffffffffffffffffffffffffffffffffffffff1673ffffffffffffffffffffffffffffffffffffffff166323b872dd3330846040518463ffffffff1660e01b8152600401610cf393929190611a9f565b602060405180830381600087803b158015610d0d57600080fd5b505af1158015610d21573d6000803e3d6000fd5b505050506040513d601f19601f82011682018060405250810190610d459190611974565b50600160056000828254610d599190611732565b9250508190555060405180608001604052803373ffffffffffffffffffffffffffffffffffffffff1681526020014281526020018281526020016000151581525060066000600554815260200190815260200160002060008201518160000160006101000a81548173ffffffffffffffffffffffffffffffffffffffff021916908373ffffffffffffffffffffffffffffffffffffffff160217905550602082015181600101556040820151816002015560608201518160030160006101000a81548160ff021916908315150217905550905050600760003373ffffffffffffffffffffffffffffffffffffffff1673ffffffffffffffffffffffffffffffffffffffff16815260200190815260200160002060055490806001815401808255809150506001900390600052602060002001600090919091909150558060046000828254610ea79190611732565b92505081905550600660006005548152602001908152602001600020600201543373ffffffffffffffffffffffffffffffffffffffff167f9e71bc8eea02a63969f509818f2dafb9254532904319f9dbda79b67bd34a5f3d60405160405180910390a350565b3373ffffffffffffffffffffffffffffffffffffffff16600360009054906101000a900473ffffffffffffffffffffffffffffffffffffffff1673ffffffffffffffffffffffffffffffffffffffff1614610f9d576040517f08c379a0000000000000000000000000000000000000000000000000000000008152600401610f949061185f565b60405180910390fd5b610fa5611278565b6000601883610fb49190611ad6565b90506000603c8083610fc69190611ad6565b610fd09190611ad6565b9050606483610fdf9190611ad6565b6008600083815260200190815260200160002081905550600981908060018154018082558091505060019003906000526020600020016000909190919091505550505050565b60055481565b600360009054906101000a900473ffffffffffffffffffffffffffffffffffffffff1681565b60066020528060005260406000206000915090508060000160009054906101000a900473ffffffffffffffffffffffffffffffffffffffff16908060010154908060020154908060030160009054906101000a900460ff16905084565b60006110b8611278565b60006006600084815260200190815260200160002060010154426110dc91906118eb565b90506000805b60016009805490506110f491906118eb565b81116111f2576009600160098054905061110e91906118eb565b8154811061111f5761111e6116d4565b5b9060005260206000200154831061114d57600860006101a481526020019081526020016000205491506111df565b60098181548110611161576111606116d4565b5b906000526020600020015483101580156111a4575060096001826111859190611732565b81548110611196576111956116d4565b5b906000526020600020015483105b156111de5760086000600983815481106111c1576111c06116d4565b5b906000526020600020015481526020019081526020016000205491505b5b80806111ea90611788565b9150506110e2565b5061271085826112029190611ad6565b61120c9190611b5f565b9250505092915050565b61121e611324565b60008060006101000a81548160ff0219169083151502179055507f5db9ee0a495bf2e6ff9c91a7834c1ba4fdd244a5e8aa4e537bd38aeae4b073aa61126161136d565b60405161126e9190611674565b60405180910390a1565b6112806106ea565b156112c0576040517f08c379a00000000000000000000000000000000000000000000000000000000081526004016112b790611bdc565b60405180910390fd5b565b6112ca611278565b60016000806101000a81548160ff0219169083151502179055507f62e78cea01bee320cd4e420270b5ea74000d11b0c9f74754ebdbfc544b05a25861130d61136d565b60405161131a9190611674565b60405180910390a1565b61132c6106ea565b61136b576040517f08c379a000000000000000000000000000000000000000000000000000000000815260040161136290611c48565b60405180910390fd5b565b600033905090565b600082825260208201905092915050565b7f4e6f206b6e6f776e207472616e73616374696f6e000000000000000000000000600082015250565b60006113bc601483611375565b91506113c782611386565b602082019050919050565b600060208201905081810360008301526113eb816113af565b9050919050565b600080fd5b600073ffffffffffffffffffffffffffffffffffffffff82169050919050565b6000611422826113f7565b9050919050565b61143281611417565b811461143d57600080fd5b50565b60008135905061144f81611429565b92915050565b60006020828403121561146b5761146a6113f2565b5b600061147984828501611440565b91505092915050565b6000819050919050565b61149581611482565b82525050565b60006020820190506114b0600083018461148c565b92915050565b600081519050919050565b600082825260208201905092915050565b6000819050602082019050919050565b6114eb81611482565b82525050565b60006114fd83836114e2565b60208301905092915050565b6000602082019050919050565b6000611521826114b6565b61152b81856114c1565b9350611536836114d2565b8060005b8381101561156757815161154e88826114f1565b975061155983611509565b92505060018101905061153a565b5085935050505092915050565b6000602082019050818103600083015261158e8184611516565b905092915050565b60008115159050919050565b6115ab81611596565b82525050565b60006020820190506115c660008301846115a2565b92915050565b6115d581611482565b81146115e057600080fd5b50565b6000813590506115f2816115cc565b92915050565b60006020828403121561160e5761160d6113f2565b5b600061161c848285016115e3565b91505092915050565b6000806040838503121561163c5761163b6113f2565b5b600061164a858286016115e3565b925050602061165b858286016115e3565b9150509250929050565b61166e81611417565b82525050565b60006020820190506116896000830184611665565b92915050565b60006080820190506116a46000830187611665565b6116b1602083018661148c565b6116be604083018561148c565b6116cb60608301846115a2565b95945050505050565b7f4e487b7100000000000000000000000000000000000000000000000000000000600052603260045260246000fd5b7f4e487b7100000000000000000000000000000000000000000000000000000000600052601160045260246000fd5b600061173d82611482565b915061174883611482565b9250827fffffffffffffffffffffffffffffffffffffffffffffffffffffffffffffffff0382111561177d5761177c611703565b5b828201905092915050565b600061179382611482565b91507fffffffffffffffffffffffffffffffffffffffffffffffffffffffffffffffff8214156117c6576117c5611703565b5b600182019050919050565b6000815190506117e0816115cc565b92915050565b6000602082840312156117fc576117fb6113f2565b5b600061180a848285016117d1565b91505092915050565b7f4f6e6c79206f776e65722063616e206368616e67652069740000000000000000600082015250565b6000611849601883611375565b915061185482611813565b602082019050919050565b600060208201905081810360008301526118788161183c565b9050919050565b7f5265656e7472616e637947756172643a207265656e7472616e742063616c6c00600082015250565b60006118b5601f83611375565b91506118c08261187f565b602082019050919050565b600060208201905081810360008301526118e4816118a8565b9050919050565b60006118f682611482565b915061190183611482565b92508282101561191457611913611703565b5b828203905092915050565b60006040820190506119346000830185611665565b611941602083018461148c565b9392505050565b61195181611596565b811461195c57600080fd5b50565b60008151905061196e81611948565b92915050565b60006020828403121561198a576119896113f2565b5b60006119988482850161195f565b91505092915050565b7f416464726573732063616e6e6f7420626520746865207a65726f20616464726560008201527f7373000000000000000000000000000000000000000000000000000000000000602082015250565b60006119fd602283611375565b9150611a08826119a1565b604082019050919050565b60006020820190508181036000830152611a2c816119f0565b9050919050565b7f56616c7565206d7573742062652067726561746572207468616e203000000000600082015250565b6000611a69601c83611375565b9150611a7482611a33565b602082019050919050565b60006020820190508181036000830152611a9881611a5c565b9050919050565b6000606082019050611ab46000830186611665565b611ac16020830185611665565b611ace604083018461148c565b949350505050565b6000611ae182611482565b9150611aec83611482565b9250817fffffffffffffffffffffffffffffffffffffffffffffffffffffffffffffffff0483118215151615611b2557611b24611703565b5b828202905092915050565b7f4e487b7100000000000000000000000000000000000000000000000000000000600052601260045260246000fd5b6000611b6a82611482565b9150611b7583611482565b925082611b8557611b84611b30565b5b828204905092915050565b7f5061757361626c653a2070617573656400000000000000000000000000000000600082015250565b6000611bc6601083611375565b9150611bd182611b90565b602082019050919050565b60006020820190508181036000830152611bf581611bb9565b9050919050565b7f5061757361626c653a206e6f7420706175736564000000000000000000000000600082015250565b6000611c32601483611375565b9150611c3d82611bfc565b602082019050919050565b60006020820190508181036000830152611c6181611c25565b905091905056fea264697066735822122000cb8404fec483f6ceaef8f2df90a8c594233a7dafe33b1f6d3250bfa451883764736f6c63430008090033",
  "linkReferences": {},
  "deployedLinkReferences": {}
}