{
  "_format": "hh-sol-artifact-1",
  "contractName": "ChakraStaking",
  "sourceName": "contracts/ChakraStaking.sol",
  "abi": [
    {
      "inputs": [
        {
          "internalType": "contract Token",
          "name": "_address",
          "type": "address"
        }
      ],
      "stateMutability": "nonpayable",
      "type": "constructor"
    },
    {
      "anonymous": false,
      "inputs": [
        {
          "indexed": false,
          "internalType": "address",
          "name": "account",
          "type": "address"
        }
      ],
      "name": "Paused",
      "type": "event"
    },
    {
      "anonymous": false,
      "inputs": [
        {
          "indexed": true,
          "internalType": "address",
          "name": "_staker",
          "type": "address"
        },
        {
          "indexed": true,
          "internalType": "uint256",
          "name": "_amount",
          "type": "uint256"
        }
      ],
      "name": "Staked",
      "type": "event"
    },
    {
      "anonymous": false,
      "inputs": [
        {
          "indexed": false,
          "internalType": "address",
          "name": "account",
          "type": "address"
        }
      ],
      "name": "Unpaused",
      "type": "event"
    },
    {
      "anonymous": false,
      "inputs": [
        {
          "indexed": true,
          "internalType": "address",
          "name": "_withdrawer",
          "type": "address"
        },
        {
          "indexed": true,
          "internalType": "uint256",
          "name": "_amount",
          "type": "uint256"
        }
      ],
      "name": "Withdraw",
      "type": "event"
    },
    {
      "stateMutability": "payable",
      "type": "fallback"
    },
    {
      "inputs": [],
      "name": "admin",
      "outputs": [
        {
          "internalType": "address",
          "name": "",
          "type": "address"
        }
      ],
      "stateMutability": "view",
      "type": "function"
    },
    {
      "inputs": [],
      "name": "depositorId",
      "outputs": [
        {
          "internalType": "uint256",
          "name": "",
          "type": "uint256"
        }
      ],
      "stateMutability": "view",
      "type": "function"
    },
    {
      "inputs": [],
      "name": "getStakeperiods",
      "outputs": [
        {
          "internalType": "uint256[]",
          "name": "",
          "type": "uint256[]"
        }
      ],
      "stateMutability": "view",
      "type": "function"
    },
    {
      "inputs": [],
      "name": "getTotalVolume",
      "outputs": [
        {
          "internalType": "uint256",
          "name": "",
          "type": "uint256"
        }
      ],
      "stateMutability": "view",
      "type": "function"
    },
    {
      "inputs": [],
      "name": "pause",
      "outputs": [],
      "stateMutability": "nonpayable",
      "type": "function"
    },
    {
      "inputs": [],
      "name": "paused",
      "outputs": [
        {
          "internalType": "bool",
          "name": "",
          "type": "bool"
        }
      ],
      "stateMutability": "view",
      "type": "function"
    },
    {
      "inputs": [
        {
          "internalType": "uint256",
          "name": "_amount",
          "type": "uint256"
        }
      ],
      "name": "stakeChakra",
      "outputs": [],
      "stateMutability": "nonpayable",
      "type": "function"
    },
    {
      "inputs": [
        {
          "internalType": "address",
          "name": "_staker",
          "type": "address"
        }
      ],
      "name": "staked",
      "outputs": [
        {
          "internalType": "uint256",
          "name": "amount",
          "type": "uint256"
        }
      ],
      "stateMutability": "view",
      "type": "function"
    },
    {
      "inputs": [
        {
          "internalType": "uint256",
          "name": "",
          "type": "uint256"
        }
      ],
      "name": "stakers",
      "outputs": [
        {
          "internalType": "address",
          "name": "staker",
          "type": "address"
        },
        {
          "internalType": "uint256",
          "name": "dateCreated",
          "type": "uint256"
        },
        {
          "internalType": "uint256",
          "name": "amountStaked",
          "type": "uint256"
        },
        {
          "internalType": "bool",
          "name": "claimed",
          "type": "bool"
        }
      ],
      "stateMutability": "view",
      "type": "function"
    },
    {
      "inputs": [],
      "name": "totalStakedAmount",
      "outputs": [
        {
          "internalType": "uint256",
          "name": "",
          "type": "uint256"
        }
      ],
      "stateMutability": "view",
      "type": "function"
    },
    {
      "inputs": [],
      "name": "unpause",
      "outputs": [],
      "stateMutability": "nonpayable",
      "type": "function"
    },
    {
      "inputs": [
        {
          "internalType": "uint256",
          "name": "_numOfDays",
          "type": "uint256"
        },
        {
          "internalType": "uint256",
          "name": "_interest",
          "type": "uint256"
        }
      ],
      "name": "updateStakePeriod",
      "outputs": [],
      "stateMutability": "nonpayable",
      "type": "function"
    },
    {
      "inputs": [],
      "name": "withdrawChakra",
      "outputs": [],
      "stateMutability": "nonpayable",
      "type": "function"
    },
    {
      "stateMutability": "payable",
      "type": "receive"
    }
  ],
  "bytecode": "0x60806040523480156200001157600080fd5b5060405162001ec238038062001ec2833981810160405281019062000037919062000240565b60008060006101000a81548160ff0219169083151502179055506001808190555033600360006101000a81548173ffffffffffffffffffffffffffffffffffffffff021916908373ffffffffffffffffffffffffffffffffffffffff16021790555080600260006101000a81548173ffffffffffffffffffffffffffffffffffffffff021916908373ffffffffffffffffffffffffffffffffffffffff16021790555061012c6008600060788152602001908152602001600020819055506102586008600060f08152602001908152602001600020819055506103e8600860006101a4815260200190815260200160002081905550600960789080600181540180825580915050600190039060005260206000200160009091909190915055600960f0908060018154018082558091505060019003906000526020600020016000909190919091505560096101a49080600181540180825580915050600190039060005260206000200160009091909190915055600060048190555060006005819055505062000272565b600080fd5b600073ffffffffffffffffffffffffffffffffffffffff82169050919050565b6000620001f482620001c7565b9050919050565b60006200020882620001e7565b9050919050565b6200021a81620001fb565b81146200022657600080fd5b50565b6000815190506200023a816200020f565b92915050565b600060208284031215620002595762000258620001c2565b5b6000620002698482850162000229565b91505092915050565b611c4080620002826000396000f3fe6080604052600436106100c65760003560e01c80638456cb591161007f578063ab0eedb411610059578063ab0eedb414610298578063cddd18a6146102c1578063f851a440146102ec578063fd5e6dd11461031757610106565b80638456cb591461021b57806398807d8414610232578063a94a83511461026f57610106565b80630b9d98e9146101415780631bfca5461461016c5780633f4ba83a14610197578063567e98f9146101ae5780635c975abb146101d95780636655053c1461020457610106565b36610106576040517f08c379a00000000000000000000000000000000000000000000000000000000081526004016100fd90611374565b60405180910390fd5b6040517f08c379a000000000000000000000000000000000000000000000000000000000815260040161013890611374565b60405180910390fd5b34801561014d57600080fd5b50610156610357565b60405161016391906113ad565b60405180910390f35b34801561017857600080fd5b50610181610409565b60405161018e9190611486565b60405180910390f35b3480156101a357600080fd5b506101ac6104f1565b005b3480156101ba57600080fd5b506101c361058b565b6040516101d091906113ad565b60405180910390f35b3480156101e557600080fd5b506101ee610595565b6040516101fb91906114c3565b60405180910390f35b34801561021057600080fd5b506102196105ab565b005b34801561022757600080fd5b506102306109e2565b005b34801561023e57600080fd5b5061025960048036038101906102549190611541565b610a7c565b60405161026691906113ad565b60405180910390f35b34801561027b57600080fd5b506102966004803603810190610291919061159a565b610b73565b005b3480156102a457600080fd5b506102bf60048036038101906102ba91906115c7565b610eaf565b005b3480156102cd57600080fd5b506102d6610fc7565b6040516102e391906113ad565b60405180910390f35b3480156102f857600080fd5b50610301610fcd565b60405161030e9190611616565b60405180910390f35b34801561032357600080fd5b5061033e6004803603810190610339919061159a565b610ff3565b60405161034e9493929190611631565b60405180910390f35b6000600260009054906101000a900473ffffffffffffffffffffffffffffffffffffffff1673ffffffffffffffffffffffffffffffffffffffff166370a08231306040518263ffffffff1660e01b81526004016103b49190611616565b60206040518083038186803b1580156103cc57600080fd5b505afa1580156103e0573d6000803e3d6000fd5b505050506040513d601f19601f82011682018060405250810190610404919061168b565b905090565b60603373ffffffffffffffffffffffffffffffffffffffff16600360009054906101000a900473ffffffffffffffffffffffffffffffffffffffff1673ffffffffffffffffffffffffffffffffffffffff161461049b576040517f08c379a000000000000000000000000000000000000000000000000000000000815260040161049290611704565b60405180910390fd5b60098054806020026020016040519081016040528092919081815260200182805480156104e757602002820191906000526020600020905b8154815260200190600101908083116104d3575b5050505050905090565b3373ffffffffffffffffffffffffffffffffffffffff16600360009054906101000a900473ffffffffffffffffffffffffffffffffffffffff1673ffffffffffffffffffffffffffffffffffffffff1614610581576040517f08c379a000000000000000000000000000000000000000000000000000000000815260040161057890611704565b60405180910390fd5b610589611050565b565b6000600454905090565b60008060009054906101000a900460ff16905090565b600260015414156105f1576040517f08c379a00000000000000000000000000000000000000000000000000000000081526004016105e890611770565b60405180910390fd5b60026001819055506106016110b2565b60003390506000806000600760008573ffffffffffffffffffffffffffffffffffffffff1673ffffffffffffffffffffffffffffffffffffffff16815260200190815260200160002080548060200260200160405190810160405280929190818152602001828054801561069457602002820191906000526020600020905b815481526020019060010190808311610680575b5050505050905060005b815181101561080e5760001515600660008484815181106106c2576106c1611790565b5b6020026020010151815260200190815260200160002060030160009054906101000a900460ff16151514156107fb5760006107476006600085858151811061070d5761070c611790565b5b602002602001015181526020019081526020016000206002015484848151811061073a57610739611790565b5b60200260200101516110fc565b9050806006600085858151811061076157610760611790565b5b602002602001015181526020019081526020016000206002015461078591906117ee565b8561079091906117ee565b945060648561079f9190611844565b94506064846107ae91906117ee565b93506001600660008585815181106107c9576107c8611790565b5b6020026020010151815260200190815260200160002060030160006101000a81548160ff021916908315150217905550505b808061080690611878565b91505061069e565b50600260009054906101000a900473ffffffffffffffffffffffffffffffffffffffff1673ffffffffffffffffffffffffffffffffffffffff1663a9059cbb33856040518363ffffffff1660e01b815260040161086c9291906118c1565b602060405180830381600087803b15801561088657600080fd5b505af115801561089a573d6000803e3d6000fd5b505050506040513d601f19601f820116820180604052508101906108be9190611916565b50600260009054906101000a900473ffffffffffffffffffffffffffffffffffffffff1673ffffffffffffffffffffffffffffffffffffffff1663a9059cbb600360009054906101000a900473ffffffffffffffffffffffffffffffffffffffff16846040518363ffffffff1660e01b815260040161093e9291906118c1565b602060405180830381600087803b15801561095857600080fd5b505af115801561096c573d6000803e3d6000fd5b505050506040513d601f19601f820116820180604052508101906109909190611916565b50828473ffffffffffffffffffffffffffffffffffffffff167f884edad9ce6fa2440d8a54cc123490eb96d2768479d49ff9c7366125a942436460405160405180910390a35050505060018081905550565b3373ffffffffffffffffffffffffffffffffffffffff16600360009054906101000a900473ffffffffffffffffffffffffffffffffffffffff1673ffffffffffffffffffffffffffffffffffffffff1614610a72576040517f08c379a0000000000000000000000000000000000000000000000000000000008152600401610a6990611704565b60405180910390fd5b610a7a611264565b565b600080600760008473ffffffffffffffffffffffffffffffffffffffff1673ffffffffffffffffffffffffffffffffffffffff168152602001908152602001600020805480602002602001604051908101604052809291908181526020018280548015610b0857602002820191906000526020600020905b815481526020019060010190808311610af4575b5050505050905060005b8151811015610b6c5760066000838381518110610b3257610b31611790565b5b602002602001015181526020019081526020016000206002015483610b5791906117ee565b92508080610b6490611878565b915050610b12565b5050919050565b610b7b6110b2565b600073ffffffffffffffffffffffffffffffffffffffff163373ffffffffffffffffffffffffffffffffffffffff161415610beb576040517f08c379a0000000000000000000000000000000000000000000000000000000008152600401610be2906119b5565b60405180910390fd5b670de0b6b3a7640000811015610c36576040517f08c379a0000000000000000000000000000000000000000000000000000000008152600401610c2d90611a21565b60405180910390fd5b600260009054906101000a900473ffffffffffffffffffffffffffffffffffffffff1673ffffffffffffffffffffffffffffffffffffffff166323b872dd3330846040518463ffffffff1660e01b8152600401610c9593929190611a41565b602060405180830381600087803b158015610caf57600080fd5b505af1158015610cc3573d6000803e3d6000fd5b505050506040513d601f19601f82011682018060405250810190610ce79190611916565b50600160056000828254610cfb91906117ee565b9250508190555060405180608001604052803373ffffffffffffffffffffffffffffffffffffffff1681526020014281526020018281526020016000151581525060066000600554815260200190815260200160002060008201518160000160006101000a81548173ffffffffffffffffffffffffffffffffffffffff021916908373ffffffffffffffffffffffffffffffffffffffff160217905550602082015181600101556040820151816002015560608201518160030160006101000a81548160ff021916908315150217905550905050600760003373ffffffffffffffffffffffffffffffffffffffff1673ffffffffffffffffffffffffffffffffffffffff16815260200190815260200160002060055490806001815401808255809150506001900390600052602060002001600090919091909150558060046000828254610e4991906117ee565b92505081905550600660006005548152602001908152602001600020600201543373ffffffffffffffffffffffffffffffffffffffff167f9e71bc8eea02a63969f509818f2dafb9254532904319f9dbda79b67bd34a5f3d60405160405180910390a350565b3373ffffffffffffffffffffffffffffffffffffffff16600360009054906101000a900473ffffffffffffffffffffffffffffffffffffffff1673ffffffffffffffffffffffffffffffffffffffff1614610f3f576040517f08c379a0000000000000000000000000000000000000000000000000000000008152600401610f3690611704565b60405180910390fd5b610f476110b2565b6000601883610f569190611a78565b90506000603c8083610f689190611a78565b610f729190611a78565b9050606483610f819190611a78565b6008600083815260200190815260200160002081905550600981908060018154018082558091505060019003906000526020600020016000909190919091505550505050565b60055481565b600360009054906101000a900473ffffffffffffffffffffffffffffffffffffffff1681565b60066020528060005260406000206000915090508060000160009054906101000a900473ffffffffffffffffffffffffffffffffffffffff16908060010154908060020154908060030160009054906101000a900460ff16905084565b6110586112c6565b60008060006101000a81548160ff0219169083151502179055507f5db9ee0a495bf2e6ff9c91a7834c1ba4fdd244a5e8aa4e537bd38aeae4b073aa61109b61130f565b6040516110a89190611616565b60405180910390a1565b6110ba610595565b156110fa576040517f08c379a00000000000000000000000000000000000000000000000000000000081526004016110f190611b1e565b60405180910390fd5b565b60006111066110b2565b600060066000848152602001908152602001600020600101544261112a9190611844565b90506000805b60016009805490506111429190611844565b8111611240576009600160098054905061115c9190611844565b8154811061116d5761116c611790565b5b9060005260206000200154831061119b57600860006101a4815260200190815260200160002054915061122d565b600981815481106111af576111ae611790565b5b906000526020600020015483101580156111f2575060096001826111d391906117ee565b815481106111e4576111e3611790565b5b906000526020600020015483105b1561122c57600860006009838154811061120f5761120e611790565b5b906000526020600020015481526020019081526020016000205491505b5b808061123890611878565b915050611130565b5061271085826112509190611a78565b61125a9190611b6d565b9250505092915050565b61126c6110b2565b60016000806101000a81548160ff0219169083151502179055507f62e78cea01bee320cd4e420270b5ea74000d11b0c9f74754ebdbfc544b05a2586112af61130f565b6040516112bc9190611616565b60405180910390a1565b6112ce610595565b61130d576040517f08c379a000000000000000000000000000000000000000000000000000000000815260040161130490611bea565b60405180910390fd5b565b600033905090565b600082825260208201905092915050565b7f4e6f206b6e6f776e207472616e73616374696f6e000000000000000000000000600082015250565b600061135e601483611317565b915061136982611328565b602082019050919050565b6000602082019050818103600083015261138d81611351565b9050919050565b6000819050919050565b6113a781611394565b82525050565b60006020820190506113c2600083018461139e565b92915050565b600081519050919050565b600082825260208201905092915050565b6000819050602082019050919050565b6113fd81611394565b82525050565b600061140f83836113f4565b60208301905092915050565b6000602082019050919050565b6000611433826113c8565b61143d81856113d3565b9350611448836113e4565b8060005b838110156114795781516114608882611403565b975061146b8361141b565b92505060018101905061144c565b5085935050505092915050565b600060208201905081810360008301526114a08184611428565b905092915050565b60008115159050919050565b6114bd816114a8565b82525050565b60006020820190506114d860008301846114b4565b92915050565b600080fd5b600073ffffffffffffffffffffffffffffffffffffffff82169050919050565b600061150e826114e3565b9050919050565b61151e81611503565b811461152957600080fd5b50565b60008135905061153b81611515565b92915050565b600060208284031215611557576115566114de565b5b60006115658482850161152c565b91505092915050565b61157781611394565b811461158257600080fd5b50565b6000813590506115948161156e565b92915050565b6000602082840312156115b0576115af6114de565b5b60006115be84828501611585565b91505092915050565b600080604083850312156115de576115dd6114de565b5b60006115ec85828601611585565b92505060206115fd85828601611585565b9150509250929050565b61161081611503565b82525050565b600060208201905061162b6000830184611607565b92915050565b60006080820190506116466000830187611607565b611653602083018661139e565b611660604083018561139e565b61166d60608301846114b4565b95945050505050565b6000815190506116858161156e565b92915050565b6000602082840312156116a1576116a06114de565b5b60006116af84828501611676565b91505092915050565b7f4f6e6c79206f776e65722063616e206368616e67652069740000000000000000600082015250565b60006116ee601883611317565b91506116f9826116b8565b602082019050919050565b6000602082019050818103600083015261171d816116e1565b9050919050565b7f5265656e7472616e637947756172643a207265656e7472616e742063616c6c00600082015250565b600061175a601f83611317565b915061176582611724565b602082019050919050565b600060208201905081810360008301526117898161174d565b9050919050565b7f4e487b7100000000000000000000000000000000000000000000000000000000600052603260045260246000fd5b7f4e487b7100000000000000000000000000000000000000000000000000000000600052601160045260246000fd5b60006117f982611394565b915061180483611394565b9250827fffffffffffffffffffffffffffffffffffffffffffffffffffffffffffffffff03821115611839576118386117bf565b5b828201905092915050565b600061184f82611394565b915061185a83611394565b92508282101561186d5761186c6117bf565b5b828203905092915050565b600061188382611394565b91507fffffffffffffffffffffffffffffffffffffffffffffffffffffffffffffffff8214156118b6576118b56117bf565b5b600182019050919050565b60006040820190506118d66000830185611607565b6118e3602083018461139e565b9392505050565b6118f3816114a8565b81146118fe57600080fd5b50565b600081519050611910816118ea565b92915050565b60006020828403121561192c5761192b6114de565b5b600061193a84828501611901565b91505092915050565b7f416464726573732063616e6e6f7420626520746865207a65726f20616464726560008201527f7373000000000000000000000000000000000000000000000000000000000000602082015250565b600061199f602283611317565b91506119aa82611943565b604082019050919050565b600060208201905081810360008301526119ce81611992565b9050919050565b7f56616c7565206d7573742062652067726561746572207468616e203000000000600082015250565b6000611a0b601c83611317565b9150611a16826119d5565b602082019050919050565b60006020820190508181036000830152611a3a816119fe565b9050919050565b6000606082019050611a566000830186611607565b611a636020830185611607565b611a70604083018461139e565b949350505050565b6000611a8382611394565b9150611a8e83611394565b9250817fffffffffffffffffffffffffffffffffffffffffffffffffffffffffffffffff0483118215151615611ac757611ac66117bf565b5b828202905092915050565b7f5061757361626c653a2070617573656400000000000000000000000000000000600082015250565b6000611b08601083611317565b9150611b1382611ad2565b602082019050919050565b60006020820190508181036000830152611b3781611afb565b9050919050565b7f4e487b7100000000000000000000000000000000000000000000000000000000600052601260045260246000fd5b6000611b7882611394565b9150611b8383611394565b925082611b9357611b92611b3e565b5b828204905092915050565b7f5061757361626c653a206e6f7420706175736564000000000000000000000000600082015250565b6000611bd4601483611317565b9150611bdf82611b9e565b602082019050919050565b60006020820190508181036000830152611c0381611bc7565b905091905056fea26469706673582212208a283b308b0573d89ca410ba392bec9ce9ecaf5df53a2b7bedc562e2d423c5bf64736f6c63430008090033",
  "linkReferences": {},
  "deployedLinkReferences": {}
}