{
  "_format": "hh-sol-artifact-1",
  "contractName": "ChakraStaking",
  "sourceName": "contracts/ChakraStaking.sol",
  "abi": [
    {
      "inputs": [
        {
          "internalType": "contract Token",
          "name": "_address",
          "type": "address"
        }
      ],
      "stateMutability": "nonpayable",
      "type": "constructor"
    },
    {
      "anonymous": false,
      "inputs": [
        {
          "indexed": false,
          "internalType": "address",
          "name": "account",
          "type": "address"
        }
      ],
      "name": "Paused",
      "type": "event"
    },
    {
      "anonymous": false,
      "inputs": [
        {
          "indexed": true,
          "internalType": "address",
          "name": "_staker",
          "type": "address"
        },
        {
          "indexed": true,
          "internalType": "uint256",
          "name": "_amount",
          "type": "uint256"
        }
      ],
      "name": "Staked",
      "type": "event"
    },
    {
      "anonymous": false,
      "inputs": [
        {
          "indexed": false,
          "internalType": "address",
          "name": "account",
          "type": "address"
        }
      ],
      "name": "Unpaused",
      "type": "event"
    },
    {
      "anonymous": false,
      "inputs": [
        {
          "indexed": true,
          "internalType": "address",
          "name": "_withdrawer",
          "type": "address"
        },
        {
          "indexed": true,
          "internalType": "uint256",
          "name": "_amount",
          "type": "uint256"
        }
      ],
      "name": "Withdraw",
      "type": "event"
    },
    {
      "stateMutability": "payable",
      "type": "fallback"
    },
    {
      "inputs": [],
      "name": "admin",
      "outputs": [
        {
          "internalType": "address",
          "name": "",
          "type": "address"
        }
      ],
      "stateMutability": "view",
      "type": "function"
    },
    {
      "inputs": [
        {
          "internalType": "address",
          "name": "_staker",
          "type": "address"
        }
      ],
      "name": "amountEarned",
      "outputs": [
        {
          "internalType": "uint256",
          "name": "amount",
          "type": "uint256"
        }
      ],
      "stateMutability": "view",
      "type": "function"
    },
    {
      "inputs": [],
      "name": "depositorId",
      "outputs": [
        {
          "internalType": "uint256",
          "name": "",
          "type": "uint256"
        }
      ],
      "stateMutability": "view",
      "type": "function"
    },
    {
      "inputs": [],
      "name": "getStakeperiods",
      "outputs": [
        {
          "internalType": "uint256[]",
          "name": "",
          "type": "uint256[]"
        }
      ],
      "stateMutability": "view",
      "type": "function"
    },
    {
      "inputs": [],
      "name": "getTotalVolume",
      "outputs": [
        {
          "internalType": "uint256",
          "name": "",
          "type": "uint256"
        }
      ],
      "stateMutability": "view",
      "type": "function"
    },
    {
      "inputs": [],
      "name": "pause",
      "outputs": [],
      "stateMutability": "nonpayable",
      "type": "function"
    },
    {
      "inputs": [],
      "name": "paused",
      "outputs": [
        {
          "internalType": "bool",
          "name": "",
          "type": "bool"
        }
      ],
      "stateMutability": "view",
      "type": "function"
    },
    {
      "inputs": [
        {
          "internalType": "uint256",
          "name": "_amount",
          "type": "uint256"
        }
      ],
      "name": "stakeChakra",
      "outputs": [],
      "stateMutability": "nonpayable",
      "type": "function"
    },
    {
      "inputs": [
        {
          "internalType": "uint256",
          "name": "",
          "type": "uint256"
        }
      ],
      "name": "stakers",
      "outputs": [
        {
          "internalType": "address",
          "name": "staker",
          "type": "address"
        },
        {
          "internalType": "uint256",
          "name": "dateCreated",
          "type": "uint256"
        },
        {
          "internalType": "uint256",
          "name": "amountStaked",
          "type": "uint256"
        },
        {
          "internalType": "bool",
          "name": "claimed",
          "type": "bool"
        }
      ],
      "stateMutability": "view",
      "type": "function"
    },
    {
      "inputs": [],
      "name": "totalStakedAmount",
      "outputs": [
        {
          "internalType": "uint256",
          "name": "",
          "type": "uint256"
        }
      ],
      "stateMutability": "view",
      "type": "function"
    },
    {
      "inputs": [],
      "name": "unpause",
      "outputs": [],
      "stateMutability": "nonpayable",
      "type": "function"
    },
    {
      "inputs": [
        {
          "internalType": "uint256",
          "name": "_numOfDays",
          "type": "uint256"
        },
        {
          "internalType": "uint256",
          "name": "_interest",
          "type": "uint256"
        }
      ],
      "name": "updateStakePeriod",
      "outputs": [],
      "stateMutability": "nonpayable",
      "type": "function"
    },
    {
      "inputs": [],
      "name": "withdrawChakra",
      "outputs": [],
      "stateMutability": "nonpayable",
      "type": "function"
    },
    {
      "stateMutability": "payable",
      "type": "receive"
    }
  ],
  "bytecode": "0x60806040523480156200001157600080fd5b5060405162001f1a38038062001f1a833981810160405281019062000037919062000240565b60008060006101000a81548160ff0219169083151502179055506001808190555033600360006101000a81548173ffffffffffffffffffffffffffffffffffffffff021916908373ffffffffffffffffffffffffffffffffffffffff16021790555080600260006101000a81548173ffffffffffffffffffffffffffffffffffffffff021916908373ffffffffffffffffffffffffffffffffffffffff16021790555061012c6008600060788152602001908152602001600020819055506102586008600060f08152602001908152602001600020819055506103e8600860006101a4815260200190815260200160002081905550600960789080600181540180825580915050600190039060005260206000200160009091909190915055600960f0908060018154018082558091505060019003906000526020600020016000909190919091505560096101a49080600181540180825580915050600190039060005260206000200160009091909190915055600060048190555060006005819055505062000272565b600080fd5b600073ffffffffffffffffffffffffffffffffffffffff82169050919050565b6000620001f482620001c7565b9050919050565b60006200020882620001e7565b9050919050565b6200021a81620001fb565b81146200022657600080fd5b50565b6000815190506200023a816200020f565b92915050565b600060208284031215620002595762000258620001c2565b5b6000620002698482850162000229565b91505092915050565b611c9880620002826000396000f3fe6080604052600436106100c65760003560e01c80636655053c1161007f578063ab0eedb411610059578063ab0eedb414610298578063cddd18a6146102c1578063f851a440146102ec578063fd5e6dd11461031757610106565b80636655053c146102415780638456cb5914610258578063a94a83511461026f57610106565b806309deaa24146101415780630b9d98e91461017e5780631bfca546146101a95780633f4ba83a146101d4578063567e98f9146101eb5780635c975abb1461021657610106565b36610106576040517f08c379a00000000000000000000000000000000000000000000000000000000081526004016100fd906113cc565b60405180910390fd5b6040517f08c379a0000000000000000000000000000000000000000000000000000000008152600401610138906113cc565b60405180910390fd5b34801561014d57600080fd5b506101686004803603810190610163919061144f565b610357565b6040516101759190611495565b60405180910390f35b34801561018a57600080fd5b506101936104ac565b6040516101a09190611495565b60405180910390f35b3480156101b557600080fd5b506101be61055e565b6040516101cb919061156e565b60405180910390f35b3480156101e057600080fd5b506101e9610646565b005b3480156101f757600080fd5b506102006106e0565b60405161020d9190611495565b60405180910390f35b34801561022257600080fd5b5061022b6106ea565b60405161023891906115ab565b60405180910390f35b34801561024d57600080fd5b50610256610700565b005b34801561026457600080fd5b5061026d610b31565b005b34801561027b57600080fd5b50610296600480360381019061029191906115f2565b610bcb565b005b3480156102a457600080fd5b506102bf60048036038101906102ba919061161f565b610f07565b005b3480156102cd57600080fd5b506102d661101f565b6040516102e39190611495565b60405180910390f35b3480156102f857600080fd5b50610301611025565b60405161030e919061166e565b60405180910390f35b34801561032357600080fd5b5061033e600480360381019061033991906115f2565b61104b565b60405161034e9493929190611689565b60405180910390f35b600080600760008473ffffffffffffffffffffffffffffffffffffffff1673ffffffffffffffffffffffffffffffffffffffff1681526020019081526020016000208054806020026020016040519081016040528092919081815260200182805480156103e357602002820191906000526020600020905b8154815260200190600101908083116103cf575b5050505050905060005b81518110156104a55761044a600660008484815181106104105761040f6116ce565b5b602002602001015181526020019081526020016000206002015483838151811061043d5761043c6116ce565b5b60200260200101516110a8565b60066000848481518110610461576104606116ce565b5b6020026020010151815260200190815260200160002060020154610485919061172c565b83610490919061172c565b9250808061049d90611782565b9150506103ed565b5050919050565b6000600260009054906101000a900473ffffffffffffffffffffffffffffffffffffffff1673ffffffffffffffffffffffffffffffffffffffff166370a08231306040518263ffffffff1660e01b8152600401610509919061166e565b60206040518083038186803b15801561052157600080fd5b505afa158015610535573d6000803e3d6000fd5b505050506040513d601f19601f8201168201806040525081019061055991906117e0565b905090565b60603373ffffffffffffffffffffffffffffffffffffffff16600360009054906101000a900473ffffffffffffffffffffffffffffffffffffffff1673ffffffffffffffffffffffffffffffffffffffff16146105f0576040517f08c379a00000000000000000000000000000000000000000000000000000000081526004016105e790611859565b60405180910390fd5b600980548060200260200160405190810160405280929190818152602001828054801561063c57602002820191906000526020600020905b815481526020019060010190808311610628575b5050505050905090565b3373ffffffffffffffffffffffffffffffffffffffff16600360009054906101000a900473ffffffffffffffffffffffffffffffffffffffff1673ffffffffffffffffffffffffffffffffffffffff16146106d6576040517f08c379a00000000000000000000000000000000000000000000000000000000081526004016106cd90611859565b60405180910390fd5b6106de611210565b565b6000600454905090565b60008060009054906101000a900460ff16905090565b60026001541415610746576040517f08c379a000000000000000000000000000000000000000000000000000000000815260040161073d906118c5565b60405180910390fd5b6002600181905550610756611272565b60003390506000806000600760008573ffffffffffffffffffffffffffffffffffffffff1673ffffffffffffffffffffffffffffffffffffffff1681526020019081526020016000208054806020026020016040519081016040528092919081815260200182805480156107e957602002820191906000526020600020905b8154815260200190600101908083116107d5575b5050505050905060005b815181101561095d576000151560066000848481518110610817576108166116ce565b5b6020026020010151815260200190815260200160002060030160009054906101000a900460ff161515141561094a5761089a600660008484815181106108605761085f6116ce565b5b602002602001015181526020019081526020016000206002015483838151811061088d5761088c6116ce565b5b60200260200101516110a8565b600660008484815181106108b1576108b06116ce565b5b60200260200101518152602001908152602001600020600201546108d5919061172c565b846108e0919061172c565b93506064846108ef91906118e5565b93506064836108fe919061172c565b9250600160066000848481518110610919576109186116ce565b5b6020026020010151815260200190815260200160002060030160006101000a81548160ff0219169083151502179055505b808061095590611782565b9150506107f3565b50600260009054906101000a900473ffffffffffffffffffffffffffffffffffffffff1673ffffffffffffffffffffffffffffffffffffffff1663a9059cbb33856040518363ffffffff1660e01b81526004016109bb929190611919565b602060405180830381600087803b1580156109d557600080fd5b505af11580156109e9573d6000803e3d6000fd5b505050506040513d601f19601f82011682018060405250810190610a0d919061196e565b50600260009054906101000a900473ffffffffffffffffffffffffffffffffffffffff1673ffffffffffffffffffffffffffffffffffffffff1663a9059cbb600360009054906101000a900473ffffffffffffffffffffffffffffffffffffffff16846040518363ffffffff1660e01b8152600401610a8d929190611919565b602060405180830381600087803b158015610aa757600080fd5b505af1158015610abb573d6000803e3d6000fd5b505050506040513d601f19601f82011682018060405250810190610adf919061196e565b50828473ffffffffffffffffffffffffffffffffffffffff167f884edad9ce6fa2440d8a54cc123490eb96d2768479d49ff9c7366125a942436460405160405180910390a35050505060018081905550565b3373ffffffffffffffffffffffffffffffffffffffff16600360009054906101000a900473ffffffffffffffffffffffffffffffffffffffff1673ffffffffffffffffffffffffffffffffffffffff1614610bc1576040517f08c379a0000000000000000000000000000000000000000000000000000000008152600401610bb890611859565b60405180910390fd5b610bc96112bc565b565b610bd3611272565b600073ffffffffffffffffffffffffffffffffffffffff163373ffffffffffffffffffffffffffffffffffffffff161415610c43576040517f08c379a0000000000000000000000000000000000000000000000000000000008152600401610c3a90611a0d565b60405180910390fd5b670de0b6b3a7640000811015610c8e576040517f08c379a0000000000000000000000000000000000000000000000000000000008152600401610c8590611a79565b60405180910390fd5b600260009054906101000a900473ffffffffffffffffffffffffffffffffffffffff1673ffffffffffffffffffffffffffffffffffffffff166323b872dd3330846040518463ffffffff1660e01b8152600401610ced93929190611a99565b602060405180830381600087803b158015610d0757600080fd5b505af1158015610d1b573d6000803e3d6000fd5b505050506040513d601f19601f82011682018060405250810190610d3f919061196e565b50600160056000828254610d53919061172c565b9250508190555060405180608001604052803373ffffffffffffffffffffffffffffffffffffffff1681526020014281526020018281526020016000151581525060066000600554815260200190815260200160002060008201518160000160006101000a81548173ffffffffffffffffffffffffffffffffffffffff021916908373ffffffffffffffffffffffffffffffffffffffff160217905550602082015181600101556040820151816002015560608201518160030160006101000a81548160ff021916908315150217905550905050600760003373ffffffffffffffffffffffffffffffffffffffff1673ffffffffffffffffffffffffffffffffffffffff16815260200190815260200160002060055490806001815401808255809150506001900390600052602060002001600090919091909150558060046000828254610ea1919061172c565b92505081905550600660006005548152602001908152602001600020600201543373ffffffffffffffffffffffffffffffffffffffff167f9e71bc8eea02a63969f509818f2dafb9254532904319f9dbda79b67bd34a5f3d60405160405180910390a350565b3373ffffffffffffffffffffffffffffffffffffffff16600360009054906101000a900473ffffffffffffffffffffffffffffffffffffffff1673ffffffffffffffffffffffffffffffffffffffff1614610f97576040517f08c379a0000000000000000000000000000000000000000000000000000000008152600401610f8e90611859565b60405180910390fd5b610f9f611272565b6000601883610fae9190611ad0565b90506000603c8083610fc09190611ad0565b610fca9190611ad0565b9050606483610fd99190611ad0565b6008600083815260200190815260200160002081905550600981908060018154018082558091505060019003906000526020600020016000909190919091505550505050565b60055481565b600360009054906101000a900473ffffffffffffffffffffffffffffffffffffffff1681565b60066020528060005260406000206000915090508060000160009054906101000a900473ffffffffffffffffffffffffffffffffffffffff16908060010154908060020154908060030160009054906101000a900460ff16905084565b60006110b2611272565b60006006600084815260200190815260200160002060010154426110d691906118e5565b90506000805b60016009805490506110ee91906118e5565b81116111ec576009600160098054905061110891906118e5565b81548110611119576111186116ce565b5b9060005260206000200154831061114757600860006101a481526020019081526020016000205491506111d9565b6009818154811061115b5761115a6116ce565b5b9060005260206000200154831015801561119e5750600960018261117f919061172c565b815481106111905761118f6116ce565b5b906000526020600020015483105b156111d85760086000600983815481106111bb576111ba6116ce565b5b906000526020600020015481526020019081526020016000205491505b5b80806111e490611782565b9150506110dc565b5061271085826111fc9190611ad0565b6112069190611b59565b9250505092915050565b61121861131e565b60008060006101000a81548160ff0219169083151502179055507f5db9ee0a495bf2e6ff9c91a7834c1ba4fdd244a5e8aa4e537bd38aeae4b073aa61125b611367565b604051611268919061166e565b60405180910390a1565b61127a6106ea565b156112ba576040517f08c379a00000000000000000000000000000000000000000000000000000000081526004016112b190611bd6565b60405180910390fd5b565b6112c4611272565b60016000806101000a81548160ff0219169083151502179055507f62e78cea01bee320cd4e420270b5ea74000d11b0c9f74754ebdbfc544b05a258611307611367565b604051611314919061166e565b60405180910390a1565b6113266106ea565b611365576040517f08c379a000000000000000000000000000000000000000000000000000000000815260040161135c90611c42565b60405180910390fd5b565b600033905090565b600082825260208201905092915050565b7f4e6f206b6e6f776e207472616e73616374696f6e000000000000000000000000600082015250565b60006113b660148361136f565b91506113c182611380565b602082019050919050565b600060208201905081810360008301526113e5816113a9565b9050919050565b600080fd5b600073ffffffffffffffffffffffffffffffffffffffff82169050919050565b600061141c826113f1565b9050919050565b61142c81611411565b811461143757600080fd5b50565b60008135905061144981611423565b92915050565b600060208284031215611465576114646113ec565b5b60006114738482850161143a565b91505092915050565b6000819050919050565b61148f8161147c565b82525050565b60006020820190506114aa6000830184611486565b92915050565b600081519050919050565b600082825260208201905092915050565b6000819050602082019050919050565b6114e58161147c565b82525050565b60006114f783836114dc565b60208301905092915050565b6000602082019050919050565b600061151b826114b0565b61152581856114bb565b9350611530836114cc565b8060005b8381101561156157815161154888826114eb565b975061155383611503565b925050600181019050611534565b5085935050505092915050565b600060208201905081810360008301526115888184611510565b905092915050565b60008115159050919050565b6115a581611590565b82525050565b60006020820190506115c0600083018461159c565b92915050565b6115cf8161147c565b81146115da57600080fd5b50565b6000813590506115ec816115c6565b92915050565b600060208284031215611608576116076113ec565b5b6000611616848285016115dd565b91505092915050565b60008060408385031215611636576116356113ec565b5b6000611644858286016115dd565b9250506020611655858286016115dd565b9150509250929050565b61166881611411565b82525050565b6000602082019050611683600083018461165f565b92915050565b600060808201905061169e600083018761165f565b6116ab6020830186611486565b6116b86040830185611486565b6116c5606083018461159c565b95945050505050565b7f4e487b7100000000000000000000000000000000000000000000000000000000600052603260045260246000fd5b7f4e487b7100000000000000000000000000000000000000000000000000000000600052601160045260246000fd5b60006117378261147c565b91506117428361147c565b9250827fffffffffffffffffffffffffffffffffffffffffffffffffffffffffffffffff03821115611777576117766116fd565b5b828201905092915050565b600061178d8261147c565b91507fffffffffffffffffffffffffffffffffffffffffffffffffffffffffffffffff8214156117c0576117bf6116fd565b5b600182019050919050565b6000815190506117da816115c6565b92915050565b6000602082840312156117f6576117f56113ec565b5b6000611804848285016117cb565b91505092915050565b7f4f6e6c79206f776e65722063616e206368616e67652069740000000000000000600082015250565b600061184360188361136f565b915061184e8261180d565b602082019050919050565b6000602082019050818103600083015261187281611836565b9050919050565b7f5265656e7472616e637947756172643a207265656e7472616e742063616c6c00600082015250565b60006118af601f8361136f565b91506118ba82611879565b602082019050919050565b600060208201905081810360008301526118de816118a2565b9050919050565b60006118f08261147c565b91506118fb8361147c565b92508282101561190e5761190d6116fd565b5b828203905092915050565b600060408201905061192e600083018561165f565b61193b6020830184611486565b9392505050565b61194b81611590565b811461195657600080fd5b50565b60008151905061196881611942565b92915050565b600060208284031215611984576119836113ec565b5b600061199284828501611959565b91505092915050565b7f416464726573732063616e6e6f7420626520746865207a65726f20616464726560008201527f7373000000000000000000000000000000000000000000000000000000000000602082015250565b60006119f760228361136f565b9150611a028261199b565b604082019050919050565b60006020820190508181036000830152611a26816119ea565b9050919050565b7f56616c7565206d7573742062652067726561746572207468616e203000000000600082015250565b6000611a63601c8361136f565b9150611a6e82611a2d565b602082019050919050565b60006020820190508181036000830152611a9281611a56565b9050919050565b6000606082019050611aae600083018661165f565b611abb602083018561165f565b611ac86040830184611486565b949350505050565b6000611adb8261147c565b9150611ae68361147c565b9250817fffffffffffffffffffffffffffffffffffffffffffffffffffffffffffffffff0483118215151615611b1f57611b1e6116fd565b5b828202905092915050565b7f4e487b7100000000000000000000000000000000000000000000000000000000600052601260045260246000fd5b6000611b648261147c565b9150611b6f8361147c565b925082611b7f57611b7e611b2a565b5b828204905092915050565b7f5061757361626c653a2070617573656400000000000000000000000000000000600082015250565b6000611bc060108361136f565b9150611bcb82611b8a565b602082019050919050565b60006020820190508181036000830152611bef81611bb3565b9050919050565b7f5061757361626c653a206e6f7420706175736564000000000000000000000000600082015250565b6000611c2c60148361136f565b9150611c3782611bf6565b602082019050919050565b60006020820190508181036000830152611c5b81611c1f565b905091905056fea2646970667358221220b2d6f8e2bef4bfd41a69b25527d82e9b2c435b51e337baa78d4a4f793441216264736f6c63430008090033",
  "linkReferences": {},
  "deployedLinkReferences": {}
}